{
	"data": {
		"bytecode": {
			"linkReferences": {},
			"object": "60806040526002805460ff191690553480156200001b57600080fd5b5060405162005f4b38038062005f4b833981810160405260208110156200004157600080fd5b505180806001600160a01b0381166200008c5760405162461bcd60e51b815260040180806020018281038252604381526020018062005f086043913960600191505060405180910390fd5b620000c4604051808062005ee66022913960405190819003602201902090506001600160a01b0383166001600160e01b03620000f516565b50620000d9336001600160e01b03620000f916565b620000ed326001600160e01b03620001b816565b5050620002ab565b9055565b6001600160a01b038116620001166001600160e01b036200023f16565b6001600160a01b03167f8be0079c531659141344cd1fd0a4f28419497f9722a3daafe3b4186f6b6457e060405160405180910390a3604080517f6f72672e50686f656e69782e4f776e65722e73746f726167650000000000000081528151908190036019018120929092557f6f72672e50686f656e69782e6f776e6572457870697265642e73746f72616765825251908190036020019020426276a700019055565b6001600160a01b038116620001d56001600160e01b036200027516565b6001600160a01b03167f6b0ba40b63fe0a4e591f25c6d723a40b532ff7cf536f3ce5abc7f6fb9969418060405160405180910390a3604080517f6f72672e50686f656e69782e4f726967696e2e73746f726167650000000000008152905190819003601a01902055565b604080517f6f72672e50686f656e69782e4f776e65722e73746f7261676500000000000000815290519081900360190190205490565b604080517f6f72672e50686f656e69782e4f726967696e2e73746f726167650000000000008152905190819003601a0190205490565b615c2b80620002bb6000396000f3fe6080604052600436106102ff5760003560e01c806387e91a1d11610190578063c55b3cbc116100dc578063e335f85611610095578063f2fde38b1161006f578063f2fde38b14610da3578063f4eb3cd714610dd6578063f96757d114610deb578063fdcb648c14610e00576102ff565b8063e335f85614610cd4578063e7a1c1c014610d55578063f1f636a014610d8e576102ff565b8063c55b3cbc14610b90578063ccc61bf714610bc3578063d0ebdbe714610bf6578063d5bf63e314610c29578063d8aae16014610caa578063de811de814610cbf576102ff565b8063a2e6204511610149578063bb59dacb11610123578063bb59dacb14610abb578063bea9e2d914610ae5578063c1497fdc14610b66578063c31c9c0714610b7b576102ff565b8063a2e6204514610a10578063b18b78dd14610a25578063b622041414610a3a576102ff565b806387e91a1d146108835780638cb8490b146109065780638da5cb5b146109875780638f32d59b1461099c57806390932257146109c55780639289f0d4146109da576102ff565b80635249961b1161024f57806365d86302116102085780637bded0ef116101e25780637bded0ef146108115780637d7c2a1c146108265780638129fc1c1461083b5780638705fcd414610850576102ff565b806365d863021461072c5780636d64bcc9146107ad578063738cf437146107fc576102ff565b80635249961b1461062457806352d38e5d1461065757806354c9fbfe1461066c57806354fd4d50146106ed578063553677da14610702578063638c7e1714610717576102ff565b8063231b89bb116102bc5780632e35bcca116102965780632e35bcca146105b257806341275358146105c757806347062402146105dc5780634c69c00f146105f1576102ff565b8063231b89bb146103f65780632a86b16e146104775780632b14ca561461059d576102ff565b8063059a4c181461030157806305f63c8a1461032857806306bfcec61461036e5780630dc600cb14610383578063156e872d146103b357806321ff984b146103e1575b005b34801561030d57600080fd5b50610316610e15565b60408051918252519081900360200190f35b34801561033457600080fd5b506103526004803603602081101561034b57600080fd5b5035610e4b565b604080516001600160a01b039092168252519081900360200190f35b34801561037a57600080fd5b50610316610e69565b34801561038f57600080fd5b50610398610e6f565b60408051921515835290151560208301528051918290030190f35b3480156103bf57600080fd5b506103c8610e89565b6040805192835260208301919091528051918290030190f35b3480156103ed57600080fd5b50610316610f78565b6102ff6004803603608081101561040c57600080fd5b81359160208101359160408201359190810190608081016060820135600160201b81111561043957600080fd5b82018360208201111561044b57600080fd5b803590602001918460018302840111600160201b8311171561046c57600080fd5b509092509050610f7e565b34801561048357600080fd5b506105286004803603602081101561049a57600080fd5b810190602081018135600160201b8111156104b457600080fd5b8201836020820111156104c657600080fd5b803590602001918460018302840111600160201b831117156104e757600080fd5b91908080601f016020809104026020016040519081016040528093929190818152602001838380828437600092019190915250929550610ff1945050505050565b6040805160208082528351818301528351919283929083019185019080838360005b8381101561056257818101518382015260200161054a565b50505050905090810190601f16801561058f5780820380516001836020036101000a031916815260200191505b509250505060405180910390f35b3480156105a957600080fd5b506103166110bb565b3480156105be57600080fd5b506103166110c1565b3480156105d357600080fd5b506103526110c7565b3480156105e857600080fd5b506103166110d6565b3480156105fd57600080fd5b506102ff6004803603602081101561061457600080fd5b50356001600160a01b03166110dc565b34801561063057600080fd5b506102ff6004803603602081101561064757600080fd5b50356001600160a01b0316611141565b34801561066357600080fd5b5061031661128e565b6102ff6004803603608081101561068257600080fd5b81359160208101359160408201359190810190608081016060820135600160201b8111156106af57600080fd5b8201836020820111156106c157600080fd5b803590602001918460018302840111600160201b831117156106e257600080fd5b509092509050611294565b3480156106f957600080fd5b50610316611300565b34801561070e57600080fd5b50610352611336565b34801561072357600080fd5b50610352611345565b6102ff6004803603608081101561074257600080fd5b81359160208101359160408201359190810190608081016060820135600160201b81111561076f57600080fd5b82018360208201111561078157600080fd5b803590602001918460018302840111600160201b831117156107a257600080fd5b50909250905061136e565b3480156107b957600080fd5b506107c26113da565b604080516001600160a01b039687168152948616602086015292909416838301526060830152608082019290925290519081900360a00190f35b34801561080857600080fd5b50610316611408565b34801561081d57600080fd5b5061039861140e565b34801561083257600080fd5b506102ff61151b565b34801561084757600080fd5b506102ff6115b3565b34801561085c57600080fd5b506102ff6004803603602081101561087357600080fd5b50356001600160a01b03166115c5565b34801561088f57600080fd5b506102ff60048036036101608110156108a757600080fd5b506001600160a01b038135811691602081013582169160408201358116916060810135821691608082013581169160a081013582169160c082013581169160e0810135909116906101008101359061012081013590610140013561162a565b6102ff6004803603608081101561091c57600080fd5b81359160208101359160408201359190810190608081016060820135600160201b81111561094957600080fd5b82018360208201111561095b57600080fd5b803590602001918460018302840111600160201b8311171561097c57600080fd5b509092509050611695565b34801561099357600080fd5b50610352611701565b3480156109a857600080fd5b506109b1611733565b604080519115158252519081900360200190f35b3480156109d157600080fd5b50610316611777565b3480156109e657600080fd5b506102ff600480360360608110156109fd57600080fd5b508035906020810135906040013561177d565b348015610a1c57600080fd5b506102ff6117c6565b348015610a3157600080fd5b50610352611812565b6102ff60048036036080811015610a5057600080fd5b81359160208101359160408201359190810190608081016060820135600160201b811115610a7d57600080fd5b820183602082011115610a8f57600080fd5b803590602001918460018302840111600160201b83111715610ab057600080fd5b509092509050611821565b348015610ac757600080fd5b5061031660048036036020811015610ade57600080fd5b503561188d565b6102ff60048036036080811015610afb57600080fd5b81359160208101359160408201359190810190608081016060820135600160201b811115610b2857600080fd5b820183602082011115610b3a57600080fd5b803590602001918460018302840111600160201b83111715610b5b57600080fd5b5090925090506118a1565b348015610b7257600080fd5b506102ff61190d565b348015610b8757600080fd5b50610352611bd9565b348015610b9c57600080fd5b506102ff60048036036020811015610bb357600080fd5b50356001600160a01b0316611be8565b348015610bcf57600080fd5b506102ff60048036036020811015610be657600080fd5b50356001600160a01b0316611c50565b348015610c0257600080fd5b506102ff60048036036020811015610c1957600080fd5b50356001600160a01b0316611cb5565b6102ff60048036036080811015610c3f57600080fd5b81359160208101359160408201359190810190608081016060820135600160201b811115610c6c57600080fd5b820183602082011115610c7e57600080fd5b803590602001918460018302840111600160201b83111715610c9f57600080fd5b509092509050611d03565b348015610cb657600080fd5b506103c8611d6f565b348015610ccb57600080fd5b506107c2611e55565b6102ff60048036036080811015610cea57600080fd5b81359160208101359160408201359190810190608081016060820135600160201b811115610d1757600080fd5b820183602082011115610d2957600080fd5b803590602001918460018302840111600160201b83111715610d4a57600080fd5b509092509050611e83565b348015610d6157600080fd5b506102ff60048036036040811015610d7857600080fd5b50803590602001356001600160a01b0316611eef565b348015610d9a57600080fd5b506103c8611f89565b348015610daf57600080fd5b506102ff60048036036020811015610dc657600080fd5b50356001600160a01b031661206f565b348015610de257600080fd5b506103c86120bb565b348015610df757600080fd5b506103526121a1565b348015610e0c57600080fd5b506103166121d7565b604080517f6f72672e50686f656e69782e6f776e6572457870697265642e73746f72616765815290519081900360200190205490565b6000818152600160205260409020546001600160a01b03165b919050565b60015b90565b60035460085460ff61010092839004811692909104169091565b600080610e946158ee565b610e9c6121dd565b6040805160e08101825260035460ff8082168352610100820416151560208301526001600160a01b036201000090910481169282019290925260045482166060820152600554608082015260065460a082015260075490911660c0820152909150610f0790826122b0565b6040805160e08101825260085460ff8082168352610100820416151560208301526001600160a01b036201000090910481169282019290925260095482166060820152600a546080820152600b5460a0820152600c5490911660c0820152610f6f90836122b0565b92509250509091565b60165481565b6040805160e08101825260085460ff8082168352610100820416151560208301526001600160a01b036201000090910481169282019290925260095482166060820152600a546080820152600b5460a0820152600c5490911660c0820152610fea9086868660016123a3565b5050505050565b600e54604051825160609260009284926001600160a01b0390921691869190819060208401908083835b6020831061103a5780518252601f19909201916020918201910161101b565b6001836020036101000a038019825116818451168082178552505050505050905001915050600060405180830381855af49150503d806000811461109a576040519150601f19603f3d011682016040523d82523d6000602084013e61109f565b606091505b509150915060008214156110b4573d60208201fd5b9392505050565b60145481565b60155481565b601a546001600160a01b031681565b60135481565b6110e4611733565b61111f5760405162461bcd60e51b81526004018080602001828103825260498152602001806159b36049913960600191505060405180910390fd5b600080546001600160a01b0319166001600160a01b0392909216919091179055565b611149611733565b6111845760405162461bcd60e51b81526004018080602001828103825260498152602001806159b36049913960600191505060405180910390fd5b600d546001600160a01b03828116911614156111e7576040805162461bcd60e51b815260206004820152601960248201527f73776170526f75746572203a2073616d65206164647265737300000000000000604482015290519081900360640190fd5b600d80546001600160a01b0319166001600160a01b0383811691909117909155600354620100009004161561124557600354600d546001600160a01b03620100009092048216916112439183911660001963ffffffff6128f216565b505b6008546201000090046001600160a01b03161561128b57600854600d546001600160a01b03620100009092048216916112899183911660001963ffffffff6128f216565b505b50565b60185481565b6040805160e08101825260035460ff8082168352610100820416151560208301526001600160a01b036201000090910481169282019290925260045482166060820152600554608082015260065460a082015260075490911660c0820152610fea9086868660006123a3565b604080517f6f72672e50686f656e69782e76657273696f6e2e73746f7261676500000000008152905190819003601b0190205490565b600e546001600160a01b031681565b60006113696040518080615abd602291396040519081900360220190209050612a0a565b905090565b6040805160e08101825260035460ff8082168352610100820416151560208301526001600160a01b036201000090910481169282019290925260045482166060820152600554608082015260065460a082015260075490911660c0820152610fea908686866001612a0e565b600354600454600754600554600654620100009094046001600160a01b039081169593811694921692909190565b60175481565b6000806114196158ee565b6114216121dd565b905060006305f5e10060195463173eed80028161143a57fe5b6040805160e08101825260035460ff8082168352610100820416151560208301526001600160a01b036201000090910481169282019290925260045482166060820152600554608082015260065460a082015260075490911660c082015291900491506114a8908383612ed4565b6040805160e08101825260085460ff8082168352610100820416151560208301526001600160a01b036201000090910481169282019290925260095482166060820152600a546080820152600b5460a0820152600c5490911660c0820152611511908484612ed4565b9350935050509091565b6115236121dd565b61153190601190600261590c565b5061153a611733565b15611544576115a9565b61154c6121a1565b6001600160a01b0316336001600160a01b031614156115725761156d612fba565b6115a9565b60405162461bcd60e51b8152600401808060200182810382526029815260200180615a736029913960400191505060405180910390fd5b6115b1613113565b565b6115bb6138d5565b6306422c40601b55565b6115cd611733565b6116085760405162461bcd60e51b81526004018080602001828103825260498152602001806159b36049913960600191505060405180910390fd5b601a80546001600160a01b0319166001600160a01b0392909216919091179055565b611632611733565b61166d5760405162461bcd60e51b81526004018080602001828103825260498152602001806159b36049913960600191505060405180910390fd5b61167b8b8b8b8b8b8b6139d4565b6116888585858585613a38565b5050505050505050505050565b6040805160e08101825260035460ff8082168352610100820416151560208301526001600160a01b036201000090910481169282019290925260045482166060820152600554608082015260065460a082015260075490911660c0820152610fea908686866000612a0e565b60408051786f72672e50686f656e69782e4f776e65722e73746f7261676560381b815290519081900360190190205490565b600061173d611701565b6001600160a01b0316336001600160a01b0316148015611761575061176133613b18565b8015611369575042611771610e15565b11905090565b601b5481565b611785611733565b1561178f576117b8565b6117976121a1565b6001600160a01b0316336001600160a01b03161415611572576117b8612fba565b601392909255601455601555565b6117ce611300565b6117d6610e69565b116115b15760405162461bcd60e51b815260040180806020018281038252602e815260200180615b0d602e913960400191505060405180910390fd5b6000546001600160a01b031690565b6040805160e08101825260085460ff8082168352610100820416151560208301526001600160a01b036201000090910481169282019290925260095482166060820152600a546080820152600b5460a0820152600c5490911660c0820152610fea9086868660006123a3565b600f816002811061189a57fe5b0154905081565b6040805160e08101825260035460ff8082168352610100820416151560208301526001600160a01b036201000090910481169282019290925260045482166060820152600554608082015260065460a082015260075490911660c0820152610fea9086868660016123a3565b6119156121dd565b61192390601190600261590c565b506040805160e08101825260035460ff8082168352610100820416151560208301526201000090046001600160a01b039081168284015260045481166060830152600554608083015260065460a08301526007541660c08201528151808301928390526119b39260119060029082845b815481526020019060010190808311611993575050505050601954612ed4565b156119c7576119c26003613b1e565b6115b1565b6040805160e08101825260085460ff8082168352610100820416151560208301526001600160a01b036201000090910481168284015260095481166060830152600a546080830152600b5460a0830152600c541660c08201528151808301909252611a599160116002828282602002820191815481526020019060010190808311611993575050505050601954612ed4565b15611a68576119c26008613b1e565b6040805160e08101825260035460ff8082168352610100820416151560208301526201000090046001600160a01b039081168284015260045481166060830152600554608083015260065460a08301526007541660c0820152815180830192839052611afa9260119060029082845b815481526020019060010190808311611ad7575050505050601954600402612ed4565b80611b9557506040805160e08101825260085460ff8082168352610100820416151560208301526001600160a01b036201000090910481168284015260095481166060830152600a546080830152600b5460a0830152600c541660c08201528151808301909252611b959160116002828282602002820191815481526020019060010190808311611ad7575050505050601954600402612ed4565b15611ba2576119c2613113565b60405162461bcd60e51b8152600401808060200182810382526034815260200180615b3b6034913960400191505060405180910390fd5b600d546001600160a01b031681565b611bf06121a1565b6001600160a01b0316336001600160a01b031614611c3f5760405162461bcd60e51b8152600401808060200182810382526028815260200180615bcf6028913960400191505060405180910390fd5b611c47612fba565b61128b81613e01565b611c58611733565b611c935760405162461bcd60e51b81526004018080602001828103825260498152602001806159b36049913960600191505060405180910390fd5b600e80546001600160a01b0319166001600160a01b0392909216919091179055565b611cbd611733565b611cf85760405162461bcd60e51b81526004018080602001828103825260498152602001806159b36049913960600191505060405180910390fd5b61128b600082613e7d565b6040805160e08101825260085460ff8082168352610100820416151560208301526001600160a01b036201000090910481169282019290925260095482166060820152600a546080820152600b5460a0820152600c5490911660c0820152610fea908686866000612a0e565b600080611d7a6158ee565b611d826121dd565b6040805160e08101825260035460ff8082168352610100820416151560208301526001600160a01b036201000090910481169282019290925260045482166060820152600554608082015260065460a082015260075490911660c0820152909150611ded9082613ef1565b6040805160e08101825260085460ff8082168352610100820416151560208301526001600160a01b036201000090910481169282019290925260095482166060820152600a546080820152600b5460a0820152600c5490911660c0820152610f6f9083613ef1565b600854600954600c54600a54600b54620100009094046001600160a01b039081169593811694921692909190565b6040805160e08101825260085460ff8082168352610100820416151560208301526001600160a01b036201000090910481169282019290925260095482166060820152600a546080820152600b5460a0820152600c5490911660c0820152610fea908686866001612a0e565b611ef7611733565b15611f0157611f2a565b611f096121a1565b6001600160a01b0316336001600160a01b0316141561157257611f2a612fba565b60008211611f7f576040805162461bcd60e51b815260206004820152601960248201527f496e646578206d7573742067726561746572207468616e203000000000000000604482015290519081900360640190fd5b6112898282613e7d565b600080611f946158ee565b611f9c6121dd565b6040805160e08101825260035460ff8082168352610100820416151560208301526001600160a01b036201000090910481169282019290925260045482166060820152600554608082015260065460a082015260075490911660c08201529091506120079082613f93565b6040805160e08101825260085460ff8082168352610100820416151560208301526001600160a01b036201000090910481169282019290925260095482166060820152600a546080820152600b5460a0820152600c5490911660c0820152610f6f9083613f93565b612077611733565b6120b25760405162461bcd60e51b81526004018080602001828103825260498152602001806159b36049913960600191505060405180910390fd5b61128b8161402d565b6000806120c66158ee565b6120ce6121dd565b6040805160e08101825260035460ff8082168352610100820416151560208301526001600160a01b036201000090910481169282019290925260045482166060820152600554608082015260065460a082015260075490911660c082015290915061213990826140dd565b6040805160e08101825260085460ff8082168352610100820416151560208301526001600160a01b036201000090910481169282019290925260095482166060820152600a546080820152600b5460a0820152600c5490911660c0820152610f6f90836140dd565b604080517f6f72672e50686f656e69782e4f726967696e2e73746f726167650000000000008152905190819003601a0190205490565b60195481565b6121e56158ee565b6040805160028082526060808301845292602083019080388339505060035482519293506201000090046001600160a01b03169183915060009061222557fe5b60209081029190910101526008548151620100009091046001600160a01b0316908290600190811061225357fe5b602002602001018181525050606061226a82614181565b905060405180604001604052808260008151811061228457fe5b602002602001015181526020018260018151811061229e57fe5b60200260200101518152509250505090565b6000808360c001516001600160a01b03166318160ddd6040518163ffffffff1660e01b815260040160206040518083038186803b1580156122f057600080fd5b505afa158015612304573d6000803e3d6000fd5b505050506040513d602081101561231a57600080fd5b5051608085015160a0860151919250600091612363916305f5e0ff1901906305f5e1009061234f90869063ffffffff61438416565b8161235657fe5b049063ffffffff61438416565b90506123988161238c86886000015161237f8a600001516143dd565b919063ffffffff6144a716565b9063ffffffff61450c16565b925050505b92915050565b81428110156123f2576040805162461bcd60e51b81526020600482015260166024820152751b195d995c9859d959141bdbdb0e881156141254915160521b604482015290519081900360640190fd5b60025460ff161561240257600080fd5b6002805460ff191660011790556124176121dd565b61242590601190600261590c565b506000821561243957506040860151612470565b865160ff161561245a576003546201000090046001600160a01b031661246d565b6008546201000090046001600160a01b03165b90505b61247a818761454e565b9550600086116124c6576040805162461bcd60e51b815260206004820152601260248201527162757920616d6f756e74206973207a65726f60701b604482015290519081900360640190fd5b6124d36013548288614590565b9550600083612562576040805180820191829052612514918a919060119060029082845b8154815260200190600101908083116124f7575050505050613ef1565b60408051808201918290526125559160119060029082845b81548152602001906001019080831161252c5750508d518d94935091505063ffffffff6144a716565b8161255c57fe5b046125b6565b6040805180820191829052601180548252612595928b9291906002906012602085018083116124f7575050505050613ef1565b6125ad88670de0b6b3a764000063ffffffff61438416565b816125b457fe5b045b9050858110156125f75760405162461bcd60e51b81526004018080602001828103825260238152602001806159fc6023913960400191505060405180910390fd5b60006305f5e10061262c6305f5e1008b6080015103670de0b6b3a764000061234f8d60a001518761438490919063ffffffff16565b8161263357fe5b04905088606001516001600160a01b031663c5ebeaec826040518263ffffffff1660e01b815260040180828152602001915050602060405180830381600087803b15801561268057600080fd5b505af1158015612694573d6000803e3d6000fd5b505050506040513d60208110156126aa57600080fd5b50519050846126b957806126c9565b6126c9818963ffffffff6145e816565b60408051808201918290529199506000916127299160119060029082845b8154815260200190600101908083116126e75750508e51925061271c91508d9050670d99a8cec7e2000063ffffffff61438416565b919063ffffffff61464216565b8a5190915060009060ff1615612750576003546201000090046001600160a01b0316612763565b6008546201000090046001600160a01b03165b90506127748b60400151828c61467d565b9950818a10156127cb576040805162461bcd60e51b815260206004820152601e60248201527f7377617020736c69702070616765206973206d6f7265207468616e2032250000604482015290519081900360640190fd5b505060c0890151604080516340c10f1960e01b81523360048201526024810185905290516001600160a01b03909216916340c10f199160448082019260009290919082900301818387803b15801561282257600080fd5b505af1158015612836573d6000803e3d6000fd5b50508a5160ff1615159150612894905057604080518981526020810184905281516001600160a01b0386169233927f441480820e894bf8fa95c00a13add7f7ef881d624e46f9116eb1d32c89d3b41a929081900390910190a36128dd565b604080518981526020810184905281516001600160a01b0386169233927f61495d31be9481bda579e7f0148d9711f53d2abda843a66f65ce43a4872326d9929081900390910190a35b50506002805460ff1916905550505050505050565b801580612978575060408051636eb1769f60e11b81523060048201526001600160a01b03848116602483015291519185169163dd62ed3e91604480820192602092909190829003018186803b15801561294a57600080fd5b505afa15801561295e573d6000803e3d6000fd5b505050506040513d602081101561297457600080fd5b5051155b6129b35760405162461bcd60e51b8152600401808060200182810382526036815260200180615b996036913960400191505060405180910390fd5b604080516001600160a01b038416602482015260448082018490528251808303909101815260649091019091526020810180516001600160e01b031663095ea7b360e01b179052612a05908490614701565b505050565b5490565b8142811015612a5d576040805162461bcd60e51b81526020600482015260166024820152751b195d995c9859d959141bdbdb0e881156141254915160521b604482015290519081900360640190fd5b60025460ff1615612a6d57600080fd5b6002805460ff19166001179055612a826121dd565b612a9090601190600261590c565b5060008511612adc576040805162461bcd60e51b815260206004820152601360248201527273656c6c20616d6f756e74206973207a65726f60681b604482015290519081900360640190fd5b60008660c001516001600160a01b03166318160ddd6040518163ffffffff1660e01b815260040160206040518083038186803b158015612b1b57600080fd5b505afa158015612b2f573d6000803e3d6000fd5b505050506040513d6020811015612b4557600080fd5b5051606088015160408051635af175e360e11b81523060048201529051929350600092612be092670de0b6b3a7640000926001600160a01b039091169163b5e2ebc691602480820192602092909190829003018186803b158015612ba857600080fd5b505afa158015612bbc573d6000803e3d6000fd5b505050506040513d6020811015612bd257600080fd5b50519063ffffffff61438416565b9050600080600089851415612c04578a51849350612bfd906143dd565b9150612cd0565b612c2e6305f5e1008c60800151036305f5e10061234f8e60a001518e61438490919063ffffffff16565b925083831115612c3c578392505b6040805180820191829052612c8491612c77918e9160119060029082845b815481526020019060010190808311612c5a575050505050613f93565b8b9063ffffffff61438416565b6040805180820191829052919250612ccd919060119060029082845b815481526020019060010190808311612ca05750508f51925061271c91508790508563ffffffff6145e816565b91505b670de0b6b3a76400008304925060008715612d00578b51612cf29084866147b2565b91508b604001519050612d47565b8b51612d0d90848661482a565b8c5190925060ff1615612d31576003546201000090046001600160a01b0316612d44565b6008546201000090046001600160a01b03165b90505b612d546014548284614590565b915089821015612d955760405162461bcd60e51b81526004018080602001828103825260238152602001806159906023913960400191505060405180910390fd5b612da18c856000614915565b612dac338284614a0e565b60c08c015160408051632770a7eb60e21b8152336004820152602481018e905290516001600160a01b0390921691639dc29fac9160448082019260009290919082900301818387803b158015612e0157600080fd5b505af1158015612e15573d6000803e3d6000fd5b50508d5160ff1615159150612e73905057604080518c81526020810184905281516001600160a01b0384169233927ff46d67694cbe93169185178ce0087823cfb1521f36b5b1a52688bd7015c2a19c929081900390910190a3612ebc565b604080518c81526020810184905281516001600160a01b0384169233927f7bcdc798045519bf99dcfee59fca73a3fc8a72f36994e5f439b589248b05a367929081900390910190a35b50506002805460ff1916905550505050505050505050565b60008360c001516001600160a01b03166318160ddd6040518163ffffffff1660e01b815260040160206040518083038186803b158015612f1357600080fd5b505afa158015612f27573d6000803e3d6000fd5b505050506040513d6020811015612f3d57600080fd5b5051612f4b575060006110b4565b6040805180820191829052612f9991600f9060029082845b815481526020019060010190808311612f63575050885160808a015188016305f5e0ff190194935091505063ffffffff6144a716565b84516080860151612fb191869063ffffffff6144a716565b10949350505050565b6000349050600033308360003660405160200180866001600160a01b03166001600160a01b031660601b8152601401856001600160a01b03166001600160a01b031660601b815260140184815260200183838082843780830192505050955050505050506040516020818303038152906040528051906020012090506000613040611345565b9050600061304d83612a0a565b90506000826001600160a01b0316631ebaa16685846040518363ffffffff1660e01b8152600401808381526020018281526020019250505060206040518083038186803b15801561309d57600080fd5b505afa1580156130b1573d6000803e3d6000fd5b505050506040513d60208110156130c757600080fd5b505190508181116131095760405162461bcd60e51b815260040180806020018281038252602e815260200180615a1f602e913960400191505060405180910390fd5b610fea8482614ac5565b6040805160e08101825260035460ff8082168352610100820416151560208301526001600160a01b036201000090910481169282019290925260045482166060820152600554608082015260065460a082015260075490911660c082015260009061317d90614ac9565b6040805160e08101825260085460ff8082168352610100820416151560208301526001600160a01b036201000090910481169282019290925260095482166060820152600a546080820152600b5460a0820152600c5490911660c08201529091506000906131ea90614ac9565b90506000806131f96003614bee565b60035460408051848152602081018490528151949650929450620100009091046001600160a01b03169233927ffea7a9a6e25cd0bbbfa80ce0c7646e61ee5e0551b3fdaaff0642e6f6adcc72e292908290030190a360008061325b6008614bee565b60085460408051848152602081018490528151949650929450620100009091046001600160a01b03169233927ffea7a9a6e25cd0bbbfa80ce0c7646e61ee5e0551b3fdaaff0642e6f6adcc72e292908290030190a36132be600f6011600261594a565b508315613329576004805460408051636379abf560e11b8152928301879052516001600160a01b039091169163c6f357ea91602480830192600092919082900301818387803b15801561331057600080fd5b505af1158015613324573d6000803e3d6000fd5b505050505b81156133955760095460408051636379abf560e11b81526004810185905290516001600160a01b039092169163c6f357ea9160248082019260009290919082900301818387803b15801561337c57600080fd5b505af1158015613390573d6000803e3d6000fd5b505050505b6000841180156133a55750600082115b1561346457600d546003546008546040516001600160a01b0393841660248201818152620100009485900486166044840181905294909304909416606482018190526084820189905260a4820187905261345e94939290918991889160119190610104810190839060c4015b81548152602001906001019080831161341157505060408051601f198184030181529190526020810180516001600160e01b0316636ace646360e11b1790529650610ff195505050505050565b506137dd565b83156135ac57600d54600354600854604080518082019182905261345e946001600160a01b039081169462010000908190048216940416918991670de0b6b3a7640000916134e0919060119060029082845b8154815260200190600101908083116134b65750505050506000896144a79092919063ffffffff16565b816134e757fe5b046011600060405160240180886001600160a01b03166001600160a01b03168152602001876001600160a01b03166001600160a01b03168152602001866001600160a01b03166001600160a01b03168152602001858152602001848152602001836002801561356b576020028201915b815481526020019060010190808311613557575b505060ff909216825250604080518083038152602092830190915290810180516001600160e01b031663983fda2f60e01b1790529550610ff1945050505050565b81156136f257600d54600854600354604080518082019182905261345e946001600160a01b039081169462010000908190048216940416918791670de0b6b3a764000091613628919060119060029082845b8154815260200190600101908083116135fe57505050505060018b6144a79092919063ffffffff16565b8161362f57fe5b046011600160405160240180886001600160a01b03166001600160a01b03168152602001876001600160a01b03166001600160a01b03168152602001866001600160a01b03166001600160a01b03168152602001858152602001848152602001836002801561356b5760200282019181548152602001906001019080831161355757505060ff909216825250604080518083038152602092830190915290810180516001600160e01b031663983fda2f60e01b1790529550610ff1945050505050565b60008311806137015750600081115b156137dd57600d546003546008546040516001600160a01b0393841660248201818152620100009485900486166044840181905294909304909416606482018190526084820188905260a482018690526137ba94939290918891879160119190610104810190839060c4015b81548152602001906001019080831161376d57505060408051601f198184030181529190526020810180516001600160e01b031663f8bab6f160e01b1790529650610ff195505050505050565b80602001905160408110156137ce57600080fd5b50805160209091015190935090505b8361384a576040805160e08101825260035460ff8082168352610100820416151560208301526001600160a01b036201000090910481169282019290925260045482166060820152600554608082015260065460a082015260075490911660c082015261384a908461507d565b816138b7576040805160e08101825260085460ff8082168352610100820416151560208301526001600160a01b036201000090910481169282019290925260095482166060820152600a546080820152600b5460a0820152600c5490911660c08201526138b7908261507d565b6138c2600387615155565b6138cd600886615155565b505050505050565b600054600160a81b900460ff16806138f057506138f061542b565b806139055750600054600160a01b900460ff16155b6139405760405162461bcd60e51b815260040180806020018281038252602e815260200180615adf602e913960400191505060405180910390fd5b60008054600160a01b600160a81b60ff60a81b198316811760ff60a01b1916919091179092550460ff16613972611300565b61397a610e69565b116139b65760405162461bcd60e51b815260040180806020018281038252602e815260200180615b0d602e913960400191505060405180910390fd5b60008054911515600160a81b0260ff60a81b19909216919091179055565b601a80546001600160a01b038089166001600160a01b03199283161790925560008054868416908316178155600d8054868516908416179055600e805493851693909216929092179055613a2b9060039087615431565b6138cd6008600186615431565b613a406121dd565b613a4e90600f90600261590c565b5060c083901c60168190556017829055600555600f54670de0b6b3a7640000820281613a7657fe5b04600655600780546001600160a01b0319166001600160a01b038716179055601654600a55600f60010154670de0b6b3a7640000820281613ab357fe5b04600b5550600c80546001600160a01b0319166001600160a01b03949094169390931790925567ffffffffffffffff818116601355604082901c8116601455608091821c166015556fffffffffffffffffffffffffffffffff82166018551c60195550565b3b151590565b8054600090819060ff1615613b4f576003546008546001600160a01b03620100009283900481169290910416613b6d565b6008546003546001600160a01b036201000092839004811692909104165b84549193509150600090613b909084908490613b8b9060ff166143dd565b61467d565b905060006305f5e100613bae6015548461438490919063ffffffff16565b81613bb557fe5b0490506000613bca838363ffffffff61450c16565b600187015460408051635af175e360e11b815230600482015290519293506000926001600160a01b039092169163b5e2ebc691602480820192602092909190829003018186803b158015613c1d57600080fd5b505afa158015613c31573d6000803e3d6000fd5b505050506040513d6020811015613c4757600080fd5b5051905080841015613c6157506000915082905080613c72565b80821015613c725780915081840392505b8215613c9a57601a548754613c9a916001600160a01b03908116916201000090041685614a0e565b6040805160e081018252885460ff8082168352610100820416151560208301526001600160a01b03620100009091048116928201929092526001808a01548316606083015260028a0154608083015260038a015460a083015260048a015490921660c0820152613d0b918390614915565b90819003908115613d3a5760048701548754613d3a916001600160a01b03908116916201000090041684614a0e565b60048088015460408051635357b83d60e11b8152928301859052516001600160a01b039091169163a6af707a91602480830192600092919082900301818387803b158015613d8757600080fd5b505af1158015613d9b573d6000803e3d6000fd5b50508854604080518581526020810188905280820187905290516001600160a01b03620100009093049290921693503392507f642dd4d37ddd32036b9797cec464c0045dd2118c549066ae6b0f88e32240c2d0919081900360600190a350505050505050565b806001600160a01b0316613e136121a1565b6001600160a01b03167f6b0ba40b63fe0a4e591f25c6d723a40b532ff7cf536f3ce5abc7f6fb9969418060405160405180910390a3604080517f6f72672e50686f656e69782e4f726967696e2e73746f726167650000000000008152905190819003601a01902055565b60008281526001602052604080822054905184926001600160a01b038086169316917fcdcf7295ab87b59e053b37028611c61f1d3b3cc6269839d1a7840ab00b00a5089190a460009182526001602052604090912080546001600160a01b0319166001600160a01b03909216919091179055565b60408051808201918290526000918291613f4b91600f9060029082845b815481526020019060010190808311613f0e575050885160808a015160a08b015191945061271c9350899250849161237f9163ffffffff61438416565b90506305f5e100613f83613f766305f5e1008760800151038760a0015161438490919063ffffffff16565b839063ffffffff61450c16565b81613f8a57fe5b04949350505050565b6000808360c001516001600160a01b03166318160ddd6040518163ffffffff1660e01b815260040160206040518083038186803b158015613fd357600080fd5b505afa158015613fe7573d6000803e3d6000fd5b505050506040513d6020811015613ffd57600080fd5b505190508061401257505060a082015161239d565b8061401d85856122b0565b8161402457fe5b0491505061239d565b806001600160a01b031661403f611701565b6001600160a01b03167f8be0079c531659141344cd1fd0a4f28419497f9722a3daafe3b4186f6b6457e060405160405180910390a360408051786f72672e50686f656e69782e4f776e65722e73746f7261676560381b81528151908190036019018120929092557f6f72672e50686f656e69782e6f776e6572457870697265642e73746f72616765825251908190036020019020426276a700019055565b8151608083015160009182916140fa91859063ffffffff6144a716565b604080518082019182905291925060009161414c91600f9060029082845b815481526020019060010190808311614118575050895160808b01516305f5e0ff190194935091505063ffffffff6144a716565b9050612398614161838363ffffffff61450c16565b614175846305f5e10063ffffffff61438416565b9063ffffffff61554316565b600080546040516304e59d2760e11b815260206004820181815285516024840152855160609586956001600160a01b0316946309cb3a4e9489949384936044909301928287019291909102908190849084905b838110156141ec5781810151838201526020016141d4565b505050509050019250505060006040518083038186803b15801561420f57600080fd5b505afa158015614223573d6000803e3d6000fd5b505050506040513d6000823e601f3d908101601f19168201604052602081101561424c57600080fd5b8101908080516040519392919084600160201b82111561426b57600080fd5b90830190602082018581111561428057600080fd5b82518660208202830111600160201b8211171561429c57600080fd5b82525081516020918201928201910280838360005b838110156142c95781810151838201526020016142b1565b50505050919091016040525050855192935060009150505b8181101561437b5760648382815181106142f757fe5b60200260200101511015801561432d57506c0c9f2c9cd04674edea4000000083828151811061432257fe5b602002602001015111155b614373576040805162461bcd60e51b815260206004820152601260248201527137b930b1b63290383934b1b29032b93937b960711b604482015290519081900360640190fd5b6001016142e1565b50909392505050565b6000826143935750600061239d565b828202828482816143a057fe5b04146110b45760405162461bcd60e51b8152600401808060200182810382526021815260200180615a9c6021913960400191505060405180910390fd5b60008060ff831615614400576003546201000090046001600160a01b0316614413565b6008546201000090046001600160a01b03165b90506001600160a01b03811661442c5747915050610e64565b604080516370a0823160e01b815230600482015290516001600160a01b038316916370a08231916024808301926020929190829003018186803b15801561447257600080fd5b505afa158015614486573d6000803e3d6000fd5b505050506040513d602081101561449c57600080fd5b50519150610e649050565b600060ff8216156144eb576144e66144d86144ca8560005b602002015187614384565b670de0b6b3a7640000614384565b8460015b6020020151615543565b614504565b6145046144fc6144ca8560016144bf565b8460006144dc565b949350505050565b60006110b483836040518060400160405280601e81526020017f536166654d6174683a207375627472616374696f6e206f766572666c6f770000815250615585565b60006001600160a01b0383166145665734915061458a565b811561458a57826145886001600160a01b03821633308663ffffffff61561c16565b505b50919050565b6000806305f5e1006145a8848763ffffffff61438416565b816145af57fe5b04905080156145cf57601a546145cf906001600160a01b03168583614a0e565b6145df838263ffffffff61450c16565b95945050505050565b6000828201838110156110b4576040805162461bcd60e51b815260206004820152601b60248201527f536166654d6174683a206164646974696f6e206f766572666c6f770000000000604482015290519081900360640190fd5b600060ff82161561466c576144e66144fc61465e8560016144bf565b670de0b6b3a7640000615543565b6145046144d861465e8560006144bf565b600d54604080516001600160a01b0392831660248201528583166044820152918416606483015260848083018490528151808403909101815260a490920190526020810180516001600160e01b031663152cf14360e31b1790526000906146e390610ff1565b80602001905160208110156146f757600080fd5b5051949350505050565b6060614756826040518060400160405280602081526020017f5361666545524332303a206c6f772d6c6576656c2063616c6c206661696c6564815250856001600160a01b03166156769092919063ffffffff16565b805190915015612a055780806020019051602081101561477557600080fd5b5051612a055760405162461bcd60e51b815260040180806020018281038252602a815260200180615b6f602a913960400191505060405180910390fd5b6000808060ff8616156147e1576003546008546001600160a01b036201000092839004811692909104166147ff565b6008546003546001600160a01b036201000092839004811692909104165b9150915061480e82828761467d565b9450614820858563ffffffff61450c16565b9695505050505050565b6000808060ff861615614859576003546008546001600160a01b03620100009283900481169290910416614877565b6008546003546001600160a01b036201000092839004811692909104165b600d54604080516001600160a01b0392831660248201528285166044820152918316606483015260848083018990528151808403909101815260a490920190526020810180516001600160e01b0316630a0a830560e11b17905291935091506000906148e290610ff1565b80602001905160408110156148f657600080fd5b5051905061490a868263ffffffff61450c16565b979650505050505050565b60408301516001600160a01b031661499b5782606001516001600160a01b031663ba0b36238384846040518463ffffffff1660e01b81526004018083815260200182151515158152602001925050506000604051808303818588803b15801561497d57600080fd5b505af1158015614991573d6000803e3d6000fd5b5050505050612a05565b82606001516001600160a01b031663ba0b362383836040518363ffffffff1660e01b8152600401808381526020018215151515815260200192505050600060405180830381600087803b1580156149f157600080fd5b505af1158015614a05573d6000803e3d6000fd5b50505050505050565b6001600160a01b038216614a58576040516001600160a01b0384169082156108fc029083906000818181858888f19350505050158015614a52573d6000803e3d6000fd5b50614a75565b81614a736001600160a01b038216858463ffffffff61568516565b505b816001600160a01b0316836001600160a01b03167fd12200efa34901b99367694174c3b0d32c99585fdf37c7c26892136ddd0836d9836040518082815260200191505060405180910390a3505050565b9055565b60008082606001516001600160a01b031663b5e2ebc6306040518263ffffffff1660e01b815260040180826001600160a01b03166001600160a01b0316815260200191505060206040518083038186803b158015614b2657600080fd5b505afa158015614b3a573d6000803e3d6000fd5b505050506040513d6020811015614b5057600080fd5b505190508015614be157608083015160408051808201918290526402540be4009284929091614bc1916305f5e0ff19840191614bb591600f9060029082845b815481526020019060010190808311614b8f5750508c51925061237f91508290506143dd565b9063ffffffff61438416565b81614bc857fe5b0481614bd057fe5b0481614bd857fe5b04915050610e64565b6305f5e100915050610e64565b600480820154604080516318160ddd60e01b8152905160009384936001600160a01b0316926318160ddd9281830192602092829003018186803b158015614c3457600080fd5b505afa158015614c48573d6000803e3d6000fd5b505050506040513d6020811015614c5e57600080fd5b5051614c6f57506000905080615078565b600183015460408051637c3a00fd60e01b815290516000926001600160a01b031691637c3a00fd916004808301926020929190829003018186803b158015614cb657600080fd5b505afa158015614cca573d6000803e3d6000fd5b505050506040513d6020811015614ce057600080fd5b5051604080518082019182905267ffffffffffffffff9092169250600091614dbe9160119060029082845b815481526020019060010190808311614d0b57505089546040805160e08101825260ff808416808352610100850490911615156020830152620100009093046001600160a01b039081168284015260018e0154811660608301526002808f0154608084015260038f015460a084015260048f015490911660c083015282518084019384905293965061271c955090935060119182845b815481526020019060010190808311614da15750505050506122b0565b6015548654919250614e029160ff1615614de9576003546201000090046001600160a01b0316614dfc565b6008546201000090046001600160a01b03165b83614590565b6040805180820191829052919250600091670de0b6b3a764000091614e54919060119060029082845b815481526020019060010190808311614e2b5750508b5460ff16925061237f91508290506143dd565b81614e5b57fe5b600188015460408051635af175e360e11b815230600482015290519390920493506000926001600160a01b039091169163b5e2ebc6916024808301926020929190829003018186803b158015614eb057600080fd5b505afa158015614ec4573d6000803e3d6000fd5b505050506040513d6020811015614eda57600080fd5b50516016549091506000614f056305f5e100614bb56305f5e0ff19850181888863ffffffff61450c16565b9050630bebc200860282870203662386f26fc10000018181614f2357fe5b60018b01546040805163147afa8160e11b815230600482015290519390920493506000926001600160a01b03909116916328f5f502916024808301926020929190829003018186803b158015614f7857600080fd5b505afa158015614f8c573d6000803e3d6000fd5b505050506040513d6020811015614fa257600080fd5b5051905080821115614fe357905080614fdc614fc4828963ffffffff61438416565b61238c6305f5e100614bb5898963ffffffff61450c16565b9550615017565b6305f5e1006305f5e0ff198401615004848a8403840263ffffffff61438416565b8161500b57fe5b048161501357fe5b0495505b601b548683019086026305f5e100820210801561503d5750601b5481026305f5e1008702105b156150455750845b808611156150625760009950909403965061507895505050505050565b9490940397506000965061507895505050505050565b915091565b60408201516001600160a01b03166150f75781606001516001600160a01b0316633137ad5182836040518363ffffffff1660e01b8152600401808281526020019150506000604051808303818588803b1580156150d957600080fd5b505af11580156150ed573d6000803e3d6000fd5b5050505050611289565b81606001516001600160a01b0316633137ad51826040518263ffffffff1660e01b815260040180828152602001915050600060405180830381600087803b15801561514157600080fd5b505af11580156138cd573d6000803e3d6000fd5b60008260040160009054906101000a90046001600160a01b03166001600160a01b03166318160ddd6040518163ffffffff1660e01b815260040160206040518083038186803b1580156151a757600080fd5b505afa1580156151bb573d6000803e3d6000fd5b505050506040513d60208110156151d157600080fd5b505190508015612a05576040805180820191829052600f805482526000928592615227926305f5e10092614bb5929190600290601060208501808311614e2b5750508b5460ff16925061237f91508290506143dd565b8161522e57fe5b600186015460408051635af175e360e11b815230600482015290519390920493506000926001600160a01b039091169163b5e2ebc6916024808301926020929190829003018186803b15801561528357600080fd5b505afa158015615297573d6000803e3d6000fd5b505050506040513d60208110156152ad57600080fd5b5051905060006152db6152ce83670de0b6b3a764000063ffffffff61438416565b849063ffffffff61450c16565b9050806152f2846305f5e10063ffffffff61438416565b816152f957fe5b0460028701558554610100900460ff16156153b857855460119060ff166002811061532057fe5b0154670de0b6b3a7640000601754028161533657fe5b0460038701819055865461ff001916875560048701546001600160a01b03169063b32e882090838161536457fe5b046040518263ffffffff1660e01b815260040180828152602001915050600060405180830381600087803b15801561539b57600080fd5b505af11580156153af573d6000803e3d6000fd5b505050506138cd565b8381816153c157fe5b046003870155601854865460119060ff16600281106153dc57fe5b01546017546153fc906a52b7d2dcc80cd2e400000063ffffffff61438416565b8161540357fe5b048161540b57fe5b6003880154885461ff001916929091041161010002179095555050505050565b303b1590565b825460ff191660ff83161783556001830180546001600160a01b0319166001600160a01b038381169190911791829055604080516332f7ce0b60e21b81529051929091169163cbdf382c91600480820192602092909190829003018186803b15801561549c57600080fd5b505afa1580156154b0573d6000803e3d6000fd5b505050506040513d60208110156154c657600080fd5b5051835462010000600160b01b031916620100006001600160a01b03928316810291909117808655041615612a05578254600d546001600160a01b03620100009092048216916155219183911660001963ffffffff6128f216565b61553d6001600160a01b0382168360001963ffffffff6128f216565b50505050565b60006110b483836040518060400160405280601a81526020017f536166654d6174683a206469766973696f6e206279207a65726f0000000000008152506156d7565b600081848411156156145760405162461bcd60e51b81526004018080602001828103825283818151815260200191508051906020019080838360005b838110156155d95781810151838201526020016155c1565b50505050905090810190601f1680156156065780820380516001836020036101000a031916815260200191505b509250505060405180910390fd5b505050900390565b604080516001600160a01b0385811660248301528416604482015260648082018490528251808303909101815260849091019091526020810180516001600160e01b03166323b872dd60e01b17905261553d908590614701565b6060614504848460008561573c565b604080516001600160a01b038416602482015260448082018490528251808303909101815260649091019091526020810180516001600160e01b031663a9059cbb60e01b179052612a05908490614701565b600081836157265760405162461bcd60e51b81526020600482018181528351602484015283519092839260449091019190850190808383600083156155d95781810151838201526020016155c1565b50600083858161573257fe5b0495945050505050565b60608247101561577d5760405162461bcd60e51b8152600401808060200182810382526026815260200180615a4d6026913960400191505060405180910390fd5b61578685613b18565b6157d7576040805162461bcd60e51b815260206004820152601d60248201527f416464726573733a2063616c6c20746f206e6f6e2d636f6e7472616374000000604482015290519081900360640190fd5b60006060866001600160a01b031685876040518082805190602001908083835b602083106158165780518252601f1990920191602091820191016157f7565b6001836020036101000a03801982511681845116808217855250505050505090500191505060006040518083038185875af1925050503d8060008114615878576040519150601f19603f3d011682016040523d82523d6000602084013e61587d565b606091505b509150915061490a828286606083156158975750816110b4565b8251156158a75782518084602001fd5b60405162461bcd60e51b81526020600482018181528451602484015284518593919283926044019190850190808383600083156155d95781810151838201526020016155c1565b60405180604001604052806002906020820280388339509192915050565b826002810192821561593a579160200282015b8281111561593a57825182559160200191906001019061591f565b50615946929150615975565b5090565b826002810192821561593a579182015b8281111561593a57825482559160010191906001019061595a565b610e6c91905b80821115615946576000815560010161597b56fe526570617920616d6f756e74206973206c657373207468616e206d696e416d6f756e7470726f78794f776e65723a2063616c6c6572206d757374206265207468652070726f7879206f776e657220616e64206120636f6e747261637420616e64206e6f742065787069726564746f6b656e20616d6f756e74206973206c657373207468616e206d696e416d6f756e746d756c74695369676e6174757265436c69656e74203a2054686973207478206973206e6f7420617072726f766564416464726573733a20696e73756666696369656e742062616c616e636520666f722063616c6c70726f78794f776e65723a2063616c6c6572206973206e6f74206f776e6572206f72206f726967696e536166654d6174683a206d756c7469706c69636174696f6e206f766572666c6f776f72672e50686f656e69782e6d756c74695369676e61747572652e73746f72616765436f6e747261637420696e7374616e63652068617320616c7265616479206265656e20696e697469616c697a65644e65772076657273696f6e20696d706c656d656e746174696f6e20697320616c72656164792075706461746564214c69717569646174653a2063757272656e74207072696365206973206e6f7420756e64657220746865207468726573686f6c64215361666545524332303a204552433230206f7065726174696f6e20646964206e6f7420737563636565645361666545524332303a20617070726f76652066726f6d206e6f6e2d7a65726f20746f206e6f6e2d7a65726f20616c6c6f77616e636570726f78794f776e65723a2063616c6c6572206973206e6f7420746865207478206f726967696e21a265627a7a72315820201fd7c5d2cc0cb639b6817bca3270d2120b3a658a990b5d3d29b8e406510a9964736f6c634300051000326f72672e50686f656e69782e6d756c74695369676e61747572652e73746f726167656d756c74695369676e6174757265436c69656e74203a204d756c7469706c65207369676e617475726520636f6e74726163742061646472657373206973207a65726f21",
			"opcodes": "PUSH1 0x80 PUSH1 0x40 MSTORE PUSH1 0x2 DUP1 SLOAD PUSH1 0xFF NOT AND SWAP1 SSTORE CALLVALUE DUP1 ISZERO PUSH3 0x1B JUMPI PUSH1 0x0 DUP1 REVERT JUMPDEST POP PUSH1 0x40 MLOAD PUSH3 0x5F4B CODESIZE SUB DUP1 PUSH3 0x5F4B DUP4 CODECOPY DUP2 DUP2 ADD PUSH1 0x40 MSTORE PUSH1 0x20 DUP2 LT ISZERO PUSH3 0x41 JUMPI PUSH1 0x0 DUP1 REVERT JUMPDEST POP MLOAD DUP1 DUP1 PUSH1 0x1 PUSH1 0x1 PUSH1 0xA0 SHL SUB DUP2 AND PUSH3 0x8C JUMPI PUSH1 0x40 MLOAD PUSH3 0x461BCD PUSH1 0xE5 SHL DUP2 MSTORE PUSH1 0x4 ADD DUP1 DUP1 PUSH1 0x20 ADD DUP3 DUP2 SUB DUP3 MSTORE PUSH1 0x43 DUP2 MSTORE PUSH1 0x20 ADD DUP1 PUSH3 0x5F08 PUSH1 0x43 SWAP2 CODECOPY PUSH1 0x60 ADD SWAP2 POP POP PUSH1 0x40 MLOAD DUP1 SWAP2 SUB SWAP1 REVERT JUMPDEST PUSH3 0xC4 PUSH1 0x40 MLOAD DUP1 DUP1 PUSH3 0x5EE6 PUSH1 0x22 SWAP2 CODECOPY PUSH1 0x40 MLOAD SWAP1 DUP2 SWAP1 SUB PUSH1 0x22 ADD SWAP1 KECCAK256 SWAP1 POP PUSH1 0x1 PUSH1 0x1 PUSH1 0xA0 SHL SUB DUP4 AND PUSH1 0x1 PUSH1 0x1 PUSH1 0xE0 SHL SUB PUSH3 0xF5 AND JUMP JUMPDEST POP PUSH3 0xD9 CALLER PUSH1 0x1 PUSH1 0x1 PUSH1 0xE0 SHL SUB PUSH3 0xF9 AND JUMP JUMPDEST PUSH3 0xED ORIGIN PUSH1 0x1 PUSH1 0x1 PUSH1 0xE0 SHL SUB PUSH3 0x1B8 AND JUMP JUMPDEST POP POP PUSH3 0x2AB JUMP JUMPDEST SWAP1 SSTORE JUMP JUMPDEST PUSH1 0x1 PUSH1 0x1 PUSH1 0xA0 SHL SUB DUP2 AND PUSH3 0x116 PUSH1 0x1 PUSH1 0x1 PUSH1 0xE0 SHL SUB PUSH3 0x23F AND JUMP JUMPDEST PUSH1 0x1 PUSH1 0x1 PUSH1 0xA0 SHL SUB AND PUSH32 0x8BE0079C531659141344CD1FD0A4F28419497F9722A3DAAFE3B4186F6B6457E0 PUSH1 0x40 MLOAD PUSH1 0x40 MLOAD DUP1 SWAP2 SUB SWAP1 LOG3 PUSH1 0x40 DUP1 MLOAD PUSH32 0x6F72672E50686F656E69782E4F776E65722E73746F7261676500000000000000 DUP2 MSTORE DUP2 MLOAD SWAP1 DUP2 SWAP1 SUB PUSH1 0x19 ADD DUP2 KECCAK256 SWAP3 SWAP1 SWAP3 SSTORE PUSH32 0x6F72672E50686F656E69782E6F776E6572457870697265642E73746F72616765 DUP3 MSTORE MLOAD SWAP1 DUP2 SWAP1 SUB PUSH1 0x20 ADD SWAP1 KECCAK256 TIMESTAMP PUSH3 0x76A700 ADD SWAP1 SSTORE JUMP JUMPDEST PUSH1 0x1 PUSH1 0x1 PUSH1 0xA0 SHL SUB DUP2 AND PUSH3 0x1D5 PUSH1 0x1 PUSH1 0x1 PUSH1 0xE0 SHL SUB PUSH3 0x275 AND JUMP JUMPDEST PUSH1 0x1 PUSH1 0x1 PUSH1 0xA0 SHL SUB AND PUSH32 0x6B0BA40B63FE0A4E591F25C6D723A40B532FF7CF536F3CE5ABC7F6FB99694180 PUSH1 0x40 MLOAD PUSH1 0x40 MLOAD DUP1 SWAP2 SUB SWAP1 LOG3 PUSH1 0x40 DUP1 MLOAD PUSH32 0x6F72672E50686F656E69782E4F726967696E2E73746F72616765000000000000 DUP2 MSTORE SWAP1 MLOAD SWAP1 DUP2 SWAP1 SUB PUSH1 0x1A ADD SWAP1 KECCAK256 SSTORE JUMP JUMPDEST PUSH1 0x40 DUP1 MLOAD PUSH32 0x6F72672E50686F656E69782E4F776E65722E73746F7261676500000000000000 DUP2 MSTORE SWAP1 MLOAD SWAP1 DUP2 SWAP1 SUB PUSH1 0x19 ADD SWAP1 KECCAK256 SLOAD SWAP1 JUMP JUMPDEST PUSH1 0x40 DUP1 MLOAD PUSH32 0x6F72672E50686F656E69782E4F726967696E2E73746F72616765000000000000 DUP2 MSTORE SWAP1 MLOAD SWAP1 DUP2 SWAP1 SUB PUSH1 0x1A ADD SWAP1 KECCAK256 SLOAD SWAP1 JUMP JUMPDEST PUSH2 0x5C2B DUP1 PUSH3 0x2BB PUSH1 0x0 CODECOPY PUSH1 0x0 RETURN INVALID PUSH1 0x80 PUSH1 0x40 MSTORE PUSH1 0x4 CALLDATASIZE LT PUSH2 0x2FF JUMPI PUSH1 0x0 CALLDATALOAD PUSH1 0xE0 SHR DUP1 PUSH4 0x87E91A1D GT PUSH2 0x190 JUMPI DUP1 PUSH4 0xC55B3CBC GT PUSH2 0xDC JUMPI DUP1 PUSH4 0xE335F856 GT PUSH2 0x95 JUMPI DUP1 PUSH4 0xF2FDE38B GT PUSH2 0x6F JUMPI DUP1 PUSH4 0xF2FDE38B EQ PUSH2 0xDA3 JUMPI DUP1 PUSH4 0xF4EB3CD7 EQ PUSH2 0xDD6 JUMPI DUP1 PUSH4 0xF96757D1 EQ PUSH2 0xDEB JUMPI DUP1 PUSH4 0xFDCB648C EQ PUSH2 0xE00 JUMPI PUSH2 0x2FF JUMP JUMPDEST DUP1 PUSH4 0xE335F856 EQ PUSH2 0xCD4 JUMPI DUP1 PUSH4 0xE7A1C1C0 EQ PUSH2 0xD55 JUMPI DUP1 PUSH4 0xF1F636A0 EQ PUSH2 0xD8E JUMPI PUSH2 0x2FF JUMP JUMPDEST DUP1 PUSH4 0xC55B3CBC EQ PUSH2 0xB90 JUMPI DUP1 PUSH4 0xCCC61BF7 EQ PUSH2 0xBC3 JUMPI DUP1 PUSH4 0xD0EBDBE7 EQ PUSH2 0xBF6 JUMPI DUP1 PUSH4 0xD5BF63E3 EQ PUSH2 0xC29 JUMPI DUP1 PUSH4 0xD8AAE160 EQ PUSH2 0xCAA JUMPI DUP1 PUSH4 0xDE811DE8 EQ PUSH2 0xCBF JUMPI PUSH2 0x2FF JUMP JUMPDEST DUP1 PUSH4 0xA2E62045 GT PUSH2 0x149 JUMPI DUP1 PUSH4 0xBB59DACB GT PUSH2 0x123 JUMPI DUP1 PUSH4 0xBB59DACB EQ PUSH2 0xABB JUMPI DUP1 PUSH4 0xBEA9E2D9 EQ PUSH2 0xAE5 JUMPI DUP1 PUSH4 0xC1497FDC EQ PUSH2 0xB66 JUMPI DUP1 PUSH4 0xC31C9C07 EQ PUSH2 0xB7B JUMPI PUSH2 0x2FF JUMP JUMPDEST DUP1 PUSH4 0xA2E62045 EQ PUSH2 0xA10 JUMPI DUP1 PUSH4 0xB18B78DD EQ PUSH2 0xA25 JUMPI DUP1 PUSH4 0xB6220414 EQ PUSH2 0xA3A JUMPI PUSH2 0x2FF JUMP JUMPDEST DUP1 PUSH4 0x87E91A1D EQ PUSH2 0x883 JUMPI DUP1 PUSH4 0x8CB8490B EQ PUSH2 0x906 JUMPI DUP1 PUSH4 0x8DA5CB5B EQ PUSH2 0x987 JUMPI DUP1 PUSH4 0x8F32D59B EQ PUSH2 0x99C JUMPI DUP1 PUSH4 0x90932257 EQ PUSH2 0x9C5 JUMPI DUP1 PUSH4 0x9289F0D4 EQ PUSH2 0x9DA JUMPI PUSH2 0x2FF JUMP JUMPDEST DUP1 PUSH4 0x5249961B GT PUSH2 0x24F JUMPI DUP1 PUSH4 0x65D86302 GT PUSH2 0x208 JUMPI DUP1 PUSH4 0x7BDED0EF GT PUSH2 0x1E2 JUMPI DUP1 PUSH4 0x7BDED0EF EQ PUSH2 0x811 JUMPI DUP1 PUSH4 0x7D7C2A1C EQ PUSH2 0x826 JUMPI DUP1 PUSH4 0x8129FC1C EQ PUSH2 0x83B JUMPI DUP1 PUSH4 0x8705FCD4 EQ PUSH2 0x850 JUMPI PUSH2 0x2FF JUMP JUMPDEST DUP1 PUSH4 0x65D86302 EQ PUSH2 0x72C JUMPI DUP1 PUSH4 0x6D64BCC9 EQ PUSH2 0x7AD JUMPI DUP1 PUSH4 0x738CF437 EQ PUSH2 0x7FC JUMPI PUSH2 0x2FF JUMP JUMPDEST DUP1 PUSH4 0x5249961B EQ PUSH2 0x624 JUMPI DUP1 PUSH4 0x52D38E5D EQ PUSH2 0x657 JUMPI DUP1 PUSH4 0x54C9FBFE EQ PUSH2 0x66C JUMPI DUP1 PUSH4 0x54FD4D50 EQ PUSH2 0x6ED JUMPI DUP1 PUSH4 0x553677DA EQ PUSH2 0x702 JUMPI DUP1 PUSH4 0x638C7E17 EQ PUSH2 0x717 JUMPI PUSH2 0x2FF JUMP JUMPDEST DUP1 PUSH4 0x231B89BB GT PUSH2 0x2BC JUMPI DUP1 PUSH4 0x2E35BCCA GT PUSH2 0x296 JUMPI DUP1 PUSH4 0x2E35BCCA EQ PUSH2 0x5B2 JUMPI DUP1 PUSH4 0x41275358 EQ PUSH2 0x5C7 JUMPI DUP1 PUSH4 0x47062402 EQ PUSH2 0x5DC JUMPI DUP1 PUSH4 0x4C69C00F EQ PUSH2 0x5F1 JUMPI PUSH2 0x2FF JUMP JUMPDEST DUP1 PUSH4 0x231B89BB EQ PUSH2 0x3F6 JUMPI DUP1 PUSH4 0x2A86B16E EQ PUSH2 0x477 JUMPI DUP1 PUSH4 0x2B14CA56 EQ PUSH2 0x59D JUMPI PUSH2 0x2FF JUMP JUMPDEST DUP1 PUSH4 0x59A4C18 EQ PUSH2 0x301 JUMPI DUP1 PUSH4 0x5F63C8A EQ PUSH2 0x328 JUMPI DUP1 PUSH4 0x6BFCEC6 EQ PUSH2 0x36E JUMPI DUP1 PUSH4 0xDC600CB EQ PUSH2 0x383 JUMPI DUP1 PUSH4 0x156E872D EQ PUSH2 0x3B3 JUMPI DUP1 PUSH4 0x21FF984B EQ PUSH2 0x3E1 JUMPI JUMPDEST STOP JUMPDEST CALLVALUE DUP1 ISZERO PUSH2 0x30D JUMPI PUSH1 0x0 DUP1 REVERT JUMPDEST POP PUSH2 0x316 PUSH2 0xE15 JUMP JUMPDEST PUSH1 0x40 DUP1 MLOAD SWAP2 DUP3 MSTORE MLOAD SWAP1 DUP2 SWAP1 SUB PUSH1 0x20 ADD SWAP1 RETURN JUMPDEST CALLVALUE DUP1 ISZERO PUSH2 0x334 JUMPI PUSH1 0x0 DUP1 REVERT JUMPDEST POP PUSH2 0x352 PUSH1 0x4 DUP1 CALLDATASIZE SUB PUSH1 0x20 DUP2 LT ISZERO PUSH2 0x34B JUMPI PUSH1 0x0 DUP1 REVERT JUMPDEST POP CALLDATALOAD PUSH2 0xE4B JUMP JUMPDEST PUSH1 0x40 DUP1 MLOAD PUSH1 0x1 PUSH1 0x1 PUSH1 0xA0 SHL SUB SWAP1 SWAP3 AND DUP3 MSTORE MLOAD SWAP1 DUP2 SWAP1 SUB PUSH1 0x20 ADD SWAP1 RETURN JUMPDEST CALLVALUE DUP1 ISZERO PUSH2 0x37A JUMPI PUSH1 0x0 DUP1 REVERT JUMPDEST POP PUSH2 0x316 PUSH2 0xE69 JUMP JUMPDEST CALLVALUE DUP1 ISZERO PUSH2 0x38F JUMPI PUSH1 0x0 DUP1 REVERT JUMPDEST POP PUSH2 0x398 PUSH2 0xE6F JUMP JUMPDEST PUSH1 0x40 DUP1 MLOAD SWAP3 ISZERO ISZERO DUP4 MSTORE SWAP1 ISZERO ISZERO PUSH1 0x20 DUP4 ADD MSTORE DUP1 MLOAD SWAP2 DUP3 SWAP1 SUB ADD SWAP1 RETURN JUMPDEST CALLVALUE DUP1 ISZERO PUSH2 0x3BF JUMPI PUSH1 0x0 DUP1 REVERT JUMPDEST POP PUSH2 0x3C8 PUSH2 0xE89 JUMP JUMPDEST PUSH1 0x40 DUP1 MLOAD SWAP3 DUP4 MSTORE PUSH1 0x20 DUP4 ADD SWAP2 SWAP1 SWAP2 MSTORE DUP1 MLOAD SWAP2 DUP3 SWAP1 SUB ADD SWAP1 RETURN JUMPDEST CALLVALUE DUP1 ISZERO PUSH2 0x3ED JUMPI PUSH1 0x0 DUP1 REVERT JUMPDEST POP PUSH2 0x316 PUSH2 0xF78 JUMP JUMPDEST PUSH2 0x2FF PUSH1 0x4 DUP1 CALLDATASIZE SUB PUSH1 0x80 DUP2 LT ISZERO PUSH2 0x40C JUMPI PUSH1 0x0 DUP1 REVERT JUMPDEST DUP2 CALLDATALOAD SWAP2 PUSH1 0x20 DUP2 ADD CALLDATALOAD SWAP2 PUSH1 0x40 DUP3 ADD CALLDATALOAD SWAP2 SWAP1 DUP2 ADD SWAP1 PUSH1 0x80 DUP2 ADD PUSH1 0x60 DUP3 ADD CALLDATALOAD PUSH1 0x1 PUSH1 0x20 SHL DUP2 GT ISZERO PUSH2 0x439 JUMPI PUSH1 0x0 DUP1 REVERT JUMPDEST DUP3 ADD DUP4 PUSH1 0x20 DUP3 ADD GT ISZERO PUSH2 0x44B JUMPI PUSH1 0x0 DUP1 REVERT JUMPDEST DUP1 CALLDATALOAD SWAP1 PUSH1 0x20 ADD SWAP2 DUP5 PUSH1 0x1 DUP4 MUL DUP5 ADD GT PUSH1 0x1 PUSH1 0x20 SHL DUP4 GT OR ISZERO PUSH2 0x46C JUMPI PUSH1 0x0 DUP1 REVERT JUMPDEST POP SWAP1 SWAP3 POP SWAP1 POP PUSH2 0xF7E JUMP JUMPDEST CALLVALUE DUP1 ISZERO PUSH2 0x483 JUMPI PUSH1 0x0 DUP1 REVERT JUMPDEST POP PUSH2 0x528 PUSH1 0x4 DUP1 CALLDATASIZE SUB PUSH1 0x20 DUP2 LT ISZERO PUSH2 0x49A JUMPI PUSH1 0x0 DUP1 REVERT JUMPDEST DUP2 ADD SWAP1 PUSH1 0x20 DUP2 ADD DUP2 CALLDATALOAD PUSH1 0x1 PUSH1 0x20 SHL DUP2 GT ISZERO PUSH2 0x4B4 JUMPI PUSH1 0x0 DUP1 REVERT JUMPDEST DUP3 ADD DUP4 PUSH1 0x20 DUP3 ADD GT ISZERO PUSH2 0x4C6 JUMPI PUSH1 0x0 DUP1 REVERT JUMPDEST DUP1 CALLDATALOAD SWAP1 PUSH1 0x20 ADD SWAP2 DUP5 PUSH1 0x1 DUP4 MUL DUP5 ADD GT PUSH1 0x1 PUSH1 0x20 SHL DUP4 GT OR ISZERO PUSH2 0x4E7 JUMPI PUSH1 0x0 DUP1 REVERT JUMPDEST SWAP2 SWAP1 DUP1 DUP1 PUSH1 0x1F ADD PUSH1 0x20 DUP1 SWAP2 DIV MUL PUSH1 0x20 ADD PUSH1 0x40 MLOAD SWAP1 DUP2 ADD PUSH1 0x40 MSTORE DUP1 SWAP4 SWAP3 SWAP2 SWAP1 DUP2 DUP2 MSTORE PUSH1 0x20 ADD DUP4 DUP4 DUP1 DUP3 DUP5 CALLDATACOPY PUSH1 0x0 SWAP3 ADD SWAP2 SWAP1 SWAP2 MSTORE POP SWAP3 SWAP6 POP PUSH2 0xFF1 SWAP5 POP POP POP POP POP JUMP JUMPDEST PUSH1 0x40 DUP1 MLOAD PUSH1 0x20 DUP1 DUP3 MSTORE DUP4 MLOAD DUP2 DUP4 ADD MSTORE DUP4 MLOAD SWAP2 SWAP3 DUP4 SWAP3 SWAP1 DUP4 ADD SWAP2 DUP6 ADD SWAP1 DUP1 DUP4 DUP4 PUSH1 0x0 JUMPDEST DUP4 DUP2 LT ISZERO PUSH2 0x562 JUMPI DUP2 DUP2 ADD MLOAD DUP4 DUP3 ADD MSTORE PUSH1 0x20 ADD PUSH2 0x54A JUMP JUMPDEST POP POP POP POP SWAP1 POP SWAP1 DUP2 ADD SWAP1 PUSH1 0x1F AND DUP1 ISZERO PUSH2 0x58F JUMPI DUP1 DUP3 SUB DUP1 MLOAD PUSH1 0x1 DUP4 PUSH1 0x20 SUB PUSH2 0x100 EXP SUB NOT AND DUP2 MSTORE PUSH1 0x20 ADD SWAP2 POP JUMPDEST POP SWAP3 POP POP POP PUSH1 0x40 MLOAD DUP1 SWAP2 SUB SWAP1 RETURN JUMPDEST CALLVALUE DUP1 ISZERO PUSH2 0x5A9 JUMPI PUSH1 0x0 DUP1 REVERT JUMPDEST POP PUSH2 0x316 PUSH2 0x10BB JUMP JUMPDEST CALLVALUE DUP1 ISZERO PUSH2 0x5BE JUMPI PUSH1 0x0 DUP1 REVERT JUMPDEST POP PUSH2 0x316 PUSH2 0x10C1 JUMP JUMPDEST CALLVALUE DUP1 ISZERO PUSH2 0x5D3 JUMPI PUSH1 0x0 DUP1 REVERT JUMPDEST POP PUSH2 0x352 PUSH2 0x10C7 JUMP JUMPDEST CALLVALUE DUP1 ISZERO PUSH2 0x5E8 JUMPI PUSH1 0x0 DUP1 REVERT JUMPDEST POP PUSH2 0x316 PUSH2 0x10D6 JUMP JUMPDEST CALLVALUE DUP1 ISZERO PUSH2 0x5FD JUMPI PUSH1 0x0 DUP1 REVERT JUMPDEST POP PUSH2 0x2FF PUSH1 0x4 DUP1 CALLDATASIZE SUB PUSH1 0x20 DUP2 LT ISZERO PUSH2 0x614 JUMPI PUSH1 0x0 DUP1 REVERT JUMPDEST POP CALLDATALOAD PUSH1 0x1 PUSH1 0x1 PUSH1 0xA0 SHL SUB AND PUSH2 0x10DC JUMP JUMPDEST CALLVALUE DUP1 ISZERO PUSH2 0x630 JUMPI PUSH1 0x0 DUP1 REVERT JUMPDEST POP PUSH2 0x2FF PUSH1 0x4 DUP1 CALLDATASIZE SUB PUSH1 0x20 DUP2 LT ISZERO PUSH2 0x647 JUMPI PUSH1 0x0 DUP1 REVERT JUMPDEST POP CALLDATALOAD PUSH1 0x1 PUSH1 0x1 PUSH1 0xA0 SHL SUB AND PUSH2 0x1141 JUMP JUMPDEST CALLVALUE DUP1 ISZERO PUSH2 0x663 JUMPI PUSH1 0x0 DUP1 REVERT JUMPDEST POP PUSH2 0x316 PUSH2 0x128E JUMP JUMPDEST PUSH2 0x2FF PUSH1 0x4 DUP1 CALLDATASIZE SUB PUSH1 0x80 DUP2 LT ISZERO PUSH2 0x682 JUMPI PUSH1 0x0 DUP1 REVERT JUMPDEST DUP2 CALLDATALOAD SWAP2 PUSH1 0x20 DUP2 ADD CALLDATALOAD SWAP2 PUSH1 0x40 DUP3 ADD CALLDATALOAD SWAP2 SWAP1 DUP2 ADD SWAP1 PUSH1 0x80 DUP2 ADD PUSH1 0x60 DUP3 ADD CALLDATALOAD PUSH1 0x1 PUSH1 0x20 SHL DUP2 GT ISZERO PUSH2 0x6AF JUMPI PUSH1 0x0 DUP1 REVERT JUMPDEST DUP3 ADD DUP4 PUSH1 0x20 DUP3 ADD GT ISZERO PUSH2 0x6C1 JUMPI PUSH1 0x0 DUP1 REVERT JUMPDEST DUP1 CALLDATALOAD SWAP1 PUSH1 0x20 ADD SWAP2 DUP5 PUSH1 0x1 DUP4 MUL DUP5 ADD GT PUSH1 0x1 PUSH1 0x20 SHL DUP4 GT OR ISZERO PUSH2 0x6E2 JUMPI PUSH1 0x0 DUP1 REVERT JUMPDEST POP SWAP1 SWAP3 POP SWAP1 POP PUSH2 0x1294 JUMP JUMPDEST CALLVALUE DUP1 ISZERO PUSH2 0x6F9 JUMPI PUSH1 0x0 DUP1 REVERT JUMPDEST POP PUSH2 0x316 PUSH2 0x1300 JUMP JUMPDEST CALLVALUE DUP1 ISZERO PUSH2 0x70E JUMPI PUSH1 0x0 DUP1 REVERT JUMPDEST POP PUSH2 0x352 PUSH2 0x1336 JUMP JUMPDEST CALLVALUE DUP1 ISZERO PUSH2 0x723 JUMPI PUSH1 0x0 DUP1 REVERT JUMPDEST POP PUSH2 0x352 PUSH2 0x1345 JUMP JUMPDEST PUSH2 0x2FF PUSH1 0x4 DUP1 CALLDATASIZE SUB PUSH1 0x80 DUP2 LT ISZERO PUSH2 0x742 JUMPI PUSH1 0x0 DUP1 REVERT JUMPDEST DUP2 CALLDATALOAD SWAP2 PUSH1 0x20 DUP2 ADD CALLDATALOAD SWAP2 PUSH1 0x40 DUP3 ADD CALLDATALOAD SWAP2 SWAP1 DUP2 ADD SWAP1 PUSH1 0x80 DUP2 ADD PUSH1 0x60 DUP3 ADD CALLDATALOAD PUSH1 0x1 PUSH1 0x20 SHL DUP2 GT ISZERO PUSH2 0x76F JUMPI PUSH1 0x0 DUP1 REVERT JUMPDEST DUP3 ADD DUP4 PUSH1 0x20 DUP3 ADD GT ISZERO PUSH2 0x781 JUMPI PUSH1 0x0 DUP1 REVERT JUMPDEST DUP1 CALLDATALOAD SWAP1 PUSH1 0x20 ADD SWAP2 DUP5 PUSH1 0x1 DUP4 MUL DUP5 ADD GT PUSH1 0x1 PUSH1 0x20 SHL DUP4 GT OR ISZERO PUSH2 0x7A2 JUMPI PUSH1 0x0 DUP1 REVERT JUMPDEST POP SWAP1 SWAP3 POP SWAP1 POP PUSH2 0x136E JUMP JUMPDEST CALLVALUE DUP1 ISZERO PUSH2 0x7B9 JUMPI PUSH1 0x0 DUP1 REVERT JUMPDEST POP PUSH2 0x7C2 PUSH2 0x13DA JUMP JUMPDEST PUSH1 0x40 DUP1 MLOAD PUSH1 0x1 PUSH1 0x1 PUSH1 0xA0 SHL SUB SWAP7 DUP8 AND DUP2 MSTORE SWAP5 DUP7 AND PUSH1 0x20 DUP7 ADD MSTORE SWAP3 SWAP1 SWAP5 AND DUP4 DUP4 ADD MSTORE PUSH1 0x60 DUP4 ADD MSTORE PUSH1 0x80 DUP3 ADD SWAP3 SWAP1 SWAP3 MSTORE SWAP1 MLOAD SWAP1 DUP2 SWAP1 SUB PUSH1 0xA0 ADD SWAP1 RETURN JUMPDEST CALLVALUE DUP1 ISZERO PUSH2 0x808 JUMPI PUSH1 0x0 DUP1 REVERT JUMPDEST POP PUSH2 0x316 PUSH2 0x1408 JUMP JUMPDEST CALLVALUE DUP1 ISZERO PUSH2 0x81D JUMPI PUSH1 0x0 DUP1 REVERT JUMPDEST POP PUSH2 0x398 PUSH2 0x140E JUMP JUMPDEST CALLVALUE DUP1 ISZERO PUSH2 0x832 JUMPI PUSH1 0x0 DUP1 REVERT JUMPDEST POP PUSH2 0x2FF PUSH2 0x151B JUMP JUMPDEST CALLVALUE DUP1 ISZERO PUSH2 0x847 JUMPI PUSH1 0x0 DUP1 REVERT JUMPDEST POP PUSH2 0x2FF PUSH2 0x15B3 JUMP JUMPDEST CALLVALUE DUP1 ISZERO PUSH2 0x85C JUMPI PUSH1 0x0 DUP1 REVERT JUMPDEST POP PUSH2 0x2FF PUSH1 0x4 DUP1 CALLDATASIZE SUB PUSH1 0x20 DUP2 LT ISZERO PUSH2 0x873 JUMPI PUSH1 0x0 DUP1 REVERT JUMPDEST POP CALLDATALOAD PUSH1 0x1 PUSH1 0x1 PUSH1 0xA0 SHL SUB AND PUSH2 0x15C5 JUMP JUMPDEST CALLVALUE DUP1 ISZERO PUSH2 0x88F JUMPI PUSH1 0x0 DUP1 REVERT JUMPDEST POP PUSH2 0x2FF PUSH1 0x4 DUP1 CALLDATASIZE SUB PUSH2 0x160 DUP2 LT ISZERO PUSH2 0x8A7 JUMPI PUSH1 0x0 DUP1 REVERT JUMPDEST POP PUSH1 0x1 PUSH1 0x1 PUSH1 0xA0 SHL SUB DUP2 CALLDATALOAD DUP2 AND SWAP2 PUSH1 0x20 DUP2 ADD CALLDATALOAD DUP3 AND SWAP2 PUSH1 0x40 DUP3 ADD CALLDATALOAD DUP2 AND SWAP2 PUSH1 0x60 DUP2 ADD CALLDATALOAD DUP3 AND SWAP2 PUSH1 0x80 DUP3 ADD CALLDATALOAD DUP2 AND SWAP2 PUSH1 0xA0 DUP2 ADD CALLDATALOAD DUP3 AND SWAP2 PUSH1 0xC0 DUP3 ADD CALLDATALOAD DUP2 AND SWAP2 PUSH1 0xE0 DUP2 ADD CALLDATALOAD SWAP1 SWAP2 AND SWAP1 PUSH2 0x100 DUP2 ADD CALLDATALOAD SWAP1 PUSH2 0x120 DUP2 ADD CALLDATALOAD SWAP1 PUSH2 0x140 ADD CALLDATALOAD PUSH2 0x162A JUMP JUMPDEST PUSH2 0x2FF PUSH1 0x4 DUP1 CALLDATASIZE SUB PUSH1 0x80 DUP2 LT ISZERO PUSH2 0x91C JUMPI PUSH1 0x0 DUP1 REVERT JUMPDEST DUP2 CALLDATALOAD SWAP2 PUSH1 0x20 DUP2 ADD CALLDATALOAD SWAP2 PUSH1 0x40 DUP3 ADD CALLDATALOAD SWAP2 SWAP1 DUP2 ADD SWAP1 PUSH1 0x80 DUP2 ADD PUSH1 0x60 DUP3 ADD CALLDATALOAD PUSH1 0x1 PUSH1 0x20 SHL DUP2 GT ISZERO PUSH2 0x949 JUMPI PUSH1 0x0 DUP1 REVERT JUMPDEST DUP3 ADD DUP4 PUSH1 0x20 DUP3 ADD GT ISZERO PUSH2 0x95B JUMPI PUSH1 0x0 DUP1 REVERT JUMPDEST DUP1 CALLDATALOAD SWAP1 PUSH1 0x20 ADD SWAP2 DUP5 PUSH1 0x1 DUP4 MUL DUP5 ADD GT PUSH1 0x1 PUSH1 0x20 SHL DUP4 GT OR ISZERO PUSH2 0x97C JUMPI PUSH1 0x0 DUP1 REVERT JUMPDEST POP SWAP1 SWAP3 POP SWAP1 POP PUSH2 0x1695 JUMP JUMPDEST CALLVALUE DUP1 ISZERO PUSH2 0x993 JUMPI PUSH1 0x0 DUP1 REVERT JUMPDEST POP PUSH2 0x352 PUSH2 0x1701 JUMP JUMPDEST CALLVALUE DUP1 ISZERO PUSH2 0x9A8 JUMPI PUSH1 0x0 DUP1 REVERT JUMPDEST POP PUSH2 0x9B1 PUSH2 0x1733 JUMP JUMPDEST PUSH1 0x40 DUP1 MLOAD SWAP2 ISZERO ISZERO DUP3 MSTORE MLOAD SWAP1 DUP2 SWAP1 SUB PUSH1 0x20 ADD SWAP1 RETURN JUMPDEST CALLVALUE DUP1 ISZERO PUSH2 0x9D1 JUMPI PUSH1 0x0 DUP1 REVERT JUMPDEST POP PUSH2 0x316 PUSH2 0x1777 JUMP JUMPDEST CALLVALUE DUP1 ISZERO PUSH2 0x9E6 JUMPI PUSH1 0x0 DUP1 REVERT JUMPDEST POP PUSH2 0x2FF PUSH1 0x4 DUP1 CALLDATASIZE SUB PUSH1 0x60 DUP2 LT ISZERO PUSH2 0x9FD JUMPI PUSH1 0x0 DUP1 REVERT JUMPDEST POP DUP1 CALLDATALOAD SWAP1 PUSH1 0x20 DUP2 ADD CALLDATALOAD SWAP1 PUSH1 0x40 ADD CALLDATALOAD PUSH2 0x177D JUMP JUMPDEST CALLVALUE DUP1 ISZERO PUSH2 0xA1C JUMPI PUSH1 0x0 DUP1 REVERT JUMPDEST POP PUSH2 0x2FF PUSH2 0x17C6 JUMP JUMPDEST CALLVALUE DUP1 ISZERO PUSH2 0xA31 JUMPI PUSH1 0x0 DUP1 REVERT JUMPDEST POP PUSH2 0x352 PUSH2 0x1812 JUMP JUMPDEST PUSH2 0x2FF PUSH1 0x4 DUP1 CALLDATASIZE SUB PUSH1 0x80 DUP2 LT ISZERO PUSH2 0xA50 JUMPI PUSH1 0x0 DUP1 REVERT JUMPDEST DUP2 CALLDATALOAD SWAP2 PUSH1 0x20 DUP2 ADD CALLDATALOAD SWAP2 PUSH1 0x40 DUP3 ADD CALLDATALOAD SWAP2 SWAP1 DUP2 ADD SWAP1 PUSH1 0x80 DUP2 ADD PUSH1 0x60 DUP3 ADD CALLDATALOAD PUSH1 0x1 PUSH1 0x20 SHL DUP2 GT ISZERO PUSH2 0xA7D JUMPI PUSH1 0x0 DUP1 REVERT JUMPDEST DUP3 ADD DUP4 PUSH1 0x20 DUP3 ADD GT ISZERO PUSH2 0xA8F JUMPI PUSH1 0x0 DUP1 REVERT JUMPDEST DUP1 CALLDATALOAD SWAP1 PUSH1 0x20 ADD SWAP2 DUP5 PUSH1 0x1 DUP4 MUL DUP5 ADD GT PUSH1 0x1 PUSH1 0x20 SHL DUP4 GT OR ISZERO PUSH2 0xAB0 JUMPI PUSH1 0x0 DUP1 REVERT JUMPDEST POP SWAP1 SWAP3 POP SWAP1 POP PUSH2 0x1821 JUMP JUMPDEST CALLVALUE DUP1 ISZERO PUSH2 0xAC7 JUMPI PUSH1 0x0 DUP1 REVERT JUMPDEST POP PUSH2 0x316 PUSH1 0x4 DUP1 CALLDATASIZE SUB PUSH1 0x20 DUP2 LT ISZERO PUSH2 0xADE JUMPI PUSH1 0x0 DUP1 REVERT JUMPDEST POP CALLDATALOAD PUSH2 0x188D JUMP JUMPDEST PUSH2 0x2FF PUSH1 0x4 DUP1 CALLDATASIZE SUB PUSH1 0x80 DUP2 LT ISZERO PUSH2 0xAFB JUMPI PUSH1 0x0 DUP1 REVERT JUMPDEST DUP2 CALLDATALOAD SWAP2 PUSH1 0x20 DUP2 ADD CALLDATALOAD SWAP2 PUSH1 0x40 DUP3 ADD CALLDATALOAD SWAP2 SWAP1 DUP2 ADD SWAP1 PUSH1 0x80 DUP2 ADD PUSH1 0x60 DUP3 ADD CALLDATALOAD PUSH1 0x1 PUSH1 0x20 SHL DUP2 GT ISZERO PUSH2 0xB28 JUMPI PUSH1 0x0 DUP1 REVERT JUMPDEST DUP3 ADD DUP4 PUSH1 0x20 DUP3 ADD GT ISZERO PUSH2 0xB3A JUMPI PUSH1 0x0 DUP1 REVERT JUMPDEST DUP1 CALLDATALOAD SWAP1 PUSH1 0x20 ADD SWAP2 DUP5 PUSH1 0x1 DUP4 MUL DUP5 ADD GT PUSH1 0x1 PUSH1 0x20 SHL DUP4 GT OR ISZERO PUSH2 0xB5B JUMPI PUSH1 0x0 DUP1 REVERT JUMPDEST POP SWAP1 SWAP3 POP SWAP1 POP PUSH2 0x18A1 JUMP JUMPDEST CALLVALUE DUP1 ISZERO PUSH2 0xB72 JUMPI PUSH1 0x0 DUP1 REVERT JUMPDEST POP PUSH2 0x2FF PUSH2 0x190D JUMP JUMPDEST CALLVALUE DUP1 ISZERO PUSH2 0xB87 JUMPI PUSH1 0x0 DUP1 REVERT JUMPDEST POP PUSH2 0x352 PUSH2 0x1BD9 JUMP JUMPDEST CALLVALUE DUP1 ISZERO PUSH2 0xB9C JUMPI PUSH1 0x0 DUP1 REVERT JUMPDEST POP PUSH2 0x2FF PUSH1 0x4 DUP1 CALLDATASIZE SUB PUSH1 0x20 DUP2 LT ISZERO PUSH2 0xBB3 JUMPI PUSH1 0x0 DUP1 REVERT JUMPDEST POP CALLDATALOAD PUSH1 0x1 PUSH1 0x1 PUSH1 0xA0 SHL SUB AND PUSH2 0x1BE8 JUMP JUMPDEST CALLVALUE DUP1 ISZERO PUSH2 0xBCF JUMPI PUSH1 0x0 DUP1 REVERT JUMPDEST POP PUSH2 0x2FF PUSH1 0x4 DUP1 CALLDATASIZE SUB PUSH1 0x20 DUP2 LT ISZERO PUSH2 0xBE6 JUMPI PUSH1 0x0 DUP1 REVERT JUMPDEST POP CALLDATALOAD PUSH1 0x1 PUSH1 0x1 PUSH1 0xA0 SHL SUB AND PUSH2 0x1C50 JUMP JUMPDEST CALLVALUE DUP1 ISZERO PUSH2 0xC02 JUMPI PUSH1 0x0 DUP1 REVERT JUMPDEST POP PUSH2 0x2FF PUSH1 0x4 DUP1 CALLDATASIZE SUB PUSH1 0x20 DUP2 LT ISZERO PUSH2 0xC19 JUMPI PUSH1 0x0 DUP1 REVERT JUMPDEST POP CALLDATALOAD PUSH1 0x1 PUSH1 0x1 PUSH1 0xA0 SHL SUB AND PUSH2 0x1CB5 JUMP JUMPDEST PUSH2 0x2FF PUSH1 0x4 DUP1 CALLDATASIZE SUB PUSH1 0x80 DUP2 LT ISZERO PUSH2 0xC3F JUMPI PUSH1 0x0 DUP1 REVERT JUMPDEST DUP2 CALLDATALOAD SWAP2 PUSH1 0x20 DUP2 ADD CALLDATALOAD SWAP2 PUSH1 0x40 DUP3 ADD CALLDATALOAD SWAP2 SWAP1 DUP2 ADD SWAP1 PUSH1 0x80 DUP2 ADD PUSH1 0x60 DUP3 ADD CALLDATALOAD PUSH1 0x1 PUSH1 0x20 SHL DUP2 GT ISZERO PUSH2 0xC6C JUMPI PUSH1 0x0 DUP1 REVERT JUMPDEST DUP3 ADD DUP4 PUSH1 0x20 DUP3 ADD GT ISZERO PUSH2 0xC7E JUMPI PUSH1 0x0 DUP1 REVERT JUMPDEST DUP1 CALLDATALOAD SWAP1 PUSH1 0x20 ADD SWAP2 DUP5 PUSH1 0x1 DUP4 MUL DUP5 ADD GT PUSH1 0x1 PUSH1 0x20 SHL DUP4 GT OR ISZERO PUSH2 0xC9F JUMPI PUSH1 0x0 DUP1 REVERT JUMPDEST POP SWAP1 SWAP3 POP SWAP1 POP PUSH2 0x1D03 JUMP JUMPDEST CALLVALUE DUP1 ISZERO PUSH2 0xCB6 JUMPI PUSH1 0x0 DUP1 REVERT JUMPDEST POP PUSH2 0x3C8 PUSH2 0x1D6F JUMP JUMPDEST CALLVALUE DUP1 ISZERO PUSH2 0xCCB JUMPI PUSH1 0x0 DUP1 REVERT JUMPDEST POP PUSH2 0x7C2 PUSH2 0x1E55 JUMP JUMPDEST PUSH2 0x2FF PUSH1 0x4 DUP1 CALLDATASIZE SUB PUSH1 0x80 DUP2 LT ISZERO PUSH2 0xCEA JUMPI PUSH1 0x0 DUP1 REVERT JUMPDEST DUP2 CALLDATALOAD SWAP2 PUSH1 0x20 DUP2 ADD CALLDATALOAD SWAP2 PUSH1 0x40 DUP3 ADD CALLDATALOAD SWAP2 SWAP1 DUP2 ADD SWAP1 PUSH1 0x80 DUP2 ADD PUSH1 0x60 DUP3 ADD CALLDATALOAD PUSH1 0x1 PUSH1 0x20 SHL DUP2 GT ISZERO PUSH2 0xD17 JUMPI PUSH1 0x0 DUP1 REVERT JUMPDEST DUP3 ADD DUP4 PUSH1 0x20 DUP3 ADD GT ISZERO PUSH2 0xD29 JUMPI PUSH1 0x0 DUP1 REVERT JUMPDEST DUP1 CALLDATALOAD SWAP1 PUSH1 0x20 ADD SWAP2 DUP5 PUSH1 0x1 DUP4 MUL DUP5 ADD GT PUSH1 0x1 PUSH1 0x20 SHL DUP4 GT OR ISZERO PUSH2 0xD4A JUMPI PUSH1 0x0 DUP1 REVERT JUMPDEST POP SWAP1 SWAP3 POP SWAP1 POP PUSH2 0x1E83 JUMP JUMPDEST CALLVALUE DUP1 ISZERO PUSH2 0xD61 JUMPI PUSH1 0x0 DUP1 REVERT JUMPDEST POP PUSH2 0x2FF PUSH1 0x4 DUP1 CALLDATASIZE SUB PUSH1 0x40 DUP2 LT ISZERO PUSH2 0xD78 JUMPI PUSH1 0x0 DUP1 REVERT JUMPDEST POP DUP1 CALLDATALOAD SWAP1 PUSH1 0x20 ADD CALLDATALOAD PUSH1 0x1 PUSH1 0x1 PUSH1 0xA0 SHL SUB AND PUSH2 0x1EEF JUMP JUMPDEST CALLVALUE DUP1 ISZERO PUSH2 0xD9A JUMPI PUSH1 0x0 DUP1 REVERT JUMPDEST POP PUSH2 0x3C8 PUSH2 0x1F89 JUMP JUMPDEST CALLVALUE DUP1 ISZERO PUSH2 0xDAF JUMPI PUSH1 0x0 DUP1 REVERT JUMPDEST POP PUSH2 0x2FF PUSH1 0x4 DUP1 CALLDATASIZE SUB PUSH1 0x20 DUP2 LT ISZERO PUSH2 0xDC6 JUMPI PUSH1 0x0 DUP1 REVERT JUMPDEST POP CALLDATALOAD PUSH1 0x1 PUSH1 0x1 PUSH1 0xA0 SHL SUB AND PUSH2 0x206F JUMP JUMPDEST CALLVALUE DUP1 ISZERO PUSH2 0xDE2 JUMPI PUSH1 0x0 DUP1 REVERT JUMPDEST POP PUSH2 0x3C8 PUSH2 0x20BB JUMP JUMPDEST CALLVALUE DUP1 ISZERO PUSH2 0xDF7 JUMPI PUSH1 0x0 DUP1 REVERT JUMPDEST POP PUSH2 0x352 PUSH2 0x21A1 JUMP JUMPDEST CALLVALUE DUP1 ISZERO PUSH2 0xE0C JUMPI PUSH1 0x0 DUP1 REVERT JUMPDEST POP PUSH2 0x316 PUSH2 0x21D7 JUMP JUMPDEST PUSH1 0x40 DUP1 MLOAD PUSH32 0x6F72672E50686F656E69782E6F776E6572457870697265642E73746F72616765 DUP2 MSTORE SWAP1 MLOAD SWAP1 DUP2 SWAP1 SUB PUSH1 0x20 ADD SWAP1 KECCAK256 SLOAD SWAP1 JUMP JUMPDEST PUSH1 0x0 DUP2 DUP2 MSTORE PUSH1 0x1 PUSH1 0x20 MSTORE PUSH1 0x40 SWAP1 KECCAK256 SLOAD PUSH1 0x1 PUSH1 0x1 PUSH1 0xA0 SHL SUB AND JUMPDEST SWAP2 SWAP1 POP JUMP JUMPDEST PUSH1 0x1 JUMPDEST SWAP1 JUMP JUMPDEST PUSH1 0x3 SLOAD PUSH1 0x8 SLOAD PUSH1 0xFF PUSH2 0x100 SWAP3 DUP4 SWAP1 DIV DUP2 AND SWAP3 SWAP1 SWAP2 DIV AND SWAP1 SWAP2 JUMP JUMPDEST PUSH1 0x0 DUP1 PUSH2 0xE94 PUSH2 0x58EE JUMP JUMPDEST PUSH2 0xE9C PUSH2 0x21DD JUMP JUMPDEST PUSH1 0x40 DUP1 MLOAD PUSH1 0xE0 DUP2 ADD DUP3 MSTORE PUSH1 0x3 SLOAD PUSH1 0xFF DUP1 DUP3 AND DUP4 MSTORE PUSH2 0x100 DUP3 DIV AND ISZERO ISZERO PUSH1 0x20 DUP4 ADD MSTORE PUSH1 0x1 PUSH1 0x1 PUSH1 0xA0 SHL SUB PUSH3 0x10000 SWAP1 SWAP2 DIV DUP2 AND SWAP3 DUP3 ADD SWAP3 SWAP1 SWAP3 MSTORE PUSH1 0x4 SLOAD DUP3 AND PUSH1 0x60 DUP3 ADD MSTORE PUSH1 0x5 SLOAD PUSH1 0x80 DUP3 ADD MSTORE PUSH1 0x6 SLOAD PUSH1 0xA0 DUP3 ADD MSTORE PUSH1 0x7 SLOAD SWAP1 SWAP2 AND PUSH1 0xC0 DUP3 ADD MSTORE SWAP1 SWAP2 POP PUSH2 0xF07 SWAP1 DUP3 PUSH2 0x22B0 JUMP JUMPDEST PUSH1 0x40 DUP1 MLOAD PUSH1 0xE0 DUP2 ADD DUP3 MSTORE PUSH1 0x8 SLOAD PUSH1 0xFF DUP1 DUP3 AND DUP4 MSTORE PUSH2 0x100 DUP3 DIV AND ISZERO ISZERO PUSH1 0x20 DUP4 ADD MSTORE PUSH1 0x1 PUSH1 0x1 PUSH1 0xA0 SHL SUB PUSH3 0x10000 SWAP1 SWAP2 DIV DUP2 AND SWAP3 DUP3 ADD SWAP3 SWAP1 SWAP3 MSTORE PUSH1 0x9 SLOAD DUP3 AND PUSH1 0x60 DUP3 ADD MSTORE PUSH1 0xA SLOAD PUSH1 0x80 DUP3 ADD MSTORE PUSH1 0xB SLOAD PUSH1 0xA0 DUP3 ADD MSTORE PUSH1 0xC SLOAD SWAP1 SWAP2 AND PUSH1 0xC0 DUP3 ADD MSTORE PUSH2 0xF6F SWAP1 DUP4 PUSH2 0x22B0 JUMP JUMPDEST SWAP3 POP SWAP3 POP POP SWAP1 SWAP2 JUMP JUMPDEST PUSH1 0x16 SLOAD DUP2 JUMP JUMPDEST PUSH1 0x40 DUP1 MLOAD PUSH1 0xE0 DUP2 ADD DUP3 MSTORE PUSH1 0x8 SLOAD PUSH1 0xFF DUP1 DUP3 AND DUP4 MSTORE PUSH2 0x100 DUP3 DIV AND ISZERO ISZERO PUSH1 0x20 DUP4 ADD MSTORE PUSH1 0x1 PUSH1 0x1 PUSH1 0xA0 SHL SUB PUSH3 0x10000 SWAP1 SWAP2 DIV DUP2 AND SWAP3 DUP3 ADD SWAP3 SWAP1 SWAP3 MSTORE PUSH1 0x9 SLOAD DUP3 AND PUSH1 0x60 DUP3 ADD MSTORE PUSH1 0xA SLOAD PUSH1 0x80 DUP3 ADD MSTORE PUSH1 0xB SLOAD PUSH1 0xA0 DUP3 ADD MSTORE PUSH1 0xC SLOAD SWAP1 SWAP2 AND PUSH1 0xC0 DUP3 ADD MSTORE PUSH2 0xFEA SWAP1 DUP7 DUP7 DUP7 PUSH1 0x1 PUSH2 0x23A3 JUMP JUMPDEST POP POP POP POP POP JUMP JUMPDEST PUSH1 0xE SLOAD PUSH1 0x40 MLOAD DUP3 MLOAD PUSH1 0x60 SWAP3 PUSH1 0x0 SWAP3 DUP5 SWAP3 PUSH1 0x1 PUSH1 0x1 PUSH1 0xA0 SHL SUB SWAP1 SWAP3 AND SWAP2 DUP7 SWAP2 SWAP1 DUP2 SWAP1 PUSH1 0x20 DUP5 ADD SWAP1 DUP1 DUP4 DUP4 JUMPDEST PUSH1 0x20 DUP4 LT PUSH2 0x103A JUMPI DUP1 MLOAD DUP3 MSTORE PUSH1 0x1F NOT SWAP1 SWAP3 ADD SWAP2 PUSH1 0x20 SWAP2 DUP3 ADD SWAP2 ADD PUSH2 0x101B JUMP JUMPDEST PUSH1 0x1 DUP4 PUSH1 0x20 SUB PUSH2 0x100 EXP SUB DUP1 NOT DUP3 MLOAD AND DUP2 DUP5 MLOAD AND DUP1 DUP3 OR DUP6 MSTORE POP POP POP POP POP POP SWAP1 POP ADD SWAP2 POP POP PUSH1 0x0 PUSH1 0x40 MLOAD DUP1 DUP4 SUB DUP2 DUP6 GAS DELEGATECALL SWAP2 POP POP RETURNDATASIZE DUP1 PUSH1 0x0 DUP2 EQ PUSH2 0x109A JUMPI PUSH1 0x40 MLOAD SWAP2 POP PUSH1 0x1F NOT PUSH1 0x3F RETURNDATASIZE ADD AND DUP3 ADD PUSH1 0x40 MSTORE RETURNDATASIZE DUP3 MSTORE RETURNDATASIZE PUSH1 0x0 PUSH1 0x20 DUP5 ADD RETURNDATACOPY PUSH2 0x109F JUMP JUMPDEST PUSH1 0x60 SWAP2 POP JUMPDEST POP SWAP2 POP SWAP2 POP PUSH1 0x0 DUP3 EQ ISZERO PUSH2 0x10B4 JUMPI RETURNDATASIZE PUSH1 0x20 DUP3 ADD REVERT JUMPDEST SWAP4 SWAP3 POP POP POP JUMP JUMPDEST PUSH1 0x14 SLOAD DUP2 JUMP JUMPDEST PUSH1 0x15 SLOAD DUP2 JUMP JUMPDEST PUSH1 0x1A SLOAD PUSH1 0x1 PUSH1 0x1 PUSH1 0xA0 SHL SUB AND DUP2 JUMP JUMPDEST PUSH1 0x13 SLOAD DUP2 JUMP JUMPDEST PUSH2 0x10E4 PUSH2 0x1733 JUMP JUMPDEST PUSH2 0x111F JUMPI PUSH1 0x40 MLOAD PUSH3 0x461BCD PUSH1 0xE5 SHL DUP2 MSTORE PUSH1 0x4 ADD DUP1 DUP1 PUSH1 0x20 ADD DUP3 DUP2 SUB DUP3 MSTORE PUSH1 0x49 DUP2 MSTORE PUSH1 0x20 ADD DUP1 PUSH2 0x59B3 PUSH1 0x49 SWAP2 CODECOPY PUSH1 0x60 ADD SWAP2 POP POP PUSH1 0x40 MLOAD DUP1 SWAP2 SUB SWAP1 REVERT JUMPDEST PUSH1 0x0 DUP1 SLOAD PUSH1 0x1 PUSH1 0x1 PUSH1 0xA0 SHL SUB NOT AND PUSH1 0x1 PUSH1 0x1 PUSH1 0xA0 SHL SUB SWAP3 SWAP1 SWAP3 AND SWAP2 SWAP1 SWAP2 OR SWAP1 SSTORE JUMP JUMPDEST PUSH2 0x1149 PUSH2 0x1733 JUMP JUMPDEST PUSH2 0x1184 JUMPI PUSH1 0x40 MLOAD PUSH3 0x461BCD PUSH1 0xE5 SHL DUP2 MSTORE PUSH1 0x4 ADD DUP1 DUP1 PUSH1 0x20 ADD DUP3 DUP2 SUB DUP3 MSTORE PUSH1 0x49 DUP2 MSTORE PUSH1 0x20 ADD DUP1 PUSH2 0x59B3 PUSH1 0x49 SWAP2 CODECOPY PUSH1 0x60 ADD SWAP2 POP POP PUSH1 0x40 MLOAD DUP1 SWAP2 SUB SWAP1 REVERT JUMPDEST PUSH1 0xD SLOAD PUSH1 0x1 PUSH1 0x1 PUSH1 0xA0 SHL SUB DUP3 DUP2 AND SWAP2 AND EQ ISZERO PUSH2 0x11E7 JUMPI PUSH1 0x40 DUP1 MLOAD PUSH3 0x461BCD PUSH1 0xE5 SHL DUP2 MSTORE PUSH1 0x20 PUSH1 0x4 DUP3 ADD MSTORE PUSH1 0x19 PUSH1 0x24 DUP3 ADD MSTORE PUSH32 0x73776170526F75746572203A2073616D65206164647265737300000000000000 PUSH1 0x44 DUP3 ADD MSTORE SWAP1 MLOAD SWAP1 DUP2 SWAP1 SUB PUSH1 0x64 ADD SWAP1 REVERT JUMPDEST PUSH1 0xD DUP1 SLOAD PUSH1 0x1 PUSH1 0x1 PUSH1 0xA0 SHL SUB NOT AND PUSH1 0x1 PUSH1 0x1 PUSH1 0xA0 SHL SUB DUP4 DUP2 AND SWAP2 SWAP1 SWAP2 OR SWAP1 SWAP2 SSTORE PUSH1 0x3 SLOAD PUSH3 0x10000 SWAP1 DIV AND ISZERO PUSH2 0x1245 JUMPI PUSH1 0x3 SLOAD PUSH1 0xD SLOAD PUSH1 0x1 PUSH1 0x1 PUSH1 0xA0 SHL SUB PUSH3 0x10000 SWAP1 SWAP3 DIV DUP3 AND SWAP2 PUSH2 0x1243 SWAP2 DUP4 SWAP2 AND PUSH1 0x0 NOT PUSH4 0xFFFFFFFF PUSH2 0x28F2 AND JUMP JUMPDEST POP JUMPDEST PUSH1 0x8 SLOAD PUSH3 0x10000 SWAP1 DIV PUSH1 0x1 PUSH1 0x1 PUSH1 0xA0 SHL SUB AND ISZERO PUSH2 0x128B JUMPI PUSH1 0x8 SLOAD PUSH1 0xD SLOAD PUSH1 0x1 PUSH1 0x1 PUSH1 0xA0 SHL SUB PUSH3 0x10000 SWAP1 SWAP3 DIV DUP3 AND SWAP2 PUSH2 0x1289 SWAP2 DUP4 SWAP2 AND PUSH1 0x0 NOT PUSH4 0xFFFFFFFF PUSH2 0x28F2 AND JUMP JUMPDEST POP JUMPDEST POP JUMP JUMPDEST PUSH1 0x18 SLOAD DUP2 JUMP JUMPDEST PUSH1 0x40 DUP1 MLOAD PUSH1 0xE0 DUP2 ADD DUP3 MSTORE PUSH1 0x3 SLOAD PUSH1 0xFF DUP1 DUP3 AND DUP4 MSTORE PUSH2 0x100 DUP3 DIV AND ISZERO ISZERO PUSH1 0x20 DUP4 ADD MSTORE PUSH1 0x1 PUSH1 0x1 PUSH1 0xA0 SHL SUB PUSH3 0x10000 SWAP1 SWAP2 DIV DUP2 AND SWAP3 DUP3 ADD SWAP3 SWAP1 SWAP3 MSTORE PUSH1 0x4 SLOAD DUP3 AND PUSH1 0x60 DUP3 ADD MSTORE PUSH1 0x5 SLOAD PUSH1 0x80 DUP3 ADD MSTORE PUSH1 0x6 SLOAD PUSH1 0xA0 DUP3 ADD MSTORE PUSH1 0x7 SLOAD SWAP1 SWAP2 AND PUSH1 0xC0 DUP3 ADD MSTORE PUSH2 0xFEA SWAP1 DUP7 DUP7 DUP7 PUSH1 0x0 PUSH2 0x23A3 JUMP JUMPDEST PUSH1 0x40 DUP1 MLOAD PUSH32 0x6F72672E50686F656E69782E76657273696F6E2E73746F726167650000000000 DUP2 MSTORE SWAP1 MLOAD SWAP1 DUP2 SWAP1 SUB PUSH1 0x1B ADD SWAP1 KECCAK256 SLOAD SWAP1 JUMP JUMPDEST PUSH1 0xE SLOAD PUSH1 0x1 PUSH1 0x1 PUSH1 0xA0 SHL SUB AND DUP2 JUMP JUMPDEST PUSH1 0x0 PUSH2 0x1369 PUSH1 0x40 MLOAD DUP1 DUP1 PUSH2 0x5ABD PUSH1 0x22 SWAP2 CODECOPY PUSH1 0x40 MLOAD SWAP1 DUP2 SWAP1 SUB PUSH1 0x22 ADD SWAP1 KECCAK256 SWAP1 POP PUSH2 0x2A0A JUMP JUMPDEST SWAP1 POP SWAP1 JUMP JUMPDEST PUSH1 0x40 DUP1 MLOAD PUSH1 0xE0 DUP2 ADD DUP3 MSTORE PUSH1 0x3 SLOAD PUSH1 0xFF DUP1 DUP3 AND DUP4 MSTORE PUSH2 0x100 DUP3 DIV AND ISZERO ISZERO PUSH1 0x20 DUP4 ADD MSTORE PUSH1 0x1 PUSH1 0x1 PUSH1 0xA0 SHL SUB PUSH3 0x10000 SWAP1 SWAP2 DIV DUP2 AND SWAP3 DUP3 ADD SWAP3 SWAP1 SWAP3 MSTORE PUSH1 0x4 SLOAD DUP3 AND PUSH1 0x60 DUP3 ADD MSTORE PUSH1 0x5 SLOAD PUSH1 0x80 DUP3 ADD MSTORE PUSH1 0x6 SLOAD PUSH1 0xA0 DUP3 ADD MSTORE PUSH1 0x7 SLOAD SWAP1 SWAP2 AND PUSH1 0xC0 DUP3 ADD MSTORE PUSH2 0xFEA SWAP1 DUP7 DUP7 DUP7 PUSH1 0x1 PUSH2 0x2A0E JUMP JUMPDEST PUSH1 0x3 SLOAD PUSH1 0x4 SLOAD PUSH1 0x7 SLOAD PUSH1 0x5 SLOAD PUSH1 0x6 SLOAD PUSH3 0x10000 SWAP1 SWAP5 DIV PUSH1 0x1 PUSH1 0x1 PUSH1 0xA0 SHL SUB SWAP1 DUP2 AND SWAP6 SWAP4 DUP2 AND SWAP5 SWAP3 AND SWAP3 SWAP1 SWAP2 SWAP1 JUMP JUMPDEST PUSH1 0x17 SLOAD DUP2 JUMP JUMPDEST PUSH1 0x0 DUP1 PUSH2 0x1419 PUSH2 0x58EE JUMP JUMPDEST PUSH2 0x1421 PUSH2 0x21DD JUMP JUMPDEST SWAP1 POP PUSH1 0x0 PUSH4 0x5F5E100 PUSH1 0x19 SLOAD PUSH4 0x173EED80 MUL DUP2 PUSH2 0x143A JUMPI INVALID JUMPDEST PUSH1 0x40 DUP1 MLOAD PUSH1 0xE0 DUP2 ADD DUP3 MSTORE PUSH1 0x3 SLOAD PUSH1 0xFF DUP1 DUP3 AND DUP4 MSTORE PUSH2 0x100 DUP3 DIV AND ISZERO ISZERO PUSH1 0x20 DUP4 ADD MSTORE PUSH1 0x1 PUSH1 0x1 PUSH1 0xA0 SHL SUB PUSH3 0x10000 SWAP1 SWAP2 DIV DUP2 AND SWAP3 DUP3 ADD SWAP3 SWAP1 SWAP3 MSTORE PUSH1 0x4 SLOAD DUP3 AND PUSH1 0x60 DUP3 ADD MSTORE PUSH1 0x5 SLOAD PUSH1 0x80 DUP3 ADD MSTORE PUSH1 0x6 SLOAD PUSH1 0xA0 DUP3 ADD MSTORE PUSH1 0x7 SLOAD SWAP1 SWAP2 AND PUSH1 0xC0 DUP3 ADD MSTORE SWAP2 SWAP1 DIV SWAP2 POP PUSH2 0x14A8 SWAP1 DUP4 DUP4 PUSH2 0x2ED4 JUMP JUMPDEST PUSH1 0x40 DUP1 MLOAD PUSH1 0xE0 DUP2 ADD DUP3 MSTORE PUSH1 0x8 SLOAD PUSH1 0xFF DUP1 DUP3 AND DUP4 MSTORE PUSH2 0x100 DUP3 DIV AND ISZERO ISZERO PUSH1 0x20 DUP4 ADD MSTORE PUSH1 0x1 PUSH1 0x1 PUSH1 0xA0 SHL SUB PUSH3 0x10000 SWAP1 SWAP2 DIV DUP2 AND SWAP3 DUP3 ADD SWAP3 SWAP1 SWAP3 MSTORE PUSH1 0x9 SLOAD DUP3 AND PUSH1 0x60 DUP3 ADD MSTORE PUSH1 0xA SLOAD PUSH1 0x80 DUP3 ADD MSTORE PUSH1 0xB SLOAD PUSH1 0xA0 DUP3 ADD MSTORE PUSH1 0xC SLOAD SWAP1 SWAP2 AND PUSH1 0xC0 DUP3 ADD MSTORE PUSH2 0x1511 SWAP1 DUP5 DUP5 PUSH2 0x2ED4 JUMP JUMPDEST SWAP4 POP SWAP4 POP POP POP SWAP1 SWAP2 JUMP JUMPDEST PUSH2 0x1523 PUSH2 0x21DD JUMP JUMPDEST PUSH2 0x1531 SWAP1 PUSH1 0x11 SWAP1 PUSH1 0x2 PUSH2 0x590C JUMP JUMPDEST POP PUSH2 0x153A PUSH2 0x1733 JUMP JUMPDEST ISZERO PUSH2 0x1544 JUMPI PUSH2 0x15A9 JUMP JUMPDEST PUSH2 0x154C PUSH2 0x21A1 JUMP JUMPDEST PUSH1 0x1 PUSH1 0x1 PUSH1 0xA0 SHL SUB AND CALLER PUSH1 0x1 PUSH1 0x1 PUSH1 0xA0 SHL SUB AND EQ ISZERO PUSH2 0x1572 JUMPI PUSH2 0x156D PUSH2 0x2FBA JUMP JUMPDEST PUSH2 0x15A9 JUMP JUMPDEST PUSH1 0x40 MLOAD PUSH3 0x461BCD PUSH1 0xE5 SHL DUP2 MSTORE PUSH1 0x4 ADD DUP1 DUP1 PUSH1 0x20 ADD DUP3 DUP2 SUB DUP3 MSTORE PUSH1 0x29 DUP2 MSTORE PUSH1 0x20 ADD DUP1 PUSH2 0x5A73 PUSH1 0x29 SWAP2 CODECOPY PUSH1 0x40 ADD SWAP2 POP POP PUSH1 0x40 MLOAD DUP1 SWAP2 SUB SWAP1 REVERT JUMPDEST PUSH2 0x15B1 PUSH2 0x3113 JUMP JUMPDEST JUMP JUMPDEST PUSH2 0x15BB PUSH2 0x38D5 JUMP JUMPDEST PUSH4 0x6422C40 PUSH1 0x1B SSTORE JUMP JUMPDEST PUSH2 0x15CD PUSH2 0x1733 JUMP JUMPDEST PUSH2 0x1608 JUMPI PUSH1 0x40 MLOAD PUSH3 0x461BCD PUSH1 0xE5 SHL DUP2 MSTORE PUSH1 0x4 ADD DUP1 DUP1 PUSH1 0x20 ADD DUP3 DUP2 SUB DUP3 MSTORE PUSH1 0x49 DUP2 MSTORE PUSH1 0x20 ADD DUP1 PUSH2 0x59B3 PUSH1 0x49 SWAP2 CODECOPY PUSH1 0x60 ADD SWAP2 POP POP PUSH1 0x40 MLOAD DUP1 SWAP2 SUB SWAP1 REVERT JUMPDEST PUSH1 0x1A DUP1 SLOAD PUSH1 0x1 PUSH1 0x1 PUSH1 0xA0 SHL SUB NOT AND PUSH1 0x1 PUSH1 0x1 PUSH1 0xA0 SHL SUB SWAP3 SWAP1 SWAP3 AND SWAP2 SWAP1 SWAP2 OR SWAP1 SSTORE JUMP JUMPDEST PUSH2 0x1632 PUSH2 0x1733 JUMP JUMPDEST PUSH2 0x166D JUMPI PUSH1 0x40 MLOAD PUSH3 0x461BCD PUSH1 0xE5 SHL DUP2 MSTORE PUSH1 0x4 ADD DUP1 DUP1 PUSH1 0x20 ADD DUP3 DUP2 SUB DUP3 MSTORE PUSH1 0x49 DUP2 MSTORE PUSH1 0x20 ADD DUP1 PUSH2 0x59B3 PUSH1 0x49 SWAP2 CODECOPY PUSH1 0x60 ADD SWAP2 POP POP PUSH1 0x40 MLOAD DUP1 SWAP2 SUB SWAP1 REVERT JUMPDEST PUSH2 0x167B DUP12 DUP12 DUP12 DUP12 DUP12 DUP12 PUSH2 0x39D4 JUMP JUMPDEST PUSH2 0x1688 DUP6 DUP6 DUP6 DUP6 DUP6 PUSH2 0x3A38 JUMP JUMPDEST POP POP POP POP POP POP POP POP POP POP POP JUMP JUMPDEST PUSH1 0x40 DUP1 MLOAD PUSH1 0xE0 DUP2 ADD DUP3 MSTORE PUSH1 0x3 SLOAD PUSH1 0xFF DUP1 DUP3 AND DUP4 MSTORE PUSH2 0x100 DUP3 DIV AND ISZERO ISZERO PUSH1 0x20 DUP4 ADD MSTORE PUSH1 0x1 PUSH1 0x1 PUSH1 0xA0 SHL SUB PUSH3 0x10000 SWAP1 SWAP2 DIV DUP2 AND SWAP3 DUP3 ADD SWAP3 SWAP1 SWAP3 MSTORE PUSH1 0x4 SLOAD DUP3 AND PUSH1 0x60 DUP3 ADD MSTORE PUSH1 0x5 SLOAD PUSH1 0x80 DUP3 ADD MSTORE PUSH1 0x6 SLOAD PUSH1 0xA0 DUP3 ADD MSTORE PUSH1 0x7 SLOAD SWAP1 SWAP2 AND PUSH1 0xC0 DUP3 ADD MSTORE PUSH2 0xFEA SWAP1 DUP7 DUP7 DUP7 PUSH1 0x0 PUSH2 0x2A0E JUMP JUMPDEST PUSH1 0x40 DUP1 MLOAD PUSH25 0x6F72672E50686F656E69782E4F776E65722E73746F72616765 PUSH1 0x38 SHL DUP2 MSTORE SWAP1 MLOAD SWAP1 DUP2 SWAP1 SUB PUSH1 0x19 ADD SWAP1 KECCAK256 SLOAD SWAP1 JUMP JUMPDEST PUSH1 0x0 PUSH2 0x173D PUSH2 0x1701 JUMP JUMPDEST PUSH1 0x1 PUSH1 0x1 PUSH1 0xA0 SHL SUB AND CALLER PUSH1 0x1 PUSH1 0x1 PUSH1 0xA0 SHL SUB AND EQ DUP1 ISZERO PUSH2 0x1761 JUMPI POP PUSH2 0x1761 CALLER PUSH2 0x3B18 JUMP JUMPDEST DUP1 ISZERO PUSH2 0x1369 JUMPI POP TIMESTAMP PUSH2 0x1771 PUSH2 0xE15 JUMP JUMPDEST GT SWAP1 POP SWAP1 JUMP JUMPDEST PUSH1 0x1B SLOAD DUP2 JUMP JUMPDEST PUSH2 0x1785 PUSH2 0x1733 JUMP JUMPDEST ISZERO PUSH2 0x178F JUMPI PUSH2 0x17B8 JUMP JUMPDEST PUSH2 0x1797 PUSH2 0x21A1 JUMP JUMPDEST PUSH1 0x1 PUSH1 0x1 PUSH1 0xA0 SHL SUB AND CALLER PUSH1 0x1 PUSH1 0x1 PUSH1 0xA0 SHL SUB AND EQ ISZERO PUSH2 0x1572 JUMPI PUSH2 0x17B8 PUSH2 0x2FBA JUMP JUMPDEST PUSH1 0x13 SWAP3 SWAP1 SWAP3 SSTORE PUSH1 0x14 SSTORE PUSH1 0x15 SSTORE JUMP JUMPDEST PUSH2 0x17CE PUSH2 0x1300 JUMP JUMPDEST PUSH2 0x17D6 PUSH2 0xE69 JUMP JUMPDEST GT PUSH2 0x15B1 JUMPI PUSH1 0x40 MLOAD PUSH3 0x461BCD PUSH1 0xE5 SHL DUP2 MSTORE PUSH1 0x4 ADD DUP1 DUP1 PUSH1 0x20 ADD DUP3 DUP2 SUB DUP3 MSTORE PUSH1 0x2E DUP2 MSTORE PUSH1 0x20 ADD DUP1 PUSH2 0x5B0D PUSH1 0x2E SWAP2 CODECOPY PUSH1 0x40 ADD SWAP2 POP POP PUSH1 0x40 MLOAD DUP1 SWAP2 SUB SWAP1 REVERT JUMPDEST PUSH1 0x0 SLOAD PUSH1 0x1 PUSH1 0x1 PUSH1 0xA0 SHL SUB AND SWAP1 JUMP JUMPDEST PUSH1 0x40 DUP1 MLOAD PUSH1 0xE0 DUP2 ADD DUP3 MSTORE PUSH1 0x8 SLOAD PUSH1 0xFF DUP1 DUP3 AND DUP4 MSTORE PUSH2 0x100 DUP3 DIV AND ISZERO ISZERO PUSH1 0x20 DUP4 ADD MSTORE PUSH1 0x1 PUSH1 0x1 PUSH1 0xA0 SHL SUB PUSH3 0x10000 SWAP1 SWAP2 DIV DUP2 AND SWAP3 DUP3 ADD SWAP3 SWAP1 SWAP3 MSTORE PUSH1 0x9 SLOAD DUP3 AND PUSH1 0x60 DUP3 ADD MSTORE PUSH1 0xA SLOAD PUSH1 0x80 DUP3 ADD MSTORE PUSH1 0xB SLOAD PUSH1 0xA0 DUP3 ADD MSTORE PUSH1 0xC SLOAD SWAP1 SWAP2 AND PUSH1 0xC0 DUP3 ADD MSTORE PUSH2 0xFEA SWAP1 DUP7 DUP7 DUP7 PUSH1 0x0 PUSH2 0x23A3 JUMP JUMPDEST PUSH1 0xF DUP2 PUSH1 0x2 DUP2 LT PUSH2 0x189A JUMPI INVALID JUMPDEST ADD SLOAD SWAP1 POP DUP2 JUMP JUMPDEST PUSH1 0x40 DUP1 MLOAD PUSH1 0xE0 DUP2 ADD DUP3 MSTORE PUSH1 0x3 SLOAD PUSH1 0xFF DUP1 DUP3 AND DUP4 MSTORE PUSH2 0x100 DUP3 DIV AND ISZERO ISZERO PUSH1 0x20 DUP4 ADD MSTORE PUSH1 0x1 PUSH1 0x1 PUSH1 0xA0 SHL SUB PUSH3 0x10000 SWAP1 SWAP2 DIV DUP2 AND SWAP3 DUP3 ADD SWAP3 SWAP1 SWAP3 MSTORE PUSH1 0x4 SLOAD DUP3 AND PUSH1 0x60 DUP3 ADD MSTORE PUSH1 0x5 SLOAD PUSH1 0x80 DUP3 ADD MSTORE PUSH1 0x6 SLOAD PUSH1 0xA0 DUP3 ADD MSTORE PUSH1 0x7 SLOAD SWAP1 SWAP2 AND PUSH1 0xC0 DUP3 ADD MSTORE PUSH2 0xFEA SWAP1 DUP7 DUP7 DUP7 PUSH1 0x1 PUSH2 0x23A3 JUMP JUMPDEST PUSH2 0x1915 PUSH2 0x21DD JUMP JUMPDEST PUSH2 0x1923 SWAP1 PUSH1 0x11 SWAP1 PUSH1 0x2 PUSH2 0x590C JUMP JUMPDEST POP PUSH1 0x40 DUP1 MLOAD PUSH1 0xE0 DUP2 ADD DUP3 MSTORE PUSH1 0x3 SLOAD PUSH1 0xFF DUP1 DUP3 AND DUP4 MSTORE PUSH2 0x100 DUP3 DIV AND ISZERO ISZERO PUSH1 0x20 DUP4 ADD MSTORE PUSH3 0x10000 SWAP1 DIV PUSH1 0x1 PUSH1 0x1 PUSH1 0xA0 SHL SUB SWAP1 DUP2 AND DUP3 DUP5 ADD MSTORE PUSH1 0x4 SLOAD DUP2 AND PUSH1 0x60 DUP4 ADD MSTORE PUSH1 0x5 SLOAD PUSH1 0x80 DUP4 ADD MSTORE PUSH1 0x6 SLOAD PUSH1 0xA0 DUP4 ADD MSTORE PUSH1 0x7 SLOAD AND PUSH1 0xC0 DUP3 ADD MSTORE DUP2 MLOAD DUP1 DUP4 ADD SWAP3 DUP4 SWAP1 MSTORE PUSH2 0x19B3 SWAP3 PUSH1 0x11 SWAP1 PUSH1 0x2 SWAP1 DUP3 DUP5 JUMPDEST DUP2 SLOAD DUP2 MSTORE PUSH1 0x20 ADD SWAP1 PUSH1 0x1 ADD SWAP1 DUP1 DUP4 GT PUSH2 0x1993 JUMPI POP POP POP POP POP PUSH1 0x19 SLOAD PUSH2 0x2ED4 JUMP JUMPDEST ISZERO PUSH2 0x19C7 JUMPI PUSH2 0x19C2 PUSH1 0x3 PUSH2 0x3B1E JUMP JUMPDEST PUSH2 0x15B1 JUMP JUMPDEST PUSH1 0x40 DUP1 MLOAD PUSH1 0xE0 DUP2 ADD DUP3 MSTORE PUSH1 0x8 SLOAD PUSH1 0xFF DUP1 DUP3 AND DUP4 MSTORE PUSH2 0x100 DUP3 DIV AND ISZERO ISZERO PUSH1 0x20 DUP4 ADD MSTORE PUSH1 0x1 PUSH1 0x1 PUSH1 0xA0 SHL SUB PUSH3 0x10000 SWAP1 SWAP2 DIV DUP2 AND DUP3 DUP5 ADD MSTORE PUSH1 0x9 SLOAD DUP2 AND PUSH1 0x60 DUP4 ADD MSTORE PUSH1 0xA SLOAD PUSH1 0x80 DUP4 ADD MSTORE PUSH1 0xB SLOAD PUSH1 0xA0 DUP4 ADD MSTORE PUSH1 0xC SLOAD AND PUSH1 0xC0 DUP3 ADD MSTORE DUP2 MLOAD DUP1 DUP4 ADD SWAP1 SWAP3 MSTORE PUSH2 0x1A59 SWAP2 PUSH1 0x11 PUSH1 0x2 DUP3 DUP3 DUP3 PUSH1 0x20 MUL DUP3 ADD SWAP2 DUP2 SLOAD DUP2 MSTORE PUSH1 0x20 ADD SWAP1 PUSH1 0x1 ADD SWAP1 DUP1 DUP4 GT PUSH2 0x1993 JUMPI POP POP POP POP POP PUSH1 0x19 SLOAD PUSH2 0x2ED4 JUMP JUMPDEST ISZERO PUSH2 0x1A68 JUMPI PUSH2 0x19C2 PUSH1 0x8 PUSH2 0x3B1E JUMP JUMPDEST PUSH1 0x40 DUP1 MLOAD PUSH1 0xE0 DUP2 ADD DUP3 MSTORE PUSH1 0x3 SLOAD PUSH1 0xFF DUP1 DUP3 AND DUP4 MSTORE PUSH2 0x100 DUP3 DIV AND ISZERO ISZERO PUSH1 0x20 DUP4 ADD MSTORE PUSH3 0x10000 SWAP1 DIV PUSH1 0x1 PUSH1 0x1 PUSH1 0xA0 SHL SUB SWAP1 DUP2 AND DUP3 DUP5 ADD MSTORE PUSH1 0x4 SLOAD DUP2 AND PUSH1 0x60 DUP4 ADD MSTORE PUSH1 0x5 SLOAD PUSH1 0x80 DUP4 ADD MSTORE PUSH1 0x6 SLOAD PUSH1 0xA0 DUP4 ADD MSTORE PUSH1 0x7 SLOAD AND PUSH1 0xC0 DUP3 ADD MSTORE DUP2 MLOAD DUP1 DUP4 ADD SWAP3 DUP4 SWAP1 MSTORE PUSH2 0x1AFA SWAP3 PUSH1 0x11 SWAP1 PUSH1 0x2 SWAP1 DUP3 DUP5 JUMPDEST DUP2 SLOAD DUP2 MSTORE PUSH1 0x20 ADD SWAP1 PUSH1 0x1 ADD SWAP1 DUP1 DUP4 GT PUSH2 0x1AD7 JUMPI POP POP POP POP POP PUSH1 0x19 SLOAD PUSH1 0x4 MUL PUSH2 0x2ED4 JUMP JUMPDEST DUP1 PUSH2 0x1B95 JUMPI POP PUSH1 0x40 DUP1 MLOAD PUSH1 0xE0 DUP2 ADD DUP3 MSTORE PUSH1 0x8 SLOAD PUSH1 0xFF DUP1 DUP3 AND DUP4 MSTORE PUSH2 0x100 DUP3 DIV AND ISZERO ISZERO PUSH1 0x20 DUP4 ADD MSTORE PUSH1 0x1 PUSH1 0x1 PUSH1 0xA0 SHL SUB PUSH3 0x10000 SWAP1 SWAP2 DIV DUP2 AND DUP3 DUP5 ADD MSTORE PUSH1 0x9 SLOAD DUP2 AND PUSH1 0x60 DUP4 ADD MSTORE PUSH1 0xA SLOAD PUSH1 0x80 DUP4 ADD MSTORE PUSH1 0xB SLOAD PUSH1 0xA0 DUP4 ADD MSTORE PUSH1 0xC SLOAD AND PUSH1 0xC0 DUP3 ADD MSTORE DUP2 MLOAD DUP1 DUP4 ADD SWAP1 SWAP3 MSTORE PUSH2 0x1B95 SWAP2 PUSH1 0x11 PUSH1 0x2 DUP3 DUP3 DUP3 PUSH1 0x20 MUL DUP3 ADD SWAP2 DUP2 SLOAD DUP2 MSTORE PUSH1 0x20 ADD SWAP1 PUSH1 0x1 ADD SWAP1 DUP1 DUP4 GT PUSH2 0x1AD7 JUMPI POP POP POP POP POP PUSH1 0x19 SLOAD PUSH1 0x4 MUL PUSH2 0x2ED4 JUMP JUMPDEST ISZERO PUSH2 0x1BA2 JUMPI PUSH2 0x19C2 PUSH2 0x3113 JUMP JUMPDEST PUSH1 0x40 MLOAD PUSH3 0x461BCD PUSH1 0xE5 SHL DUP2 MSTORE PUSH1 0x4 ADD DUP1 DUP1 PUSH1 0x20 ADD DUP3 DUP2 SUB DUP3 MSTORE PUSH1 0x34 DUP2 MSTORE PUSH1 0x20 ADD DUP1 PUSH2 0x5B3B PUSH1 0x34 SWAP2 CODECOPY PUSH1 0x40 ADD SWAP2 POP POP PUSH1 0x40 MLOAD DUP1 SWAP2 SUB SWAP1 REVERT JUMPDEST PUSH1 0xD SLOAD PUSH1 0x1 PUSH1 0x1 PUSH1 0xA0 SHL SUB AND DUP2 JUMP JUMPDEST PUSH2 0x1BF0 PUSH2 0x21A1 JUMP JUMPDEST PUSH1 0x1 PUSH1 0x1 PUSH1 0xA0 SHL SUB AND CALLER PUSH1 0x1 PUSH1 0x1 PUSH1 0xA0 SHL SUB AND EQ PUSH2 0x1C3F JUMPI PUSH1 0x40 MLOAD PUSH3 0x461BCD PUSH1 0xE5 SHL DUP2 MSTORE PUSH1 0x4 ADD DUP1 DUP1 PUSH1 0x20 ADD DUP3 DUP2 SUB DUP3 MSTORE PUSH1 0x28 DUP2 MSTORE PUSH1 0x20 ADD DUP1 PUSH2 0x5BCF PUSH1 0x28 SWAP2 CODECOPY PUSH1 0x40 ADD SWAP2 POP POP PUSH1 0x40 MLOAD DUP1 SWAP2 SUB SWAP1 REVERT JUMPDEST PUSH2 0x1C47 PUSH2 0x2FBA JUMP JUMPDEST PUSH2 0x128B DUP2 PUSH2 0x3E01 JUMP JUMPDEST PUSH2 0x1C58 PUSH2 0x1733 JUMP JUMPDEST PUSH2 0x1C93 JUMPI PUSH1 0x40 MLOAD PUSH3 0x461BCD PUSH1 0xE5 SHL DUP2 MSTORE PUSH1 0x4 ADD DUP1 DUP1 PUSH1 0x20 ADD DUP3 DUP2 SUB DUP3 MSTORE PUSH1 0x49 DUP2 MSTORE PUSH1 0x20 ADD DUP1 PUSH2 0x59B3 PUSH1 0x49 SWAP2 CODECOPY PUSH1 0x60 ADD SWAP2 POP POP PUSH1 0x40 MLOAD DUP1 SWAP2 SUB SWAP1 REVERT JUMPDEST PUSH1 0xE DUP1 SLOAD PUSH1 0x1 PUSH1 0x1 PUSH1 0xA0 SHL SUB NOT AND PUSH1 0x1 PUSH1 0x1 PUSH1 0xA0 SHL SUB SWAP3 SWAP1 SWAP3 AND SWAP2 SWAP1 SWAP2 OR SWAP1 SSTORE JUMP JUMPDEST PUSH2 0x1CBD PUSH2 0x1733 JUMP JUMPDEST PUSH2 0x1CF8 JUMPI PUSH1 0x40 MLOAD PUSH3 0x461BCD PUSH1 0xE5 SHL DUP2 MSTORE PUSH1 0x4 ADD DUP1 DUP1 PUSH1 0x20 ADD DUP3 DUP2 SUB DUP3 MSTORE PUSH1 0x49 DUP2 MSTORE PUSH1 0x20 ADD DUP1 PUSH2 0x59B3 PUSH1 0x49 SWAP2 CODECOPY PUSH1 0x60 ADD SWAP2 POP POP PUSH1 0x40 MLOAD DUP1 SWAP2 SUB SWAP1 REVERT JUMPDEST PUSH2 0x128B PUSH1 0x0 DUP3 PUSH2 0x3E7D JUMP JUMPDEST PUSH1 0x40 DUP1 MLOAD PUSH1 0xE0 DUP2 ADD DUP3 MSTORE PUSH1 0x8 SLOAD PUSH1 0xFF DUP1 DUP3 AND DUP4 MSTORE PUSH2 0x100 DUP3 DIV AND ISZERO ISZERO PUSH1 0x20 DUP4 ADD MSTORE PUSH1 0x1 PUSH1 0x1 PUSH1 0xA0 SHL SUB PUSH3 0x10000 SWAP1 SWAP2 DIV DUP2 AND SWAP3 DUP3 ADD SWAP3 SWAP1 SWAP3 MSTORE PUSH1 0x9 SLOAD DUP3 AND PUSH1 0x60 DUP3 ADD MSTORE PUSH1 0xA SLOAD PUSH1 0x80 DUP3 ADD MSTORE PUSH1 0xB SLOAD PUSH1 0xA0 DUP3 ADD MSTORE PUSH1 0xC SLOAD SWAP1 SWAP2 AND PUSH1 0xC0 DUP3 ADD MSTORE PUSH2 0xFEA SWAP1 DUP7 DUP7 DUP7 PUSH1 0x0 PUSH2 0x2A0E JUMP JUMPDEST PUSH1 0x0 DUP1 PUSH2 0x1D7A PUSH2 0x58EE JUMP JUMPDEST PUSH2 0x1D82 PUSH2 0x21DD JUMP JUMPDEST PUSH1 0x40 DUP1 MLOAD PUSH1 0xE0 DUP2 ADD DUP3 MSTORE PUSH1 0x3 SLOAD PUSH1 0xFF DUP1 DUP3 AND DUP4 MSTORE PUSH2 0x100 DUP3 DIV AND ISZERO ISZERO PUSH1 0x20 DUP4 ADD MSTORE PUSH1 0x1 PUSH1 0x1 PUSH1 0xA0 SHL SUB PUSH3 0x10000 SWAP1 SWAP2 DIV DUP2 AND SWAP3 DUP3 ADD SWAP3 SWAP1 SWAP3 MSTORE PUSH1 0x4 SLOAD DUP3 AND PUSH1 0x60 DUP3 ADD MSTORE PUSH1 0x5 SLOAD PUSH1 0x80 DUP3 ADD MSTORE PUSH1 0x6 SLOAD PUSH1 0xA0 DUP3 ADD MSTORE PUSH1 0x7 SLOAD SWAP1 SWAP2 AND PUSH1 0xC0 DUP3 ADD MSTORE SWAP1 SWAP2 POP PUSH2 0x1DED SWAP1 DUP3 PUSH2 0x3EF1 JUMP JUMPDEST PUSH1 0x40 DUP1 MLOAD PUSH1 0xE0 DUP2 ADD DUP3 MSTORE PUSH1 0x8 SLOAD PUSH1 0xFF DUP1 DUP3 AND DUP4 MSTORE PUSH2 0x100 DUP3 DIV AND ISZERO ISZERO PUSH1 0x20 DUP4 ADD MSTORE PUSH1 0x1 PUSH1 0x1 PUSH1 0xA0 SHL SUB PUSH3 0x10000 SWAP1 SWAP2 DIV DUP2 AND SWAP3 DUP3 ADD SWAP3 SWAP1 SWAP3 MSTORE PUSH1 0x9 SLOAD DUP3 AND PUSH1 0x60 DUP3 ADD MSTORE PUSH1 0xA SLOAD PUSH1 0x80 DUP3 ADD MSTORE PUSH1 0xB SLOAD PUSH1 0xA0 DUP3 ADD MSTORE PUSH1 0xC SLOAD SWAP1 SWAP2 AND PUSH1 0xC0 DUP3 ADD MSTORE PUSH2 0xF6F SWAP1 DUP4 PUSH2 0x3EF1 JUMP JUMPDEST PUSH1 0x8 SLOAD PUSH1 0x9 SLOAD PUSH1 0xC SLOAD PUSH1 0xA SLOAD PUSH1 0xB SLOAD PUSH3 0x10000 SWAP1 SWAP5 DIV PUSH1 0x1 PUSH1 0x1 PUSH1 0xA0 SHL SUB SWAP1 DUP2 AND SWAP6 SWAP4 DUP2 AND SWAP5 SWAP3 AND SWAP3 SWAP1 SWAP2 SWAP1 JUMP JUMPDEST PUSH1 0x40 DUP1 MLOAD PUSH1 0xE0 DUP2 ADD DUP3 MSTORE PUSH1 0x8 SLOAD PUSH1 0xFF DUP1 DUP3 AND DUP4 MSTORE PUSH2 0x100 DUP3 DIV AND ISZERO ISZERO PUSH1 0x20 DUP4 ADD MSTORE PUSH1 0x1 PUSH1 0x1 PUSH1 0xA0 SHL SUB PUSH3 0x10000 SWAP1 SWAP2 DIV DUP2 AND SWAP3 DUP3 ADD SWAP3 SWAP1 SWAP3 MSTORE PUSH1 0x9 SLOAD DUP3 AND PUSH1 0x60 DUP3 ADD MSTORE PUSH1 0xA SLOAD PUSH1 0x80 DUP3 ADD MSTORE PUSH1 0xB SLOAD PUSH1 0xA0 DUP3 ADD MSTORE PUSH1 0xC SLOAD SWAP1 SWAP2 AND PUSH1 0xC0 DUP3 ADD MSTORE PUSH2 0xFEA SWAP1 DUP7 DUP7 DUP7 PUSH1 0x1 PUSH2 0x2A0E JUMP JUMPDEST PUSH2 0x1EF7 PUSH2 0x1733 JUMP JUMPDEST ISZERO PUSH2 0x1F01 JUMPI PUSH2 0x1F2A JUMP JUMPDEST PUSH2 0x1F09 PUSH2 0x21A1 JUMP JUMPDEST PUSH1 0x1 PUSH1 0x1 PUSH1 0xA0 SHL SUB AND CALLER PUSH1 0x1 PUSH1 0x1 PUSH1 0xA0 SHL SUB AND EQ ISZERO PUSH2 0x1572 JUMPI PUSH2 0x1F2A PUSH2 0x2FBA JUMP JUMPDEST PUSH1 0x0 DUP3 GT PUSH2 0x1F7F JUMPI PUSH1 0x40 DUP1 MLOAD PUSH3 0x461BCD PUSH1 0xE5 SHL DUP2 MSTORE PUSH1 0x20 PUSH1 0x4 DUP3 ADD MSTORE PUSH1 0x19 PUSH1 0x24 DUP3 ADD MSTORE PUSH32 0x496E646578206D7573742067726561746572207468616E203000000000000000 PUSH1 0x44 DUP3 ADD MSTORE SWAP1 MLOAD SWAP1 DUP2 SWAP1 SUB PUSH1 0x64 ADD SWAP1 REVERT JUMPDEST PUSH2 0x1289 DUP3 DUP3 PUSH2 0x3E7D JUMP JUMPDEST PUSH1 0x0 DUP1 PUSH2 0x1F94 PUSH2 0x58EE JUMP JUMPDEST PUSH2 0x1F9C PUSH2 0x21DD JUMP JUMPDEST PUSH1 0x40 DUP1 MLOAD PUSH1 0xE0 DUP2 ADD DUP3 MSTORE PUSH1 0x3 SLOAD PUSH1 0xFF DUP1 DUP3 AND DUP4 MSTORE PUSH2 0x100 DUP3 DIV AND ISZERO ISZERO PUSH1 0x20 DUP4 ADD MSTORE PUSH1 0x1 PUSH1 0x1 PUSH1 0xA0 SHL SUB PUSH3 0x10000 SWAP1 SWAP2 DIV DUP2 AND SWAP3 DUP3 ADD SWAP3 SWAP1 SWAP3 MSTORE PUSH1 0x4 SLOAD DUP3 AND PUSH1 0x60 DUP3 ADD MSTORE PUSH1 0x5 SLOAD PUSH1 0x80 DUP3 ADD MSTORE PUSH1 0x6 SLOAD PUSH1 0xA0 DUP3 ADD MSTORE PUSH1 0x7 SLOAD SWAP1 SWAP2 AND PUSH1 0xC0 DUP3 ADD MSTORE SWAP1 SWAP2 POP PUSH2 0x2007 SWAP1 DUP3 PUSH2 0x3F93 JUMP JUMPDEST PUSH1 0x40 DUP1 MLOAD PUSH1 0xE0 DUP2 ADD DUP3 MSTORE PUSH1 0x8 SLOAD PUSH1 0xFF DUP1 DUP3 AND DUP4 MSTORE PUSH2 0x100 DUP3 DIV AND ISZERO ISZERO PUSH1 0x20 DUP4 ADD MSTORE PUSH1 0x1 PUSH1 0x1 PUSH1 0xA0 SHL SUB PUSH3 0x10000 SWAP1 SWAP2 DIV DUP2 AND SWAP3 DUP3 ADD SWAP3 SWAP1 SWAP3 MSTORE PUSH1 0x9 SLOAD DUP3 AND PUSH1 0x60 DUP3 ADD MSTORE PUSH1 0xA SLOAD PUSH1 0x80 DUP3 ADD MSTORE PUSH1 0xB SLOAD PUSH1 0xA0 DUP3 ADD MSTORE PUSH1 0xC SLOAD SWAP1 SWAP2 AND PUSH1 0xC0 DUP3 ADD MSTORE PUSH2 0xF6F SWAP1 DUP4 PUSH2 0x3F93 JUMP JUMPDEST PUSH2 0x2077 PUSH2 0x1733 JUMP JUMPDEST PUSH2 0x20B2 JUMPI PUSH1 0x40 MLOAD PUSH3 0x461BCD PUSH1 0xE5 SHL DUP2 MSTORE PUSH1 0x4 ADD DUP1 DUP1 PUSH1 0x20 ADD DUP3 DUP2 SUB DUP3 MSTORE PUSH1 0x49 DUP2 MSTORE PUSH1 0x20 ADD DUP1 PUSH2 0x59B3 PUSH1 0x49 SWAP2 CODECOPY PUSH1 0x60 ADD SWAP2 POP POP PUSH1 0x40 MLOAD DUP1 SWAP2 SUB SWAP1 REVERT JUMPDEST PUSH2 0x128B DUP2 PUSH2 0x402D JUMP JUMPDEST PUSH1 0x0 DUP1 PUSH2 0x20C6 PUSH2 0x58EE JUMP JUMPDEST PUSH2 0x20CE PUSH2 0x21DD JUMP JUMPDEST PUSH1 0x40 DUP1 MLOAD PUSH1 0xE0 DUP2 ADD DUP3 MSTORE PUSH1 0x3 SLOAD PUSH1 0xFF DUP1 DUP3 AND DUP4 MSTORE PUSH2 0x100 DUP3 DIV AND ISZERO ISZERO PUSH1 0x20 DUP4 ADD MSTORE PUSH1 0x1 PUSH1 0x1 PUSH1 0xA0 SHL SUB PUSH3 0x10000 SWAP1 SWAP2 DIV DUP2 AND SWAP3 DUP3 ADD SWAP3 SWAP1 SWAP3 MSTORE PUSH1 0x4 SLOAD DUP3 AND PUSH1 0x60 DUP3 ADD MSTORE PUSH1 0x5 SLOAD PUSH1 0x80 DUP3 ADD MSTORE PUSH1 0x6 SLOAD PUSH1 0xA0 DUP3 ADD MSTORE PUSH1 0x7 SLOAD SWAP1 SWAP2 AND PUSH1 0xC0 DUP3 ADD MSTORE SWAP1 SWAP2 POP PUSH2 0x2139 SWAP1 DUP3 PUSH2 0x40DD JUMP JUMPDEST PUSH1 0x40 DUP1 MLOAD PUSH1 0xE0 DUP2 ADD DUP3 MSTORE PUSH1 0x8 SLOAD PUSH1 0xFF DUP1 DUP3 AND DUP4 MSTORE PUSH2 0x100 DUP3 DIV AND ISZERO ISZERO PUSH1 0x20 DUP4 ADD MSTORE PUSH1 0x1 PUSH1 0x1 PUSH1 0xA0 SHL SUB PUSH3 0x10000 SWAP1 SWAP2 DIV DUP2 AND SWAP3 DUP3 ADD SWAP3 SWAP1 SWAP3 MSTORE PUSH1 0x9 SLOAD DUP3 AND PUSH1 0x60 DUP3 ADD MSTORE PUSH1 0xA SLOAD PUSH1 0x80 DUP3 ADD MSTORE PUSH1 0xB SLOAD PUSH1 0xA0 DUP3 ADD MSTORE PUSH1 0xC SLOAD SWAP1 SWAP2 AND PUSH1 0xC0 DUP3 ADD MSTORE PUSH2 0xF6F SWAP1 DUP4 PUSH2 0x40DD JUMP JUMPDEST PUSH1 0x40 DUP1 MLOAD PUSH32 0x6F72672E50686F656E69782E4F726967696E2E73746F72616765000000000000 DUP2 MSTORE SWAP1 MLOAD SWAP1 DUP2 SWAP1 SUB PUSH1 0x1A ADD SWAP1 KECCAK256 SLOAD SWAP1 JUMP JUMPDEST PUSH1 0x19 SLOAD DUP2 JUMP JUMPDEST PUSH2 0x21E5 PUSH2 0x58EE JUMP JUMPDEST PUSH1 0x40 DUP1 MLOAD PUSH1 0x2 DUP1 DUP3 MSTORE PUSH1 0x60 DUP1 DUP4 ADD DUP5 MSTORE SWAP3 PUSH1 0x20 DUP4 ADD SWAP1 DUP1 CODESIZE DUP4 CODECOPY POP POP PUSH1 0x3 SLOAD DUP3 MLOAD SWAP3 SWAP4 POP PUSH3 0x10000 SWAP1 DIV PUSH1 0x1 PUSH1 0x1 PUSH1 0xA0 SHL SUB AND SWAP2 DUP4 SWAP2 POP PUSH1 0x0 SWAP1 PUSH2 0x2225 JUMPI INVALID JUMPDEST PUSH1 0x20 SWAP1 DUP2 MUL SWAP2 SWAP1 SWAP2 ADD ADD MSTORE PUSH1 0x8 SLOAD DUP2 MLOAD PUSH3 0x10000 SWAP1 SWAP2 DIV PUSH1 0x1 PUSH1 0x1 PUSH1 0xA0 SHL SUB AND SWAP1 DUP3 SWAP1 PUSH1 0x1 SWAP1 DUP2 LT PUSH2 0x2253 JUMPI INVALID JUMPDEST PUSH1 0x20 MUL PUSH1 0x20 ADD ADD DUP2 DUP2 MSTORE POP POP PUSH1 0x60 PUSH2 0x226A DUP3 PUSH2 0x4181 JUMP JUMPDEST SWAP1 POP PUSH1 0x40 MLOAD DUP1 PUSH1 0x40 ADD PUSH1 0x40 MSTORE DUP1 DUP3 PUSH1 0x0 DUP2 MLOAD DUP2 LT PUSH2 0x2284 JUMPI INVALID JUMPDEST PUSH1 0x20 MUL PUSH1 0x20 ADD ADD MLOAD DUP2 MSTORE PUSH1 0x20 ADD DUP3 PUSH1 0x1 DUP2 MLOAD DUP2 LT PUSH2 0x229E JUMPI INVALID JUMPDEST PUSH1 0x20 MUL PUSH1 0x20 ADD ADD MLOAD DUP2 MSTORE POP SWAP3 POP POP POP SWAP1 JUMP JUMPDEST PUSH1 0x0 DUP1 DUP4 PUSH1 0xC0 ADD MLOAD PUSH1 0x1 PUSH1 0x1 PUSH1 0xA0 SHL SUB AND PUSH4 0x18160DDD PUSH1 0x40 MLOAD DUP2 PUSH4 0xFFFFFFFF AND PUSH1 0xE0 SHL DUP2 MSTORE PUSH1 0x4 ADD PUSH1 0x20 PUSH1 0x40 MLOAD DUP1 DUP4 SUB DUP2 DUP7 DUP1 EXTCODESIZE ISZERO DUP1 ISZERO PUSH2 0x22F0 JUMPI PUSH1 0x0 DUP1 REVERT JUMPDEST POP GAS STATICCALL ISZERO DUP1 ISZERO PUSH2 0x2304 JUMPI RETURNDATASIZE PUSH1 0x0 DUP1 RETURNDATACOPY RETURNDATASIZE PUSH1 0x0 REVERT JUMPDEST POP POP POP POP PUSH1 0x40 MLOAD RETURNDATASIZE PUSH1 0x20 DUP2 LT ISZERO PUSH2 0x231A JUMPI PUSH1 0x0 DUP1 REVERT JUMPDEST POP MLOAD PUSH1 0x80 DUP6 ADD MLOAD PUSH1 0xA0 DUP7 ADD MLOAD SWAP2 SWAP3 POP PUSH1 0x0 SWAP2 PUSH2 0x2363 SWAP2 PUSH4 0x5F5E0FF NOT ADD SWAP1 PUSH4 0x5F5E100 SWAP1 PUSH2 0x234F SWAP1 DUP7 SWAP1 PUSH4 0xFFFFFFFF PUSH2 0x4384 AND JUMP JUMPDEST DUP2 PUSH2 0x2356 JUMPI INVALID JUMPDEST DIV SWAP1 PUSH4 0xFFFFFFFF PUSH2 0x4384 AND JUMP JUMPDEST SWAP1 POP PUSH2 0x2398 DUP2 PUSH2 0x238C DUP7 DUP9 PUSH1 0x0 ADD MLOAD PUSH2 0x237F DUP11 PUSH1 0x0 ADD MLOAD PUSH2 0x43DD JUMP JUMPDEST SWAP2 SWAP1 PUSH4 0xFFFFFFFF PUSH2 0x44A7 AND JUMP JUMPDEST SWAP1 PUSH4 0xFFFFFFFF PUSH2 0x450C AND JUMP JUMPDEST SWAP3 POP POP POP JUMPDEST SWAP3 SWAP2 POP POP JUMP JUMPDEST DUP2 TIMESTAMP DUP2 LT ISZERO PUSH2 0x23F2 JUMPI PUSH1 0x40 DUP1 MLOAD PUSH3 0x461BCD PUSH1 0xE5 SHL DUP2 MSTORE PUSH1 0x20 PUSH1 0x4 DUP3 ADD MSTORE PUSH1 0x16 PUSH1 0x24 DUP3 ADD MSTORE PUSH22 0x1B195D995C9859D959141BDBDB0E8811561412549151 PUSH1 0x52 SHL PUSH1 0x44 DUP3 ADD MSTORE SWAP1 MLOAD SWAP1 DUP2 SWAP1 SUB PUSH1 0x64 ADD SWAP1 REVERT JUMPDEST PUSH1 0x2 SLOAD PUSH1 0xFF AND ISZERO PUSH2 0x2402 JUMPI PUSH1 0x0 DUP1 REVERT JUMPDEST PUSH1 0x2 DUP1 SLOAD PUSH1 0xFF NOT AND PUSH1 0x1 OR SWAP1 SSTORE PUSH2 0x2417 PUSH2 0x21DD JUMP JUMPDEST PUSH2 0x2425 SWAP1 PUSH1 0x11 SWAP1 PUSH1 0x2 PUSH2 0x590C JUMP JUMPDEST POP PUSH1 0x0 DUP3 ISZERO PUSH2 0x2439 JUMPI POP PUSH1 0x40 DUP7 ADD MLOAD PUSH2 0x2470 JUMP JUMPDEST DUP7 MLOAD PUSH1 0xFF AND ISZERO PUSH2 0x245A JUMPI PUSH1 0x3 SLOAD PUSH3 0x10000 SWAP1 DIV PUSH1 0x1 PUSH1 0x1 PUSH1 0xA0 SHL SUB AND PUSH2 0x246D JUMP JUMPDEST PUSH1 0x8 SLOAD PUSH3 0x10000 SWAP1 DIV PUSH1 0x1 PUSH1 0x1 PUSH1 0xA0 SHL SUB AND JUMPDEST SWAP1 POP JUMPDEST PUSH2 0x247A DUP2 DUP8 PUSH2 0x454E JUMP JUMPDEST SWAP6 POP PUSH1 0x0 DUP7 GT PUSH2 0x24C6 JUMPI PUSH1 0x40 DUP1 MLOAD PUSH3 0x461BCD PUSH1 0xE5 SHL DUP2 MSTORE PUSH1 0x20 PUSH1 0x4 DUP3 ADD MSTORE PUSH1 0x12 PUSH1 0x24 DUP3 ADD MSTORE PUSH18 0x62757920616D6F756E74206973207A65726F PUSH1 0x70 SHL PUSH1 0x44 DUP3 ADD MSTORE SWAP1 MLOAD SWAP1 DUP2 SWAP1 SUB PUSH1 0x64 ADD SWAP1 REVERT JUMPDEST PUSH2 0x24D3 PUSH1 0x13 SLOAD DUP3 DUP9 PUSH2 0x4590 JUMP JUMPDEST SWAP6 POP PUSH1 0x0 DUP4 PUSH2 0x2562 JUMPI PUSH1 0x40 DUP1 MLOAD DUP1 DUP3 ADD SWAP2 DUP3 SWAP1 MSTORE PUSH2 0x2514 SWAP2 DUP11 SWAP2 SWAP1 PUSH1 0x11 SWAP1 PUSH1 0x2 SWAP1 DUP3 DUP5 JUMPDEST DUP2 SLOAD DUP2 MSTORE PUSH1 0x20 ADD SWAP1 PUSH1 0x1 ADD SWAP1 DUP1 DUP4 GT PUSH2 0x24F7 JUMPI POP POP POP POP POP PUSH2 0x3EF1 JUMP JUMPDEST PUSH1 0x40 DUP1 MLOAD DUP1 DUP3 ADD SWAP2 DUP3 SWAP1 MSTORE PUSH2 0x2555 SWAP2 PUSH1 0x11 SWAP1 PUSH1 0x2 SWAP1 DUP3 DUP5 JUMPDEST DUP2 SLOAD DUP2 MSTORE PUSH1 0x20 ADD SWAP1 PUSH1 0x1 ADD SWAP1 DUP1 DUP4 GT PUSH2 0x252C JUMPI POP POP DUP14 MLOAD DUP14 SWAP5 SWAP4 POP SWAP2 POP POP PUSH4 0xFFFFFFFF PUSH2 0x44A7 AND JUMP JUMPDEST DUP2 PUSH2 0x255C JUMPI INVALID JUMPDEST DIV PUSH2 0x25B6 JUMP JUMPDEST PUSH1 0x40 DUP1 MLOAD DUP1 DUP3 ADD SWAP2 DUP3 SWAP1 MSTORE PUSH1 0x11 DUP1 SLOAD DUP3 MSTORE PUSH2 0x2595 SWAP3 DUP12 SWAP3 SWAP2 SWAP1 PUSH1 0x2 SWAP1 PUSH1 0x12 PUSH1 0x20 DUP6 ADD DUP1 DUP4 GT PUSH2 0x24F7 JUMPI POP POP POP POP POP PUSH2 0x3EF1 JUMP JUMPDEST PUSH2 0x25AD DUP9 PUSH8 0xDE0B6B3A7640000 PUSH4 0xFFFFFFFF PUSH2 0x4384 AND JUMP JUMPDEST DUP2 PUSH2 0x25B4 JUMPI INVALID JUMPDEST DIV JUMPDEST SWAP1 POP DUP6 DUP2 LT ISZERO PUSH2 0x25F7 JUMPI PUSH1 0x40 MLOAD PUSH3 0x461BCD PUSH1 0xE5 SHL DUP2 MSTORE PUSH1 0x4 ADD DUP1 DUP1 PUSH1 0x20 ADD DUP3 DUP2 SUB DUP3 MSTORE PUSH1 0x23 DUP2 MSTORE PUSH1 0x20 ADD DUP1 PUSH2 0x59FC PUSH1 0x23 SWAP2 CODECOPY PUSH1 0x40 ADD SWAP2 POP POP PUSH1 0x40 MLOAD DUP1 SWAP2 SUB SWAP1 REVERT JUMPDEST PUSH1 0x0 PUSH4 0x5F5E100 PUSH2 0x262C PUSH4 0x5F5E100 DUP12 PUSH1 0x80 ADD MLOAD SUB PUSH8 0xDE0B6B3A7640000 PUSH2 0x234F DUP14 PUSH1 0xA0 ADD MLOAD DUP8 PUSH2 0x4384 SWAP1 SWAP2 SWAP1 PUSH4 0xFFFFFFFF AND JUMP JUMPDEST DUP2 PUSH2 0x2633 JUMPI INVALID JUMPDEST DIV SWAP1 POP DUP9 PUSH1 0x60 ADD MLOAD PUSH1 0x1 PUSH1 0x1 PUSH1 0xA0 SHL SUB AND PUSH4 0xC5EBEAEC DUP3 PUSH1 0x40 MLOAD DUP3 PUSH4 0xFFFFFFFF AND PUSH1 0xE0 SHL DUP2 MSTORE PUSH1 0x4 ADD DUP1 DUP3 DUP2 MSTORE PUSH1 0x20 ADD SWAP2 POP POP PUSH1 0x20 PUSH1 0x40 MLOAD DUP1 DUP4 SUB DUP2 PUSH1 0x0 DUP8 DUP1 EXTCODESIZE ISZERO DUP1 ISZERO PUSH2 0x2680 JUMPI PUSH1 0x0 DUP1 REVERT JUMPDEST POP GAS CALL ISZERO DUP1 ISZERO PUSH2 0x2694 JUMPI RETURNDATASIZE PUSH1 0x0 DUP1 RETURNDATACOPY RETURNDATASIZE PUSH1 0x0 REVERT JUMPDEST POP POP POP POP PUSH1 0x40 MLOAD RETURNDATASIZE PUSH1 0x20 DUP2 LT ISZERO PUSH2 0x26AA JUMPI PUSH1 0x0 DUP1 REVERT JUMPDEST POP MLOAD SWAP1 POP DUP5 PUSH2 0x26B9 JUMPI DUP1 PUSH2 0x26C9 JUMP JUMPDEST PUSH2 0x26C9 DUP2 DUP10 PUSH4 0xFFFFFFFF PUSH2 0x45E8 AND JUMP JUMPDEST PUSH1 0x40 DUP1 MLOAD DUP1 DUP3 ADD SWAP2 DUP3 SWAP1 MSTORE SWAP2 SWAP10 POP PUSH1 0x0 SWAP2 PUSH2 0x2729 SWAP2 PUSH1 0x11 SWAP1 PUSH1 0x2 SWAP1 DUP3 DUP5 JUMPDEST DUP2 SLOAD DUP2 MSTORE PUSH1 0x20 ADD SWAP1 PUSH1 0x1 ADD SWAP1 DUP1 DUP4 GT PUSH2 0x26E7 JUMPI POP POP DUP15 MLOAD SWAP3 POP PUSH2 0x271C SWAP2 POP DUP14 SWAP1 POP PUSH8 0xD99A8CEC7E20000 PUSH4 0xFFFFFFFF PUSH2 0x4384 AND JUMP JUMPDEST SWAP2 SWAP1 PUSH4 0xFFFFFFFF PUSH2 0x4642 AND JUMP JUMPDEST DUP11 MLOAD SWAP1 SWAP2 POP PUSH1 0x0 SWAP1 PUSH1 0xFF AND ISZERO PUSH2 0x2750 JUMPI PUSH1 0x3 SLOAD PUSH3 0x10000 SWAP1 DIV PUSH1 0x1 PUSH1 0x1 PUSH1 0xA0 SHL SUB AND PUSH2 0x2763 JUMP JUMPDEST PUSH1 0x8 SLOAD PUSH3 0x10000 SWAP1 DIV PUSH1 0x1 PUSH1 0x1 PUSH1 0xA0 SHL SUB AND JUMPDEST SWAP1 POP PUSH2 0x2774 DUP12 PUSH1 0x40 ADD MLOAD DUP3 DUP13 PUSH2 0x467D JUMP JUMPDEST SWAP10 POP DUP2 DUP11 LT ISZERO PUSH2 0x27CB JUMPI PUSH1 0x40 DUP1 MLOAD PUSH3 0x461BCD PUSH1 0xE5 SHL DUP2 MSTORE PUSH1 0x20 PUSH1 0x4 DUP3 ADD MSTORE PUSH1 0x1E PUSH1 0x24 DUP3 ADD MSTORE PUSH32 0x7377617020736C69702070616765206973206D6F7265207468616E2032250000 PUSH1 0x44 DUP3 ADD MSTORE SWAP1 MLOAD SWAP1 DUP2 SWAP1 SUB PUSH1 0x64 ADD SWAP1 REVERT JUMPDEST POP POP PUSH1 0xC0 DUP10 ADD MLOAD PUSH1 0x40 DUP1 MLOAD PUSH4 0x40C10F19 PUSH1 0xE0 SHL DUP2 MSTORE CALLER PUSH1 0x4 DUP3 ADD MSTORE PUSH1 0x24 DUP2 ADD DUP6 SWAP1 MSTORE SWAP1 MLOAD PUSH1 0x1 PUSH1 0x1 PUSH1 0xA0 SHL SUB SWAP1 SWAP3 AND SWAP2 PUSH4 0x40C10F19 SWAP2 PUSH1 0x44 DUP1 DUP3 ADD SWAP3 PUSH1 0x0 SWAP3 SWAP1 SWAP2 SWAP1 DUP3 SWAP1 SUB ADD DUP2 DUP4 DUP8 DUP1 EXTCODESIZE ISZERO DUP1 ISZERO PUSH2 0x2822 JUMPI PUSH1 0x0 DUP1 REVERT JUMPDEST POP GAS CALL ISZERO DUP1 ISZERO PUSH2 0x2836 JUMPI RETURNDATASIZE PUSH1 0x0 DUP1 RETURNDATACOPY RETURNDATASIZE PUSH1 0x0 REVERT JUMPDEST POP POP DUP11 MLOAD PUSH1 0xFF AND ISZERO ISZERO SWAP2 POP PUSH2 0x2894 SWAP1 POP JUMPI PUSH1 0x40 DUP1 MLOAD DUP10 DUP2 MSTORE PUSH1 0x20 DUP2 ADD DUP5 SWAP1 MSTORE DUP2 MLOAD PUSH1 0x1 PUSH1 0x1 PUSH1 0xA0 SHL SUB DUP7 AND SWAP3 CALLER SWAP3 PUSH32 0x441480820E894BF8FA95C00A13ADD7F7EF881D624E46F9116EB1D32C89D3B41A SWAP3 SWAP1 DUP2 SWAP1 SUB SWAP1 SWAP2 ADD SWAP1 LOG3 PUSH2 0x28DD JUMP JUMPDEST PUSH1 0x40 DUP1 MLOAD DUP10 DUP2 MSTORE PUSH1 0x20 DUP2 ADD DUP5 SWAP1 MSTORE DUP2 MLOAD PUSH1 0x1 PUSH1 0x1 PUSH1 0xA0 SHL SUB DUP7 AND SWAP3 CALLER SWAP3 PUSH32 0x61495D31BE9481BDA579E7F0148D9711F53D2ABDA843A66F65CE43A4872326D9 SWAP3 SWAP1 DUP2 SWAP1 SUB SWAP1 SWAP2 ADD SWAP1 LOG3 JUMPDEST POP POP PUSH1 0x2 DUP1 SLOAD PUSH1 0xFF NOT AND SWAP1 SSTORE POP POP POP POP POP POP POP JUMP JUMPDEST DUP1 ISZERO DUP1 PUSH2 0x2978 JUMPI POP PUSH1 0x40 DUP1 MLOAD PUSH4 0x6EB1769F PUSH1 0xE1 SHL DUP2 MSTORE ADDRESS PUSH1 0x4 DUP3 ADD MSTORE PUSH1 0x1 PUSH1 0x1 PUSH1 0xA0 SHL SUB DUP5 DUP2 AND PUSH1 0x24 DUP4 ADD MSTORE SWAP2 MLOAD SWAP2 DUP6 AND SWAP2 PUSH4 0xDD62ED3E SWAP2 PUSH1 0x44 DUP1 DUP3 ADD SWAP3 PUSH1 0x20 SWAP3 SWAP1 SWAP2 SWAP1 DUP3 SWAP1 SUB ADD DUP2 DUP7 DUP1 EXTCODESIZE ISZERO DUP1 ISZERO PUSH2 0x294A JUMPI PUSH1 0x0 DUP1 REVERT JUMPDEST POP GAS STATICCALL ISZERO DUP1 ISZERO PUSH2 0x295E JUMPI RETURNDATASIZE PUSH1 0x0 DUP1 RETURNDATACOPY RETURNDATASIZE PUSH1 0x0 REVERT JUMPDEST POP POP POP POP PUSH1 0x40 MLOAD RETURNDATASIZE PUSH1 0x20 DUP2 LT ISZERO PUSH2 0x2974 JUMPI PUSH1 0x0 DUP1 REVERT JUMPDEST POP MLOAD ISZERO JUMPDEST PUSH2 0x29B3 JUMPI PUSH1 0x40 MLOAD PUSH3 0x461BCD PUSH1 0xE5 SHL DUP2 MSTORE PUSH1 0x4 ADD DUP1 DUP1 PUSH1 0x20 ADD DUP3 DUP2 SUB DUP3 MSTORE PUSH1 0x36 DUP2 MSTORE PUSH1 0x20 ADD DUP1 PUSH2 0x5B99 PUSH1 0x36 SWAP2 CODECOPY PUSH1 0x40 ADD SWAP2 POP POP PUSH1 0x40 MLOAD DUP1 SWAP2 SUB SWAP1 REVERT JUMPDEST PUSH1 0x40 DUP1 MLOAD PUSH1 0x1 PUSH1 0x1 PUSH1 0xA0 SHL SUB DUP5 AND PUSH1 0x24 DUP3 ADD MSTORE PUSH1 0x44 DUP1 DUP3 ADD DUP5 SWAP1 MSTORE DUP3 MLOAD DUP1 DUP4 SUB SWAP1 SWAP2 ADD DUP2 MSTORE PUSH1 0x64 SWAP1 SWAP2 ADD SWAP1 SWAP2 MSTORE PUSH1 0x20 DUP2 ADD DUP1 MLOAD PUSH1 0x1 PUSH1 0x1 PUSH1 0xE0 SHL SUB AND PUSH4 0x95EA7B3 PUSH1 0xE0 SHL OR SWAP1 MSTORE PUSH2 0x2A05 SWAP1 DUP5 SWAP1 PUSH2 0x4701 JUMP JUMPDEST POP POP POP JUMP JUMPDEST SLOAD SWAP1 JUMP JUMPDEST DUP2 TIMESTAMP DUP2 LT ISZERO PUSH2 0x2A5D JUMPI PUSH1 0x40 DUP1 MLOAD PUSH3 0x461BCD PUSH1 0xE5 SHL DUP2 MSTORE PUSH1 0x20 PUSH1 0x4 DUP3 ADD MSTORE PUSH1 0x16 PUSH1 0x24 DUP3 ADD MSTORE PUSH22 0x1B195D995C9859D959141BDBDB0E8811561412549151 PUSH1 0x52 SHL PUSH1 0x44 DUP3 ADD MSTORE SWAP1 MLOAD SWAP1 DUP2 SWAP1 SUB PUSH1 0x64 ADD SWAP1 REVERT JUMPDEST PUSH1 0x2 SLOAD PUSH1 0xFF AND ISZERO PUSH2 0x2A6D JUMPI PUSH1 0x0 DUP1 REVERT JUMPDEST PUSH1 0x2 DUP1 SLOAD PUSH1 0xFF NOT AND PUSH1 0x1 OR SWAP1 SSTORE PUSH2 0x2A82 PUSH2 0x21DD JUMP JUMPDEST PUSH2 0x2A90 SWAP1 PUSH1 0x11 SWAP1 PUSH1 0x2 PUSH2 0x590C JUMP JUMPDEST POP PUSH1 0x0 DUP6 GT PUSH2 0x2ADC JUMPI PUSH1 0x40 DUP1 MLOAD PUSH3 0x461BCD PUSH1 0xE5 SHL DUP2 MSTORE PUSH1 0x20 PUSH1 0x4 DUP3 ADD MSTORE PUSH1 0x13 PUSH1 0x24 DUP3 ADD MSTORE PUSH19 0x73656C6C20616D6F756E74206973207A65726F PUSH1 0x68 SHL PUSH1 0x44 DUP3 ADD MSTORE SWAP1 MLOAD SWAP1 DUP2 SWAP1 SUB PUSH1 0x64 ADD SWAP1 REVERT JUMPDEST PUSH1 0x0 DUP7 PUSH1 0xC0 ADD MLOAD PUSH1 0x1 PUSH1 0x1 PUSH1 0xA0 SHL SUB AND PUSH4 0x18160DDD PUSH1 0x40 MLOAD DUP2 PUSH4 0xFFFFFFFF AND PUSH1 0xE0 SHL DUP2 MSTORE PUSH1 0x4 ADD PUSH1 0x20 PUSH1 0x40 MLOAD DUP1 DUP4 SUB DUP2 DUP7 DUP1 EXTCODESIZE ISZERO DUP1 ISZERO PUSH2 0x2B1B JUMPI PUSH1 0x0 DUP1 REVERT JUMPDEST POP GAS STATICCALL ISZERO DUP1 ISZERO PUSH2 0x2B2F JUMPI RETURNDATASIZE PUSH1 0x0 DUP1 RETURNDATACOPY RETURNDATASIZE PUSH1 0x0 REVERT JUMPDEST POP POP POP POP PUSH1 0x40 MLOAD RETURNDATASIZE PUSH1 0x20 DUP2 LT ISZERO PUSH2 0x2B45 JUMPI PUSH1 0x0 DUP1 REVERT JUMPDEST POP MLOAD PUSH1 0x60 DUP9 ADD MLOAD PUSH1 0x40 DUP1 MLOAD PUSH4 0x5AF175E3 PUSH1 0xE1 SHL DUP2 MSTORE ADDRESS PUSH1 0x4 DUP3 ADD MSTORE SWAP1 MLOAD SWAP3 SWAP4 POP PUSH1 0x0 SWAP3 PUSH2 0x2BE0 SWAP3 PUSH8 0xDE0B6B3A7640000 SWAP3 PUSH1 0x1 PUSH1 0x1 PUSH1 0xA0 SHL SUB SWAP1 SWAP2 AND SWAP2 PUSH4 0xB5E2EBC6 SWAP2 PUSH1 0x24 DUP1 DUP3 ADD SWAP3 PUSH1 0x20 SWAP3 SWAP1 SWAP2 SWAP1 DUP3 SWAP1 SUB ADD DUP2 DUP7 DUP1 EXTCODESIZE ISZERO DUP1 ISZERO PUSH2 0x2BA8 JUMPI PUSH1 0x0 DUP1 REVERT JUMPDEST POP GAS STATICCALL ISZERO DUP1 ISZERO PUSH2 0x2BBC JUMPI RETURNDATASIZE PUSH1 0x0 DUP1 RETURNDATACOPY RETURNDATASIZE PUSH1 0x0 REVERT JUMPDEST POP POP POP POP PUSH1 0x40 MLOAD RETURNDATASIZE PUSH1 0x20 DUP2 LT ISZERO PUSH2 0x2BD2 JUMPI PUSH1 0x0 DUP1 REVERT JUMPDEST POP MLOAD SWAP1 PUSH4 0xFFFFFFFF PUSH2 0x4384 AND JUMP JUMPDEST SWAP1 POP PUSH1 0x0 DUP1 PUSH1 0x0 DUP10 DUP6 EQ ISZERO PUSH2 0x2C04 JUMPI DUP11 MLOAD DUP5 SWAP4 POP PUSH2 0x2BFD SWAP1 PUSH2 0x43DD JUMP JUMPDEST SWAP2 POP PUSH2 0x2CD0 JUMP JUMPDEST PUSH2 0x2C2E PUSH4 0x5F5E100 DUP13 PUSH1 0x80 ADD MLOAD SUB PUSH4 0x5F5E100 PUSH2 0x234F DUP15 PUSH1 0xA0 ADD MLOAD DUP15 PUSH2 0x4384 SWAP1 SWAP2 SWAP1 PUSH4 0xFFFFFFFF AND JUMP JUMPDEST SWAP3 POP DUP4 DUP4 GT ISZERO PUSH2 0x2C3C JUMPI DUP4 SWAP3 POP JUMPDEST PUSH1 0x40 DUP1 MLOAD DUP1 DUP3 ADD SWAP2 DUP3 SWAP1 MSTORE PUSH2 0x2C84 SWAP2 PUSH2 0x2C77 SWAP2 DUP15 SWAP2 PUSH1 0x11 SWAP1 PUSH1 0x2 SWAP1 DUP3 DUP5 JUMPDEST DUP2 SLOAD DUP2 MSTORE PUSH1 0x20 ADD SWAP1 PUSH1 0x1 ADD SWAP1 DUP1 DUP4 GT PUSH2 0x2C5A JUMPI POP POP POP POP POP PUSH2 0x3F93 JUMP JUMPDEST DUP12 SWAP1 PUSH4 0xFFFFFFFF PUSH2 0x4384 AND JUMP JUMPDEST PUSH1 0x40 DUP1 MLOAD DUP1 DUP3 ADD SWAP2 DUP3 SWAP1 MSTORE SWAP2 SWAP3 POP PUSH2 0x2CCD SWAP2 SWAP1 PUSH1 0x11 SWAP1 PUSH1 0x2 SWAP1 DUP3 DUP5 JUMPDEST DUP2 SLOAD DUP2 MSTORE PUSH1 0x20 ADD SWAP1 PUSH1 0x1 ADD SWAP1 DUP1 DUP4 GT PUSH2 0x2CA0 JUMPI POP POP DUP16 MLOAD SWAP3 POP PUSH2 0x271C SWAP2 POP DUP8 SWAP1 POP DUP6 PUSH4 0xFFFFFFFF PUSH2 0x45E8 AND JUMP JUMPDEST SWAP2 POP JUMPDEST PUSH8 0xDE0B6B3A7640000 DUP4 DIV SWAP3 POP PUSH1 0x0 DUP8 ISZERO PUSH2 0x2D00 JUMPI DUP12 MLOAD PUSH2 0x2CF2 SWAP1 DUP5 DUP7 PUSH2 0x47B2 JUMP JUMPDEST SWAP2 POP DUP12 PUSH1 0x40 ADD MLOAD SWAP1 POP PUSH2 0x2D47 JUMP JUMPDEST DUP12 MLOAD PUSH2 0x2D0D SWAP1 DUP5 DUP7 PUSH2 0x482A JUMP JUMPDEST DUP13 MLOAD SWAP1 SWAP3 POP PUSH1 0xFF AND ISZERO PUSH2 0x2D31 JUMPI PUSH1 0x3 SLOAD PUSH3 0x10000 SWAP1 DIV PUSH1 0x1 PUSH1 0x1 PUSH1 0xA0 SHL SUB AND PUSH2 0x2D44 JUMP JUMPDEST PUSH1 0x8 SLOAD PUSH3 0x10000 SWAP1 DIV PUSH1 0x1 PUSH1 0x1 PUSH1 0xA0 SHL SUB AND JUMPDEST SWAP1 POP JUMPDEST PUSH2 0x2D54 PUSH1 0x14 SLOAD DUP3 DUP5 PUSH2 0x4590 JUMP JUMPDEST SWAP2 POP DUP10 DUP3 LT ISZERO PUSH2 0x2D95 JUMPI PUSH1 0x40 MLOAD PUSH3 0x461BCD PUSH1 0xE5 SHL DUP2 MSTORE PUSH1 0x4 ADD DUP1 DUP1 PUSH1 0x20 ADD DUP3 DUP2 SUB DUP3 MSTORE PUSH1 0x23 DUP2 MSTORE PUSH1 0x20 ADD DUP1 PUSH2 0x5990 PUSH1 0x23 SWAP2 CODECOPY PUSH1 0x40 ADD SWAP2 POP POP PUSH1 0x40 MLOAD DUP1 SWAP2 SUB SWAP1 REVERT JUMPDEST PUSH2 0x2DA1 DUP13 DUP6 PUSH1 0x0 PUSH2 0x4915 JUMP JUMPDEST PUSH2 0x2DAC CALLER DUP3 DUP5 PUSH2 0x4A0E JUMP JUMPDEST PUSH1 0xC0 DUP13 ADD MLOAD PUSH1 0x40 DUP1 MLOAD PUSH4 0x2770A7EB PUSH1 0xE2 SHL DUP2 MSTORE CALLER PUSH1 0x4 DUP3 ADD MSTORE PUSH1 0x24 DUP2 ADD DUP15 SWAP1 MSTORE SWAP1 MLOAD PUSH1 0x1 PUSH1 0x1 PUSH1 0xA0 SHL SUB SWAP1 SWAP3 AND SWAP2 PUSH4 0x9DC29FAC SWAP2 PUSH1 0x44 DUP1 DUP3 ADD SWAP3 PUSH1 0x0 SWAP3 SWAP1 SWAP2 SWAP1 DUP3 SWAP1 SUB ADD DUP2 DUP4 DUP8 DUP1 EXTCODESIZE ISZERO DUP1 ISZERO PUSH2 0x2E01 JUMPI PUSH1 0x0 DUP1 REVERT JUMPDEST POP GAS CALL ISZERO DUP1 ISZERO PUSH2 0x2E15 JUMPI RETURNDATASIZE PUSH1 0x0 DUP1 RETURNDATACOPY RETURNDATASIZE PUSH1 0x0 REVERT JUMPDEST POP POP DUP14 MLOAD PUSH1 0xFF AND ISZERO ISZERO SWAP2 POP PUSH2 0x2E73 SWAP1 POP JUMPI PUSH1 0x40 DUP1 MLOAD DUP13 DUP2 MSTORE PUSH1 0x20 DUP2 ADD DUP5 SWAP1 MSTORE DUP2 MLOAD PUSH1 0x1 PUSH1 0x1 PUSH1 0xA0 SHL SUB DUP5 AND SWAP3 CALLER SWAP3 PUSH32 0xF46D67694CBE93169185178CE0087823CFB1521F36B5B1A52688BD7015C2A19C SWAP3 SWAP1 DUP2 SWAP1 SUB SWAP1 SWAP2 ADD SWAP1 LOG3 PUSH2 0x2EBC JUMP JUMPDEST PUSH1 0x40 DUP1 MLOAD DUP13 DUP2 MSTORE PUSH1 0x20 DUP2 ADD DUP5 SWAP1 MSTORE DUP2 MLOAD PUSH1 0x1 PUSH1 0x1 PUSH1 0xA0 SHL SUB DUP5 AND SWAP3 CALLER SWAP3 PUSH32 0x7BCDC798045519BF99DCFEE59FCA73A3FC8A72F36994E5F439B589248B05A367 SWAP3 SWAP1 DUP2 SWAP1 SUB SWAP1 SWAP2 ADD SWAP1 LOG3 JUMPDEST POP POP PUSH1 0x2 DUP1 SLOAD PUSH1 0xFF NOT AND SWAP1 SSTORE POP POP POP POP POP POP POP POP POP POP JUMP JUMPDEST PUSH1 0x0 DUP4 PUSH1 0xC0 ADD MLOAD PUSH1 0x1 PUSH1 0x1 PUSH1 0xA0 SHL SUB AND PUSH4 0x18160DDD PUSH1 0x40 MLOAD DUP2 PUSH4 0xFFFFFFFF AND PUSH1 0xE0 SHL DUP2 MSTORE PUSH1 0x4 ADD PUSH1 0x20 PUSH1 0x40 MLOAD DUP1 DUP4 SUB DUP2 DUP7 DUP1 EXTCODESIZE ISZERO DUP1 ISZERO PUSH2 0x2F13 JUMPI PUSH1 0x0 DUP1 REVERT JUMPDEST POP GAS STATICCALL ISZERO DUP1 ISZERO PUSH2 0x2F27 JUMPI RETURNDATASIZE PUSH1 0x0 DUP1 RETURNDATACOPY RETURNDATASIZE PUSH1 0x0 REVERT JUMPDEST POP POP POP POP PUSH1 0x40 MLOAD RETURNDATASIZE PUSH1 0x20 DUP2 LT ISZERO PUSH2 0x2F3D JUMPI PUSH1 0x0 DUP1 REVERT JUMPDEST POP MLOAD PUSH2 0x2F4B JUMPI POP PUSH1 0x0 PUSH2 0x10B4 JUMP JUMPDEST PUSH1 0x40 DUP1 MLOAD DUP1 DUP3 ADD SWAP2 DUP3 SWAP1 MSTORE PUSH2 0x2F99 SWAP2 PUSH1 0xF SWAP1 PUSH1 0x2 SWAP1 DUP3 DUP5 JUMPDEST DUP2 SLOAD DUP2 MSTORE PUSH1 0x20 ADD SWAP1 PUSH1 0x1 ADD SWAP1 DUP1 DUP4 GT PUSH2 0x2F63 JUMPI POP POP DUP9 MLOAD PUSH1 0x80 DUP11 ADD MLOAD DUP9 ADD PUSH4 0x5F5E0FF NOT ADD SWAP5 SWAP4 POP SWAP2 POP POP PUSH4 0xFFFFFFFF PUSH2 0x44A7 AND JUMP JUMPDEST DUP5 MLOAD PUSH1 0x80 DUP7 ADD MLOAD PUSH2 0x2FB1 SWAP2 DUP7 SWAP1 PUSH4 0xFFFFFFFF PUSH2 0x44A7 AND JUMP JUMPDEST LT SWAP5 SWAP4 POP POP POP POP JUMP JUMPDEST PUSH1 0x0 CALLVALUE SWAP1 POP PUSH1 0x0 CALLER ADDRESS DUP4 PUSH1 0x0 CALLDATASIZE PUSH1 0x40 MLOAD PUSH1 0x20 ADD DUP1 DUP7 PUSH1 0x1 PUSH1 0x1 PUSH1 0xA0 SHL SUB AND PUSH1 0x1 PUSH1 0x1 PUSH1 0xA0 SHL SUB AND PUSH1 0x60 SHL DUP2 MSTORE PUSH1 0x14 ADD DUP6 PUSH1 0x1 PUSH1 0x1 PUSH1 0xA0 SHL SUB AND PUSH1 0x1 PUSH1 0x1 PUSH1 0xA0 SHL SUB AND PUSH1 0x60 SHL DUP2 MSTORE PUSH1 0x14 ADD DUP5 DUP2 MSTORE PUSH1 0x20 ADD DUP4 DUP4 DUP1 DUP3 DUP5 CALLDATACOPY DUP1 DUP4 ADD SWAP3 POP POP POP SWAP6 POP POP POP POP POP POP PUSH1 0x40 MLOAD PUSH1 0x20 DUP2 DUP4 SUB SUB DUP2 MSTORE SWAP1 PUSH1 0x40 MSTORE DUP1 MLOAD SWAP1 PUSH1 0x20 ADD KECCAK256 SWAP1 POP PUSH1 0x0 PUSH2 0x3040 PUSH2 0x1345 JUMP JUMPDEST SWAP1 POP PUSH1 0x0 PUSH2 0x304D DUP4 PUSH2 0x2A0A JUMP JUMPDEST SWAP1 POP PUSH1 0x0 DUP3 PUSH1 0x1 PUSH1 0x1 PUSH1 0xA0 SHL SUB AND PUSH4 0x1EBAA166 DUP6 DUP5 PUSH1 0x40 MLOAD DUP4 PUSH4 0xFFFFFFFF AND PUSH1 0xE0 SHL DUP2 MSTORE PUSH1 0x4 ADD DUP1 DUP4 DUP2 MSTORE PUSH1 0x20 ADD DUP3 DUP2 MSTORE PUSH1 0x20 ADD SWAP3 POP POP POP PUSH1 0x20 PUSH1 0x40 MLOAD DUP1 DUP4 SUB DUP2 DUP7 DUP1 EXTCODESIZE ISZERO DUP1 ISZERO PUSH2 0x309D JUMPI PUSH1 0x0 DUP1 REVERT JUMPDEST POP GAS STATICCALL ISZERO DUP1 ISZERO PUSH2 0x30B1 JUMPI RETURNDATASIZE PUSH1 0x0 DUP1 RETURNDATACOPY RETURNDATASIZE PUSH1 0x0 REVERT JUMPDEST POP POP POP POP PUSH1 0x40 MLOAD RETURNDATASIZE PUSH1 0x20 DUP2 LT ISZERO PUSH2 0x30C7 JUMPI PUSH1 0x0 DUP1 REVERT JUMPDEST POP MLOAD SWAP1 POP DUP2 DUP2 GT PUSH2 0x3109 JUMPI PUSH1 0x40 MLOAD PUSH3 0x461BCD PUSH1 0xE5 SHL DUP2 MSTORE PUSH1 0x4 ADD DUP1 DUP1 PUSH1 0x20 ADD DUP3 DUP2 SUB DUP3 MSTORE PUSH1 0x2E DUP2 MSTORE PUSH1 0x20 ADD DUP1 PUSH2 0x5A1F PUSH1 0x2E SWAP2 CODECOPY PUSH1 0x40 ADD SWAP2 POP POP PUSH1 0x40 MLOAD DUP1 SWAP2 SUB SWAP1 REVERT JUMPDEST PUSH2 0xFEA DUP5 DUP3 PUSH2 0x4AC5 JUMP JUMPDEST PUSH1 0x40 DUP1 MLOAD PUSH1 0xE0 DUP2 ADD DUP3 MSTORE PUSH1 0x3 SLOAD PUSH1 0xFF DUP1 DUP3 AND DUP4 MSTORE PUSH2 0x100 DUP3 DIV AND ISZERO ISZERO PUSH1 0x20 DUP4 ADD MSTORE PUSH1 0x1 PUSH1 0x1 PUSH1 0xA0 SHL SUB PUSH3 0x10000 SWAP1 SWAP2 DIV DUP2 AND SWAP3 DUP3 ADD SWAP3 SWAP1 SWAP3 MSTORE PUSH1 0x4 SLOAD DUP3 AND PUSH1 0x60 DUP3 ADD MSTORE PUSH1 0x5 SLOAD PUSH1 0x80 DUP3 ADD MSTORE PUSH1 0x6 SLOAD PUSH1 0xA0 DUP3 ADD MSTORE PUSH1 0x7 SLOAD SWAP1 SWAP2 AND PUSH1 0xC0 DUP3 ADD MSTORE PUSH1 0x0 SWAP1 PUSH2 0x317D SWAP1 PUSH2 0x4AC9 JUMP JUMPDEST PUSH1 0x40 DUP1 MLOAD PUSH1 0xE0 DUP2 ADD DUP3 MSTORE PUSH1 0x8 SLOAD PUSH1 0xFF DUP1 DUP3 AND DUP4 MSTORE PUSH2 0x100 DUP3 DIV AND ISZERO ISZERO PUSH1 0x20 DUP4 ADD MSTORE PUSH1 0x1 PUSH1 0x1 PUSH1 0xA0 SHL SUB PUSH3 0x10000 SWAP1 SWAP2 DIV DUP2 AND SWAP3 DUP3 ADD SWAP3 SWAP1 SWAP3 MSTORE PUSH1 0x9 SLOAD DUP3 AND PUSH1 0x60 DUP3 ADD MSTORE PUSH1 0xA SLOAD PUSH1 0x80 DUP3 ADD MSTORE PUSH1 0xB SLOAD PUSH1 0xA0 DUP3 ADD MSTORE PUSH1 0xC SLOAD SWAP1 SWAP2 AND PUSH1 0xC0 DUP3 ADD MSTORE SWAP1 SWAP2 POP PUSH1 0x0 SWAP1 PUSH2 0x31EA SWAP1 PUSH2 0x4AC9 JUMP JUMPDEST SWAP1 POP PUSH1 0x0 DUP1 PUSH2 0x31F9 PUSH1 0x3 PUSH2 0x4BEE JUMP JUMPDEST PUSH1 0x3 SLOAD PUSH1 0x40 DUP1 MLOAD DUP5 DUP2 MSTORE PUSH1 0x20 DUP2 ADD DUP5 SWAP1 MSTORE DUP2 MLOAD SWAP5 SWAP7 POP SWAP3 SWAP5 POP PUSH3 0x10000 SWAP1 SWAP2 DIV PUSH1 0x1 PUSH1 0x1 PUSH1 0xA0 SHL SUB AND SWAP3 CALLER SWAP3 PUSH32 0xFEA7A9A6E25CD0BBBFA80CE0C7646E61EE5E0551B3FDAAFF0642E6F6ADCC72E2 SWAP3 SWAP1 DUP3 SWAP1 SUB ADD SWAP1 LOG3 PUSH1 0x0 DUP1 PUSH2 0x325B PUSH1 0x8 PUSH2 0x4BEE JUMP JUMPDEST PUSH1 0x8 SLOAD PUSH1 0x40 DUP1 MLOAD DUP5 DUP2 MSTORE PUSH1 0x20 DUP2 ADD DUP5 SWAP1 MSTORE DUP2 MLOAD SWAP5 SWAP7 POP SWAP3 SWAP5 POP PUSH3 0x10000 SWAP1 SWAP2 DIV PUSH1 0x1 PUSH1 0x1 PUSH1 0xA0 SHL SUB AND SWAP3 CALLER SWAP3 PUSH32 0xFEA7A9A6E25CD0BBBFA80CE0C7646E61EE5E0551B3FDAAFF0642E6F6ADCC72E2 SWAP3 SWAP1 DUP3 SWAP1 SUB ADD SWAP1 LOG3 PUSH2 0x32BE PUSH1 0xF PUSH1 0x11 PUSH1 0x2 PUSH2 0x594A JUMP JUMPDEST POP DUP4 ISZERO PUSH2 0x3329 JUMPI PUSH1 0x4 DUP1 SLOAD PUSH1 0x40 DUP1 MLOAD PUSH4 0x6379ABF5 PUSH1 0xE1 SHL DUP2 MSTORE SWAP3 DUP4 ADD DUP8 SWAP1 MSTORE MLOAD PUSH1 0x1 PUSH1 0x1 PUSH1 0xA0 SHL SUB SWAP1 SWAP2 AND SWAP2 PUSH4 0xC6F357EA SWAP2 PUSH1 0x24 DUP1 DUP4 ADD SWAP3 PUSH1 0x0 SWAP3 SWAP2 SWAP1 DUP3 SWAP1 SUB ADD DUP2 DUP4 DUP8 DUP1 EXTCODESIZE ISZERO DUP1 ISZERO PUSH2 0x3310 JUMPI PUSH1 0x0 DUP1 REVERT JUMPDEST POP GAS CALL ISZERO DUP1 ISZERO PUSH2 0x3324 JUMPI RETURNDATASIZE PUSH1 0x0 DUP1 RETURNDATACOPY RETURNDATASIZE PUSH1 0x0 REVERT JUMPDEST POP POP POP POP JUMPDEST DUP2 ISZERO PUSH2 0x3395 JUMPI PUSH1 0x9 SLOAD PUSH1 0x40 DUP1 MLOAD PUSH4 0x6379ABF5 PUSH1 0xE1 SHL DUP2 MSTORE PUSH1 0x4 DUP2 ADD DUP6 SWAP1 MSTORE SWAP1 MLOAD PUSH1 0x1 PUSH1 0x1 PUSH1 0xA0 SHL SUB SWAP1 SWAP3 AND SWAP2 PUSH4 0xC6F357EA SWAP2 PUSH1 0x24 DUP1 DUP3 ADD SWAP3 PUSH1 0x0 SWAP3 SWAP1 SWAP2 SWAP1 DUP3 SWAP1 SUB ADD DUP2 DUP4 DUP8 DUP1 EXTCODESIZE ISZERO DUP1 ISZERO PUSH2 0x337C JUMPI PUSH1 0x0 DUP1 REVERT JUMPDEST POP GAS CALL ISZERO DUP1 ISZERO PUSH2 0x3390 JUMPI RETURNDATASIZE PUSH1 0x0 DUP1 RETURNDATACOPY RETURNDATASIZE PUSH1 0x0 REVERT JUMPDEST POP POP POP POP JUMPDEST PUSH1 0x0 DUP5 GT DUP1 ISZERO PUSH2 0x33A5 JUMPI POP PUSH1 0x0 DUP3 GT JUMPDEST ISZERO PUSH2 0x3464 JUMPI PUSH1 0xD SLOAD PUSH1 0x3 SLOAD PUSH1 0x8 SLOAD PUSH1 0x40 MLOAD PUSH1 0x1 PUSH1 0x1 PUSH1 0xA0 SHL SUB SWAP4 DUP5 AND PUSH1 0x24 DUP3 ADD DUP2 DUP2 MSTORE PUSH3 0x10000 SWAP5 DUP6 SWAP1 DIV DUP7 AND PUSH1 0x44 DUP5 ADD DUP2 SWAP1 MSTORE SWAP5 SWAP1 SWAP4 DIV SWAP1 SWAP5 AND PUSH1 0x64 DUP3 ADD DUP2 SWAP1 MSTORE PUSH1 0x84 DUP3 ADD DUP10 SWAP1 MSTORE PUSH1 0xA4 DUP3 ADD DUP8 SWAP1 MSTORE PUSH2 0x345E SWAP5 SWAP4 SWAP3 SWAP1 SWAP2 DUP10 SWAP2 DUP9 SWAP2 PUSH1 0x11 SWAP2 SWAP1 PUSH2 0x104 DUP2 ADD SWAP1 DUP4 SWAP1 PUSH1 0xC4 ADD JUMPDEST DUP2 SLOAD DUP2 MSTORE PUSH1 0x20 ADD SWAP1 PUSH1 0x1 ADD SWAP1 DUP1 DUP4 GT PUSH2 0x3411 JUMPI POP POP PUSH1 0x40 DUP1 MLOAD PUSH1 0x1F NOT DUP2 DUP5 SUB ADD DUP2 MSTORE SWAP2 SWAP1 MSTORE PUSH1 0x20 DUP2 ADD DUP1 MLOAD PUSH1 0x1 PUSH1 0x1 PUSH1 0xE0 SHL SUB AND PUSH4 0x6ACE6463 PUSH1 0xE1 SHL OR SWAP1 MSTORE SWAP7 POP PUSH2 0xFF1 SWAP6 POP POP POP POP POP POP JUMP JUMPDEST POP PUSH2 0x37DD JUMP JUMPDEST DUP4 ISZERO PUSH2 0x35AC JUMPI PUSH1 0xD SLOAD PUSH1 0x3 SLOAD PUSH1 0x8 SLOAD PUSH1 0x40 DUP1 MLOAD DUP1 DUP3 ADD SWAP2 DUP3 SWAP1 MSTORE PUSH2 0x345E SWAP5 PUSH1 0x1 PUSH1 0x1 PUSH1 0xA0 SHL SUB SWAP1 DUP2 AND SWAP5 PUSH3 0x10000 SWAP1 DUP2 SWAP1 DIV DUP3 AND SWAP5 DIV AND SWAP2 DUP10 SWAP2 PUSH8 0xDE0B6B3A7640000 SWAP2 PUSH2 0x34E0 SWAP2 SWAP1 PUSH1 0x11 SWAP1 PUSH1 0x2 SWAP1 DUP3 DUP5 JUMPDEST DUP2 SLOAD DUP2 MSTORE PUSH1 0x20 ADD SWAP1 PUSH1 0x1 ADD SWAP1 DUP1 DUP4 GT PUSH2 0x34B6 JUMPI POP POP POP POP POP PUSH1 0x0 DUP10 PUSH2 0x44A7 SWAP1 SWAP3 SWAP2 SWAP1 PUSH4 0xFFFFFFFF AND JUMP JUMPDEST DUP2 PUSH2 0x34E7 JUMPI INVALID JUMPDEST DIV PUSH1 0x11 PUSH1 0x0 PUSH1 0x40 MLOAD PUSH1 0x24 ADD DUP1 DUP9 PUSH1 0x1 PUSH1 0x1 PUSH1 0xA0 SHL SUB AND PUSH1 0x1 PUSH1 0x1 PUSH1 0xA0 SHL SUB AND DUP2 MSTORE PUSH1 0x20 ADD DUP8 PUSH1 0x1 PUSH1 0x1 PUSH1 0xA0 SHL SUB AND PUSH1 0x1 PUSH1 0x1 PUSH1 0xA0 SHL SUB AND DUP2 MSTORE PUSH1 0x20 ADD DUP7 PUSH1 0x1 PUSH1 0x1 PUSH1 0xA0 SHL SUB AND PUSH1 0x1 PUSH1 0x1 PUSH1 0xA0 SHL SUB AND DUP2 MSTORE PUSH1 0x20 ADD DUP6 DUP2 MSTORE PUSH1 0x20 ADD DUP5 DUP2 MSTORE PUSH1 0x20 ADD DUP4 PUSH1 0x2 DUP1 ISZERO PUSH2 0x356B JUMPI PUSH1 0x20 MUL DUP3 ADD SWAP2 JUMPDEST DUP2 SLOAD DUP2 MSTORE PUSH1 0x20 ADD SWAP1 PUSH1 0x1 ADD SWAP1 DUP1 DUP4 GT PUSH2 0x3557 JUMPI JUMPDEST POP POP PUSH1 0xFF SWAP1 SWAP3 AND DUP3 MSTORE POP PUSH1 0x40 DUP1 MLOAD DUP1 DUP4 SUB DUP2 MSTORE PUSH1 0x20 SWAP3 DUP4 ADD SWAP1 SWAP2 MSTORE SWAP1 DUP2 ADD DUP1 MLOAD PUSH1 0x1 PUSH1 0x1 PUSH1 0xE0 SHL SUB AND PUSH4 0x983FDA2F PUSH1 0xE0 SHL OR SWAP1 MSTORE SWAP6 POP PUSH2 0xFF1 SWAP5 POP POP POP POP POP JUMP JUMPDEST DUP2 ISZERO PUSH2 0x36F2 JUMPI PUSH1 0xD SLOAD PUSH1 0x8 SLOAD PUSH1 0x3 SLOAD PUSH1 0x40 DUP1 MLOAD DUP1 DUP3 ADD SWAP2 DUP3 SWAP1 MSTORE PUSH2 0x345E SWAP5 PUSH1 0x1 PUSH1 0x1 PUSH1 0xA0 SHL SUB SWAP1 DUP2 AND SWAP5 PUSH3 0x10000 SWAP1 DUP2 SWAP1 DIV DUP3 AND SWAP5 DIV AND SWAP2 DUP8 SWAP2 PUSH8 0xDE0B6B3A7640000 SWAP2 PUSH2 0x3628 SWAP2 SWAP1 PUSH1 0x11 SWAP1 PUSH1 0x2 SWAP1 DUP3 DUP5 JUMPDEST DUP2 SLOAD DUP2 MSTORE PUSH1 0x20 ADD SWAP1 PUSH1 0x1 ADD SWAP1 DUP1 DUP4 GT PUSH2 0x35FE JUMPI POP POP POP POP POP PUSH1 0x1 DUP12 PUSH2 0x44A7 SWAP1 SWAP3 SWAP2 SWAP1 PUSH4 0xFFFFFFFF AND JUMP JUMPDEST DUP2 PUSH2 0x362F JUMPI INVALID JUMPDEST DIV PUSH1 0x11 PUSH1 0x1 PUSH1 0x40 MLOAD PUSH1 0x24 ADD DUP1 DUP9 PUSH1 0x1 PUSH1 0x1 PUSH1 0xA0 SHL SUB AND PUSH1 0x1 PUSH1 0x1 PUSH1 0xA0 SHL SUB AND DUP2 MSTORE PUSH1 0x20 ADD DUP8 PUSH1 0x1 PUSH1 0x1 PUSH1 0xA0 SHL SUB AND PUSH1 0x1 PUSH1 0x1 PUSH1 0xA0 SHL SUB AND DUP2 MSTORE PUSH1 0x20 ADD DUP7 PUSH1 0x1 PUSH1 0x1 PUSH1 0xA0 SHL SUB AND PUSH1 0x1 PUSH1 0x1 PUSH1 0xA0 SHL SUB AND DUP2 MSTORE PUSH1 0x20 ADD DUP6 DUP2 MSTORE PUSH1 0x20 ADD DUP5 DUP2 MSTORE PUSH1 0x20 ADD DUP4 PUSH1 0x2 DUP1 ISZERO PUSH2 0x356B JUMPI PUSH1 0x20 MUL DUP3 ADD SWAP2 DUP2 SLOAD DUP2 MSTORE PUSH1 0x20 ADD SWAP1 PUSH1 0x1 ADD SWAP1 DUP1 DUP4 GT PUSH2 0x3557 JUMPI POP POP PUSH1 0xFF SWAP1 SWAP3 AND DUP3 MSTORE POP PUSH1 0x40 DUP1 MLOAD DUP1 DUP4 SUB DUP2 MSTORE PUSH1 0x20 SWAP3 DUP4 ADD SWAP1 SWAP2 MSTORE SWAP1 DUP2 ADD DUP1 MLOAD PUSH1 0x1 PUSH1 0x1 PUSH1 0xE0 SHL SUB AND PUSH4 0x983FDA2F PUSH1 0xE0 SHL OR SWAP1 MSTORE SWAP6 POP PUSH2 0xFF1 SWAP5 POP POP POP POP POP JUMP JUMPDEST PUSH1 0x0 DUP4 GT DUP1 PUSH2 0x3701 JUMPI POP PUSH1 0x0 DUP2 GT JUMPDEST ISZERO PUSH2 0x37DD JUMPI PUSH1 0xD SLOAD PUSH1 0x3 SLOAD PUSH1 0x8 SLOAD PUSH1 0x40 MLOAD PUSH1 0x1 PUSH1 0x1 PUSH1 0xA0 SHL SUB SWAP4 DUP5 AND PUSH1 0x24 DUP3 ADD DUP2 DUP2 MSTORE PUSH3 0x10000 SWAP5 DUP6 SWAP1 DIV DUP7 AND PUSH1 0x44 DUP5 ADD DUP2 SWAP1 MSTORE SWAP5 SWAP1 SWAP4 DIV SWAP1 SWAP5 AND PUSH1 0x64 DUP3 ADD DUP2 SWAP1 MSTORE PUSH1 0x84 DUP3 ADD DUP9 SWAP1 MSTORE PUSH1 0xA4 DUP3 ADD DUP7 SWAP1 MSTORE PUSH2 0x37BA SWAP5 SWAP4 SWAP3 SWAP1 SWAP2 DUP9 SWAP2 DUP8 SWAP2 PUSH1 0x11 SWAP2 SWAP1 PUSH2 0x104 DUP2 ADD SWAP1 DUP4 SWAP1 PUSH1 0xC4 ADD JUMPDEST DUP2 SLOAD DUP2 MSTORE PUSH1 0x20 ADD SWAP1 PUSH1 0x1 ADD SWAP1 DUP1 DUP4 GT PUSH2 0x376D JUMPI POP POP PUSH1 0x40 DUP1 MLOAD PUSH1 0x1F NOT DUP2 DUP5 SUB ADD DUP2 MSTORE SWAP2 SWAP1 MSTORE PUSH1 0x20 DUP2 ADD DUP1 MLOAD PUSH1 0x1 PUSH1 0x1 PUSH1 0xE0 SHL SUB AND PUSH4 0xF8BAB6F1 PUSH1 0xE0 SHL OR SWAP1 MSTORE SWAP7 POP PUSH2 0xFF1 SWAP6 POP POP POP POP POP POP JUMP JUMPDEST DUP1 PUSH1 0x20 ADD SWAP1 MLOAD PUSH1 0x40 DUP2 LT ISZERO PUSH2 0x37CE JUMPI PUSH1 0x0 DUP1 REVERT JUMPDEST POP DUP1 MLOAD PUSH1 0x20 SWAP1 SWAP2 ADD MLOAD SWAP1 SWAP4 POP SWAP1 POP JUMPDEST DUP4 PUSH2 0x384A JUMPI PUSH1 0x40 DUP1 MLOAD PUSH1 0xE0 DUP2 ADD DUP3 MSTORE PUSH1 0x3 SLOAD PUSH1 0xFF DUP1 DUP3 AND DUP4 MSTORE PUSH2 0x100 DUP3 DIV AND ISZERO ISZERO PUSH1 0x20 DUP4 ADD MSTORE PUSH1 0x1 PUSH1 0x1 PUSH1 0xA0 SHL SUB PUSH3 0x10000 SWAP1 SWAP2 DIV DUP2 AND SWAP3 DUP3 ADD SWAP3 SWAP1 SWAP3 MSTORE PUSH1 0x4 SLOAD DUP3 AND PUSH1 0x60 DUP3 ADD MSTORE PUSH1 0x5 SLOAD PUSH1 0x80 DUP3 ADD MSTORE PUSH1 0x6 SLOAD PUSH1 0xA0 DUP3 ADD MSTORE PUSH1 0x7 SLOAD SWAP1 SWAP2 AND PUSH1 0xC0 DUP3 ADD MSTORE PUSH2 0x384A SWAP1 DUP5 PUSH2 0x507D JUMP JUMPDEST DUP2 PUSH2 0x38B7 JUMPI PUSH1 0x40 DUP1 MLOAD PUSH1 0xE0 DUP2 ADD DUP3 MSTORE PUSH1 0x8 SLOAD PUSH1 0xFF DUP1 DUP3 AND DUP4 MSTORE PUSH2 0x100 DUP3 DIV AND ISZERO ISZERO PUSH1 0x20 DUP4 ADD MSTORE PUSH1 0x1 PUSH1 0x1 PUSH1 0xA0 SHL SUB PUSH3 0x10000 SWAP1 SWAP2 DIV DUP2 AND SWAP3 DUP3 ADD SWAP3 SWAP1 SWAP3 MSTORE PUSH1 0x9 SLOAD DUP3 AND PUSH1 0x60 DUP3 ADD MSTORE PUSH1 0xA SLOAD PUSH1 0x80 DUP3 ADD MSTORE PUSH1 0xB SLOAD PUSH1 0xA0 DUP3 ADD MSTORE PUSH1 0xC SLOAD SWAP1 SWAP2 AND PUSH1 0xC0 DUP3 ADD MSTORE PUSH2 0x38B7 SWAP1 DUP3 PUSH2 0x507D JUMP JUMPDEST PUSH2 0x38C2 PUSH1 0x3 DUP8 PUSH2 0x5155 JUMP JUMPDEST PUSH2 0x38CD PUSH1 0x8 DUP7 PUSH2 0x5155 JUMP JUMPDEST POP POP POP POP POP POP JUMP JUMPDEST PUSH1 0x0 SLOAD PUSH1 0x1 PUSH1 0xA8 SHL SWAP1 DIV PUSH1 0xFF AND DUP1 PUSH2 0x38F0 JUMPI POP PUSH2 0x38F0 PUSH2 0x542B JUMP JUMPDEST DUP1 PUSH2 0x3905 JUMPI POP PUSH1 0x0 SLOAD PUSH1 0x1 PUSH1 0xA0 SHL SWAP1 DIV PUSH1 0xFF AND ISZERO JUMPDEST PUSH2 0x3940 JUMPI PUSH1 0x40 MLOAD PUSH3 0x461BCD PUSH1 0xE5 SHL DUP2 MSTORE PUSH1 0x4 ADD DUP1 DUP1 PUSH1 0x20 ADD DUP3 DUP2 SUB DUP3 MSTORE PUSH1 0x2E DUP2 MSTORE PUSH1 0x20 ADD DUP1 PUSH2 0x5ADF PUSH1 0x2E SWAP2 CODECOPY PUSH1 0x40 ADD SWAP2 POP POP PUSH1 0x40 MLOAD DUP1 SWAP2 SUB SWAP1 REVERT JUMPDEST PUSH1 0x0 DUP1 SLOAD PUSH1 0x1 PUSH1 0xA0 SHL PUSH1 0x1 PUSH1 0xA8 SHL PUSH1 0xFF PUSH1 0xA8 SHL NOT DUP4 AND DUP2 OR PUSH1 0xFF PUSH1 0xA0 SHL NOT AND SWAP2 SWAP1 SWAP2 OR SWAP1 SWAP3 SSTORE DIV PUSH1 0xFF AND PUSH2 0x3972 PUSH2 0x1300 JUMP JUMPDEST PUSH2 0x397A PUSH2 0xE69 JUMP JUMPDEST GT PUSH2 0x39B6 JUMPI PUSH1 0x40 MLOAD PUSH3 0x461BCD PUSH1 0xE5 SHL DUP2 MSTORE PUSH1 0x4 ADD DUP1 DUP1 PUSH1 0x20 ADD DUP3 DUP2 SUB DUP3 MSTORE PUSH1 0x2E DUP2 MSTORE PUSH1 0x20 ADD DUP1 PUSH2 0x5B0D PUSH1 0x2E SWAP2 CODECOPY PUSH1 0x40 ADD SWAP2 POP POP PUSH1 0x40 MLOAD DUP1 SWAP2 SUB SWAP1 REVERT JUMPDEST PUSH1 0x0 DUP1 SLOAD SWAP2 ISZERO ISZERO PUSH1 0x1 PUSH1 0xA8 SHL MUL PUSH1 0xFF PUSH1 0xA8 SHL NOT SWAP1 SWAP3 AND SWAP2 SWAP1 SWAP2 OR SWAP1 SSTORE JUMP JUMPDEST PUSH1 0x1A DUP1 SLOAD PUSH1 0x1 PUSH1 0x1 PUSH1 0xA0 SHL SUB DUP1 DUP10 AND PUSH1 0x1 PUSH1 0x1 PUSH1 0xA0 SHL SUB NOT SWAP3 DUP4 AND OR SWAP1 SWAP3 SSTORE PUSH1 0x0 DUP1 SLOAD DUP7 DUP5 AND SWAP1 DUP4 AND OR DUP2 SSTORE PUSH1 0xD DUP1 SLOAD DUP7 DUP6 AND SWAP1 DUP5 AND OR SWAP1 SSTORE PUSH1 0xE DUP1 SLOAD SWAP4 DUP6 AND SWAP4 SWAP1 SWAP3 AND SWAP3 SWAP1 SWAP3 OR SWAP1 SSTORE PUSH2 0x3A2B SWAP1 PUSH1 0x3 SWAP1 DUP8 PUSH2 0x5431 JUMP JUMPDEST PUSH2 0x38CD PUSH1 0x8 PUSH1 0x1 DUP7 PUSH2 0x5431 JUMP JUMPDEST PUSH2 0x3A40 PUSH2 0x21DD JUMP JUMPDEST PUSH2 0x3A4E SWAP1 PUSH1 0xF SWAP1 PUSH1 0x2 PUSH2 0x590C JUMP JUMPDEST POP PUSH1 0xC0 DUP4 SWAP1 SHR PUSH1 0x16 DUP2 SWAP1 SSTORE PUSH1 0x17 DUP3 SWAP1 SSTORE PUSH1 0x5 SSTORE PUSH1 0xF SLOAD PUSH8 0xDE0B6B3A7640000 DUP3 MUL DUP2 PUSH2 0x3A76 JUMPI INVALID JUMPDEST DIV PUSH1 0x6 SSTORE PUSH1 0x7 DUP1 SLOAD PUSH1 0x1 PUSH1 0x1 PUSH1 0xA0 SHL SUB NOT AND PUSH1 0x1 PUSH1 0x1 PUSH1 0xA0 SHL SUB DUP8 AND OR SWAP1 SSTORE PUSH1 0x16 SLOAD PUSH1 0xA SSTORE PUSH1 0xF PUSH1 0x1 ADD SLOAD PUSH8 0xDE0B6B3A7640000 DUP3 MUL DUP2 PUSH2 0x3AB3 JUMPI INVALID JUMPDEST DIV PUSH1 0xB SSTORE POP PUSH1 0xC DUP1 SLOAD PUSH1 0x1 PUSH1 0x1 PUSH1 0xA0 SHL SUB NOT AND PUSH1 0x1 PUSH1 0x1 PUSH1 0xA0 SHL SUB SWAP5 SWAP1 SWAP5 AND SWAP4 SWAP1 SWAP4 OR SWAP1 SWAP3 SSTORE PUSH8 0xFFFFFFFFFFFFFFFF DUP2 DUP2 AND PUSH1 0x13 SSTORE PUSH1 0x40 DUP3 SWAP1 SHR DUP2 AND PUSH1 0x14 SSTORE PUSH1 0x80 SWAP2 DUP3 SHR AND PUSH1 0x15 SSTORE PUSH16 0xFFFFFFFFFFFFFFFFFFFFFFFFFFFFFFFF DUP3 AND PUSH1 0x18 SSTORE SHR PUSH1 0x19 SSTORE POP JUMP JUMPDEST EXTCODESIZE ISZERO ISZERO SWAP1 JUMP JUMPDEST DUP1 SLOAD PUSH1 0x0 SWAP1 DUP2 SWAP1 PUSH1 0xFF AND ISZERO PUSH2 0x3B4F JUMPI PUSH1 0x3 SLOAD PUSH1 0x8 SLOAD PUSH1 0x1 PUSH1 0x1 PUSH1 0xA0 SHL SUB PUSH3 0x10000 SWAP3 DUP4 SWAP1 DIV DUP2 AND SWAP3 SWAP1 SWAP2 DIV AND PUSH2 0x3B6D JUMP JUMPDEST PUSH1 0x8 SLOAD PUSH1 0x3 SLOAD PUSH1 0x1 PUSH1 0x1 PUSH1 0xA0 SHL SUB PUSH3 0x10000 SWAP3 DUP4 SWAP1 DIV DUP2 AND SWAP3 SWAP1 SWAP2 DIV AND JUMPDEST DUP5 SLOAD SWAP2 SWAP4 POP SWAP2 POP PUSH1 0x0 SWAP1 PUSH2 0x3B90 SWAP1 DUP5 SWAP1 DUP5 SWAP1 PUSH2 0x3B8B SWAP1 PUSH1 0xFF AND PUSH2 0x43DD JUMP JUMPDEST PUSH2 0x467D JUMP JUMPDEST SWAP1 POP PUSH1 0x0 PUSH4 0x5F5E100 PUSH2 0x3BAE PUSH1 0x15 SLOAD DUP5 PUSH2 0x4384 SWAP1 SWAP2 SWAP1 PUSH4 0xFFFFFFFF AND JUMP JUMPDEST DUP2 PUSH2 0x3BB5 JUMPI INVALID JUMPDEST DIV SWAP1 POP PUSH1 0x0 PUSH2 0x3BCA DUP4 DUP4 PUSH4 0xFFFFFFFF PUSH2 0x450C AND JUMP JUMPDEST PUSH1 0x1 DUP8 ADD SLOAD PUSH1 0x40 DUP1 MLOAD PUSH4 0x5AF175E3 PUSH1 0xE1 SHL DUP2 MSTORE ADDRESS PUSH1 0x4 DUP3 ADD MSTORE SWAP1 MLOAD SWAP3 SWAP4 POP PUSH1 0x0 SWAP3 PUSH1 0x1 PUSH1 0x1 PUSH1 0xA0 SHL SUB SWAP1 SWAP3 AND SWAP2 PUSH4 0xB5E2EBC6 SWAP2 PUSH1 0x24 DUP1 DUP3 ADD SWAP3 PUSH1 0x20 SWAP3 SWAP1 SWAP2 SWAP1 DUP3 SWAP1 SUB ADD DUP2 DUP7 DUP1 EXTCODESIZE ISZERO DUP1 ISZERO PUSH2 0x3C1D JUMPI PUSH1 0x0 DUP1 REVERT JUMPDEST POP GAS STATICCALL ISZERO DUP1 ISZERO PUSH2 0x3C31 JUMPI RETURNDATASIZE PUSH1 0x0 DUP1 RETURNDATACOPY RETURNDATASIZE PUSH1 0x0 REVERT JUMPDEST POP POP POP POP PUSH1 0x40 MLOAD RETURNDATASIZE PUSH1 0x20 DUP2 LT ISZERO PUSH2 0x3C47 JUMPI PUSH1 0x0 DUP1 REVERT JUMPDEST POP MLOAD SWAP1 POP DUP1 DUP5 LT ISZERO PUSH2 0x3C61 JUMPI POP PUSH1 0x0 SWAP2 POP DUP3 SWAP1 POP DUP1 PUSH2 0x3C72 JUMP JUMPDEST DUP1 DUP3 LT ISZERO PUSH2 0x3C72 JUMPI DUP1 SWAP2 POP DUP2 DUP5 SUB SWAP3 POP JUMPDEST DUP3 ISZERO PUSH2 0x3C9A JUMPI PUSH1 0x1A SLOAD DUP8 SLOAD PUSH2 0x3C9A SWAP2 PUSH1 0x1 PUSH1 0x1 PUSH1 0xA0 SHL SUB SWAP1 DUP2 AND SWAP2 PUSH3 0x10000 SWAP1 DIV AND DUP6 PUSH2 0x4A0E JUMP JUMPDEST PUSH1 0x40 DUP1 MLOAD PUSH1 0xE0 DUP2 ADD DUP3 MSTORE DUP9 SLOAD PUSH1 0xFF DUP1 DUP3 AND DUP4 MSTORE PUSH2 0x100 DUP3 DIV AND ISZERO ISZERO PUSH1 0x20 DUP4 ADD MSTORE PUSH1 0x1 PUSH1 0x1 PUSH1 0xA0 SHL SUB PUSH3 0x10000 SWAP1 SWAP2 DIV DUP2 AND SWAP3 DUP3 ADD SWAP3 SWAP1 SWAP3 MSTORE PUSH1 0x1 DUP1 DUP11 ADD SLOAD DUP4 AND PUSH1 0x60 DUP4 ADD MSTORE PUSH1 0x2 DUP11 ADD SLOAD PUSH1 0x80 DUP4 ADD MSTORE PUSH1 0x3 DUP11 ADD SLOAD PUSH1 0xA0 DUP4 ADD MSTORE PUSH1 0x4 DUP11 ADD SLOAD SWAP1 SWAP3 AND PUSH1 0xC0 DUP3 ADD MSTORE PUSH2 0x3D0B SWAP2 DUP4 SWAP1 PUSH2 0x4915 JUMP JUMPDEST SWAP1 DUP2 SWAP1 SUB SWAP1 DUP2 ISZERO PUSH2 0x3D3A JUMPI PUSH1 0x4 DUP8 ADD SLOAD DUP8 SLOAD PUSH2 0x3D3A SWAP2 PUSH1 0x1 PUSH1 0x1 PUSH1 0xA0 SHL SUB SWAP1 DUP2 AND SWAP2 PUSH3 0x10000 SWAP1 DIV AND DUP5 PUSH2 0x4A0E JUMP JUMPDEST PUSH1 0x4 DUP1 DUP9 ADD SLOAD PUSH1 0x40 DUP1 MLOAD PUSH4 0x5357B83D PUSH1 0xE1 SHL DUP2 MSTORE SWAP3 DUP4 ADD DUP6 SWAP1 MSTORE MLOAD PUSH1 0x1 PUSH1 0x1 PUSH1 0xA0 SHL SUB SWAP1 SWAP2 AND SWAP2 PUSH4 0xA6AF707A SWAP2 PUSH1 0x24 DUP1 DUP4 ADD SWAP3 PUSH1 0x0 SWAP3 SWAP2 SWAP1 DUP3 SWAP1 SUB ADD DUP2 DUP4 DUP8 DUP1 EXTCODESIZE ISZERO DUP1 ISZERO PUSH2 0x3D87 JUMPI PUSH1 0x0 DUP1 REVERT JUMPDEST POP GAS CALL ISZERO DUP1 ISZERO PUSH2 0x3D9B JUMPI RETURNDATASIZE PUSH1 0x0 DUP1 RETURNDATACOPY RETURNDATASIZE PUSH1 0x0 REVERT JUMPDEST POP POP DUP9 SLOAD PUSH1 0x40 DUP1 MLOAD DUP6 DUP2 MSTORE PUSH1 0x20 DUP2 ADD DUP9 SWAP1 MSTORE DUP1 DUP3 ADD DUP8 SWAP1 MSTORE SWAP1 MLOAD PUSH1 0x1 PUSH1 0x1 PUSH1 0xA0 SHL SUB PUSH3 0x10000 SWAP1 SWAP4 DIV SWAP3 SWAP1 SWAP3 AND SWAP4 POP CALLER SWAP3 POP PUSH32 0x642DD4D37DDD32036B9797CEC464C0045DD2118C549066AE6B0F88E32240C2D0 SWAP2 SWAP1 DUP2 SWAP1 SUB PUSH1 0x60 ADD SWAP1 LOG3 POP POP POP POP POP POP POP JUMP JUMPDEST DUP1 PUSH1 0x1 PUSH1 0x1 PUSH1 0xA0 SHL SUB AND PUSH2 0x3E13 PUSH2 0x21A1 JUMP JUMPDEST PUSH1 0x1 PUSH1 0x1 PUSH1 0xA0 SHL SUB AND PUSH32 0x6B0BA40B63FE0A4E591F25C6D723A40B532FF7CF536F3CE5ABC7F6FB99694180 PUSH1 0x40 MLOAD PUSH1 0x40 MLOAD DUP1 SWAP2 SUB SWAP1 LOG3 PUSH1 0x40 DUP1 MLOAD PUSH32 0x6F72672E50686F656E69782E4F726967696E2E73746F72616765000000000000 DUP2 MSTORE SWAP1 MLOAD SWAP1 DUP2 SWAP1 SUB PUSH1 0x1A ADD SWAP1 KECCAK256 SSTORE JUMP JUMPDEST PUSH1 0x0 DUP3 DUP2 MSTORE PUSH1 0x1 PUSH1 0x20 MSTORE PUSH1 0x40 DUP1 DUP3 KECCAK256 SLOAD SWAP1 MLOAD DUP5 SWAP3 PUSH1 0x1 PUSH1 0x1 PUSH1 0xA0 SHL SUB DUP1 DUP7 AND SWAP4 AND SWAP2 PUSH32 0xCDCF7295AB87B59E053B37028611C61F1D3B3CC6269839D1A7840AB00B00A508 SWAP2 SWAP1 LOG4 PUSH1 0x0 SWAP2 DUP3 MSTORE PUSH1 0x1 PUSH1 0x20 MSTORE PUSH1 0x40 SWAP1 SWAP2 KECCAK256 DUP1 SLOAD PUSH1 0x1 PUSH1 0x1 PUSH1 0xA0 SHL SUB NOT AND PUSH1 0x1 PUSH1 0x1 PUSH1 0xA0 SHL SUB SWAP1 SWAP3 AND SWAP2 SWAP1 SWAP2 OR SWAP1 SSTORE JUMP JUMPDEST PUSH1 0x40 DUP1 MLOAD DUP1 DUP3 ADD SWAP2 DUP3 SWAP1 MSTORE PUSH1 0x0 SWAP2 DUP3 SWAP2 PUSH2 0x3F4B SWAP2 PUSH1 0xF SWAP1 PUSH1 0x2 SWAP1 DUP3 DUP5 JUMPDEST DUP2 SLOAD DUP2 MSTORE PUSH1 0x20 ADD SWAP1 PUSH1 0x1 ADD SWAP1 DUP1 DUP4 GT PUSH2 0x3F0E JUMPI POP POP DUP9 MLOAD PUSH1 0x80 DUP11 ADD MLOAD PUSH1 0xA0 DUP12 ADD MLOAD SWAP2 SWAP5 POP PUSH2 0x271C SWAP4 POP DUP10 SWAP3 POP DUP5 SWAP2 PUSH2 0x237F SWAP2 PUSH4 0xFFFFFFFF PUSH2 0x4384 AND JUMP JUMPDEST SWAP1 POP PUSH4 0x5F5E100 PUSH2 0x3F83 PUSH2 0x3F76 PUSH4 0x5F5E100 DUP8 PUSH1 0x80 ADD MLOAD SUB DUP8 PUSH1 0xA0 ADD MLOAD PUSH2 0x4384 SWAP1 SWAP2 SWAP1 PUSH4 0xFFFFFFFF AND JUMP JUMPDEST DUP4 SWAP1 PUSH4 0xFFFFFFFF PUSH2 0x450C AND JUMP JUMPDEST DUP2 PUSH2 0x3F8A JUMPI INVALID JUMPDEST DIV SWAP5 SWAP4 POP POP POP POP JUMP JUMPDEST PUSH1 0x0 DUP1 DUP4 PUSH1 0xC0 ADD MLOAD PUSH1 0x1 PUSH1 0x1 PUSH1 0xA0 SHL SUB AND PUSH4 0x18160DDD PUSH1 0x40 MLOAD DUP2 PUSH4 0xFFFFFFFF AND PUSH1 0xE0 SHL DUP2 MSTORE PUSH1 0x4 ADD PUSH1 0x20 PUSH1 0x40 MLOAD DUP1 DUP4 SUB DUP2 DUP7 DUP1 EXTCODESIZE ISZERO DUP1 ISZERO PUSH2 0x3FD3 JUMPI PUSH1 0x0 DUP1 REVERT JUMPDEST POP GAS STATICCALL ISZERO DUP1 ISZERO PUSH2 0x3FE7 JUMPI RETURNDATASIZE PUSH1 0x0 DUP1 RETURNDATACOPY RETURNDATASIZE PUSH1 0x0 REVERT JUMPDEST POP POP POP POP PUSH1 0x40 MLOAD RETURNDATASIZE PUSH1 0x20 DUP2 LT ISZERO PUSH2 0x3FFD JUMPI PUSH1 0x0 DUP1 REVERT JUMPDEST POP MLOAD SWAP1 POP DUP1 PUSH2 0x4012 JUMPI POP POP PUSH1 0xA0 DUP3 ADD MLOAD PUSH2 0x239D JUMP JUMPDEST DUP1 PUSH2 0x401D DUP6 DUP6 PUSH2 0x22B0 JUMP JUMPDEST DUP2 PUSH2 0x4024 JUMPI INVALID JUMPDEST DIV SWAP2 POP POP PUSH2 0x239D JUMP JUMPDEST DUP1 PUSH1 0x1 PUSH1 0x1 PUSH1 0xA0 SHL SUB AND PUSH2 0x403F PUSH2 0x1701 JUMP JUMPDEST PUSH1 0x1 PUSH1 0x1 PUSH1 0xA0 SHL SUB AND PUSH32 0x8BE0079C531659141344CD1FD0A4F28419497F9722A3DAAFE3B4186F6B6457E0 PUSH1 0x40 MLOAD PUSH1 0x40 MLOAD DUP1 SWAP2 SUB SWAP1 LOG3 PUSH1 0x40 DUP1 MLOAD PUSH25 0x6F72672E50686F656E69782E4F776E65722E73746F72616765 PUSH1 0x38 SHL DUP2 MSTORE DUP2 MLOAD SWAP1 DUP2 SWAP1 SUB PUSH1 0x19 ADD DUP2 KECCAK256 SWAP3 SWAP1 SWAP3 SSTORE PUSH32 0x6F72672E50686F656E69782E6F776E6572457870697265642E73746F72616765 DUP3 MSTORE MLOAD SWAP1 DUP2 SWAP1 SUB PUSH1 0x20 ADD SWAP1 KECCAK256 TIMESTAMP PUSH3 0x76A700 ADD SWAP1 SSTORE JUMP JUMPDEST DUP2 MLOAD PUSH1 0x80 DUP4 ADD MLOAD PUSH1 0x0 SWAP2 DUP3 SWAP2 PUSH2 0x40FA SWAP2 DUP6 SWAP1 PUSH4 0xFFFFFFFF PUSH2 0x44A7 AND JUMP JUMPDEST PUSH1 0x40 DUP1 MLOAD DUP1 DUP3 ADD SWAP2 DUP3 SWAP1 MSTORE SWAP2 SWAP3 POP PUSH1 0x0 SWAP2 PUSH2 0x414C SWAP2 PUSH1 0xF SWAP1 PUSH1 0x2 SWAP1 DUP3 DUP5 JUMPDEST DUP2 SLOAD DUP2 MSTORE PUSH1 0x20 ADD SWAP1 PUSH1 0x1 ADD SWAP1 DUP1 DUP4 GT PUSH2 0x4118 JUMPI POP POP DUP10 MLOAD PUSH1 0x80 DUP12 ADD MLOAD PUSH4 0x5F5E0FF NOT ADD SWAP5 SWAP4 POP SWAP2 POP POP PUSH4 0xFFFFFFFF PUSH2 0x44A7 AND JUMP JUMPDEST SWAP1 POP PUSH2 0x2398 PUSH2 0x4161 DUP4 DUP4 PUSH4 0xFFFFFFFF PUSH2 0x450C AND JUMP JUMPDEST PUSH2 0x4175 DUP5 PUSH4 0x5F5E100 PUSH4 0xFFFFFFFF PUSH2 0x4384 AND JUMP JUMPDEST SWAP1 PUSH4 0xFFFFFFFF PUSH2 0x5543 AND JUMP JUMPDEST PUSH1 0x0 DUP1 SLOAD PUSH1 0x40 MLOAD PUSH4 0x4E59D27 PUSH1 0xE1 SHL DUP2 MSTORE PUSH1 0x20 PUSH1 0x4 DUP3 ADD DUP2 DUP2 MSTORE DUP6 MLOAD PUSH1 0x24 DUP5 ADD MSTORE DUP6 MLOAD PUSH1 0x60 SWAP6 DUP7 SWAP6 PUSH1 0x1 PUSH1 0x1 PUSH1 0xA0 SHL SUB AND SWAP5 PUSH4 0x9CB3A4E SWAP5 DUP10 SWAP5 SWAP4 DUP5 SWAP4 PUSH1 0x44 SWAP1 SWAP4 ADD SWAP3 DUP3 DUP8 ADD SWAP3 SWAP2 SWAP1 SWAP2 MUL SWAP1 DUP2 SWAP1 DUP5 SWAP1 DUP5 SWAP1 JUMPDEST DUP4 DUP2 LT ISZERO PUSH2 0x41EC JUMPI DUP2 DUP2 ADD MLOAD DUP4 DUP3 ADD MSTORE PUSH1 0x20 ADD PUSH2 0x41D4 JUMP JUMPDEST POP POP POP POP SWAP1 POP ADD SWAP3 POP POP POP PUSH1 0x0 PUSH1 0x40 MLOAD DUP1 DUP4 SUB DUP2 DUP7 DUP1 EXTCODESIZE ISZERO DUP1 ISZERO PUSH2 0x420F JUMPI PUSH1 0x0 DUP1 REVERT JUMPDEST POP GAS STATICCALL ISZERO DUP1 ISZERO PUSH2 0x4223 JUMPI RETURNDATASIZE PUSH1 0x0 DUP1 RETURNDATACOPY RETURNDATASIZE PUSH1 0x0 REVERT JUMPDEST POP POP POP POP PUSH1 0x40 MLOAD RETURNDATASIZE PUSH1 0x0 DUP3 RETURNDATACOPY PUSH1 0x1F RETURNDATASIZE SWAP1 DUP2 ADD PUSH1 0x1F NOT AND DUP3 ADD PUSH1 0x40 MSTORE PUSH1 0x20 DUP2 LT ISZERO PUSH2 0x424C JUMPI PUSH1 0x0 DUP1 REVERT JUMPDEST DUP2 ADD SWAP1 DUP1 DUP1 MLOAD PUSH1 0x40 MLOAD SWAP4 SWAP3 SWAP2 SWAP1 DUP5 PUSH1 0x1 PUSH1 0x20 SHL DUP3 GT ISZERO PUSH2 0x426B JUMPI PUSH1 0x0 DUP1 REVERT JUMPDEST SWAP1 DUP4 ADD SWAP1 PUSH1 0x20 DUP3 ADD DUP6 DUP2 GT ISZERO PUSH2 0x4280 JUMPI PUSH1 0x0 DUP1 REVERT JUMPDEST DUP3 MLOAD DUP7 PUSH1 0x20 DUP3 MUL DUP4 ADD GT PUSH1 0x1 PUSH1 0x20 SHL DUP3 GT OR ISZERO PUSH2 0x429C JUMPI PUSH1 0x0 DUP1 REVERT JUMPDEST DUP3 MSTORE POP DUP2 MLOAD PUSH1 0x20 SWAP2 DUP3 ADD SWAP3 DUP3 ADD SWAP2 MUL DUP1 DUP4 DUP4 PUSH1 0x0 JUMPDEST DUP4 DUP2 LT ISZERO PUSH2 0x42C9 JUMPI DUP2 DUP2 ADD MLOAD DUP4 DUP3 ADD MSTORE PUSH1 0x20 ADD PUSH2 0x42B1 JUMP JUMPDEST POP POP POP POP SWAP2 SWAP1 SWAP2 ADD PUSH1 0x40 MSTORE POP POP DUP6 MLOAD SWAP3 SWAP4 POP PUSH1 0x0 SWAP2 POP POP JUMPDEST DUP2 DUP2 LT ISZERO PUSH2 0x437B JUMPI PUSH1 0x64 DUP4 DUP3 DUP2 MLOAD DUP2 LT PUSH2 0x42F7 JUMPI INVALID JUMPDEST PUSH1 0x20 MUL PUSH1 0x20 ADD ADD MLOAD LT ISZERO DUP1 ISZERO PUSH2 0x432D JUMPI POP PUSH13 0xC9F2C9CD04674EDEA40000000 DUP4 DUP3 DUP2 MLOAD DUP2 LT PUSH2 0x4322 JUMPI INVALID JUMPDEST PUSH1 0x20 MUL PUSH1 0x20 ADD ADD MLOAD GT ISZERO JUMPDEST PUSH2 0x4373 JUMPI PUSH1 0x40 DUP1 MLOAD PUSH3 0x461BCD PUSH1 0xE5 SHL DUP2 MSTORE PUSH1 0x20 PUSH1 0x4 DUP3 ADD MSTORE PUSH1 0x12 PUSH1 0x24 DUP3 ADD MSTORE PUSH18 0x37B930B1B63290383934B1B29032B93937B9 PUSH1 0x71 SHL PUSH1 0x44 DUP3 ADD MSTORE SWAP1 MLOAD SWAP1 DUP2 SWAP1 SUB PUSH1 0x64 ADD SWAP1 REVERT JUMPDEST PUSH1 0x1 ADD PUSH2 0x42E1 JUMP JUMPDEST POP SWAP1 SWAP4 SWAP3 POP POP POP JUMP JUMPDEST PUSH1 0x0 DUP3 PUSH2 0x4393 JUMPI POP PUSH1 0x0 PUSH2 0x239D JUMP JUMPDEST DUP3 DUP3 MUL DUP3 DUP5 DUP3 DUP2 PUSH2 0x43A0 JUMPI INVALID JUMPDEST DIV EQ PUSH2 0x10B4 JUMPI PUSH1 0x40 MLOAD PUSH3 0x461BCD PUSH1 0xE5 SHL DUP2 MSTORE PUSH1 0x4 ADD DUP1 DUP1 PUSH1 0x20 ADD DUP3 DUP2 SUB DUP3 MSTORE PUSH1 0x21 DUP2 MSTORE PUSH1 0x20 ADD DUP1 PUSH2 0x5A9C PUSH1 0x21 SWAP2 CODECOPY PUSH1 0x40 ADD SWAP2 POP POP PUSH1 0x40 MLOAD DUP1 SWAP2 SUB SWAP1 REVERT JUMPDEST PUSH1 0x0 DUP1 PUSH1 0xFF DUP4 AND ISZERO PUSH2 0x4400 JUMPI PUSH1 0x3 SLOAD PUSH3 0x10000 SWAP1 DIV PUSH1 0x1 PUSH1 0x1 PUSH1 0xA0 SHL SUB AND PUSH2 0x4413 JUMP JUMPDEST PUSH1 0x8 SLOAD PUSH3 0x10000 SWAP1 DIV PUSH1 0x1 PUSH1 0x1 PUSH1 0xA0 SHL SUB AND JUMPDEST SWAP1 POP PUSH1 0x1 PUSH1 0x1 PUSH1 0xA0 SHL SUB DUP2 AND PUSH2 0x442C JUMPI SELFBALANCE SWAP2 POP POP PUSH2 0xE64 JUMP JUMPDEST PUSH1 0x40 DUP1 MLOAD PUSH4 0x70A08231 PUSH1 0xE0 SHL DUP2 MSTORE ADDRESS PUSH1 0x4 DUP3 ADD MSTORE SWAP1 MLOAD PUSH1 0x1 PUSH1 0x1 PUSH1 0xA0 SHL SUB DUP4 AND SWAP2 PUSH4 0x70A08231 SWAP2 PUSH1 0x24 DUP1 DUP4 ADD SWAP3 PUSH1 0x20 SWAP3 SWAP2 SWAP1 DUP3 SWAP1 SUB ADD DUP2 DUP7 DUP1 EXTCODESIZE ISZERO DUP1 ISZERO PUSH2 0x4472 JUMPI PUSH1 0x0 DUP1 REVERT JUMPDEST POP GAS STATICCALL ISZERO DUP1 ISZERO PUSH2 0x4486 JUMPI RETURNDATASIZE PUSH1 0x0 DUP1 RETURNDATACOPY RETURNDATASIZE PUSH1 0x0 REVERT JUMPDEST POP POP POP POP PUSH1 0x40 MLOAD RETURNDATASIZE PUSH1 0x20 DUP2 LT ISZERO PUSH2 0x449C JUMPI PUSH1 0x0 DUP1 REVERT JUMPDEST POP MLOAD SWAP2 POP PUSH2 0xE64 SWAP1 POP JUMP JUMPDEST PUSH1 0x0 PUSH1 0xFF DUP3 AND ISZERO PUSH2 0x44EB JUMPI PUSH2 0x44E6 PUSH2 0x44D8 PUSH2 0x44CA DUP6 PUSH1 0x0 JUMPDEST PUSH1 0x20 MUL ADD MLOAD DUP8 PUSH2 0x4384 JUMP JUMPDEST PUSH8 0xDE0B6B3A7640000 PUSH2 0x4384 JUMP JUMPDEST DUP5 PUSH1 0x1 JUMPDEST PUSH1 0x20 MUL ADD MLOAD PUSH2 0x5543 JUMP JUMPDEST PUSH2 0x4504 JUMP JUMPDEST PUSH2 0x4504 PUSH2 0x44FC PUSH2 0x44CA DUP6 PUSH1 0x1 PUSH2 0x44BF JUMP JUMPDEST DUP5 PUSH1 0x0 PUSH2 0x44DC JUMP JUMPDEST SWAP5 SWAP4 POP POP POP POP JUMP JUMPDEST PUSH1 0x0 PUSH2 0x10B4 DUP4 DUP4 PUSH1 0x40 MLOAD DUP1 PUSH1 0x40 ADD PUSH1 0x40 MSTORE DUP1 PUSH1 0x1E DUP2 MSTORE PUSH1 0x20 ADD PUSH32 0x536166654D6174683A207375627472616374696F6E206F766572666C6F770000 DUP2 MSTORE POP PUSH2 0x5585 JUMP JUMPDEST PUSH1 0x0 PUSH1 0x1 PUSH1 0x1 PUSH1 0xA0 SHL SUB DUP4 AND PUSH2 0x4566 JUMPI CALLVALUE SWAP2 POP PUSH2 0x458A JUMP JUMPDEST DUP2 ISZERO PUSH2 0x458A JUMPI DUP3 PUSH2 0x4588 PUSH1 0x1 PUSH1 0x1 PUSH1 0xA0 SHL SUB DUP3 AND CALLER ADDRESS DUP7 PUSH4 0xFFFFFFFF PUSH2 0x561C AND JUMP JUMPDEST POP JUMPDEST POP SWAP2 SWAP1 POP JUMP JUMPDEST PUSH1 0x0 DUP1 PUSH4 0x5F5E100 PUSH2 0x45A8 DUP5 DUP8 PUSH4 0xFFFFFFFF PUSH2 0x4384 AND JUMP JUMPDEST DUP2 PUSH2 0x45AF JUMPI INVALID JUMPDEST DIV SWAP1 POP DUP1 ISZERO PUSH2 0x45CF JUMPI PUSH1 0x1A SLOAD PUSH2 0x45CF SWAP1 PUSH1 0x1 PUSH1 0x1 PUSH1 0xA0 SHL SUB AND DUP6 DUP4 PUSH2 0x4A0E JUMP JUMPDEST PUSH2 0x45DF DUP4 DUP3 PUSH4 0xFFFFFFFF PUSH2 0x450C AND JUMP JUMPDEST SWAP6 SWAP5 POP POP POP POP POP JUMP JUMPDEST PUSH1 0x0 DUP3 DUP3 ADD DUP4 DUP2 LT ISZERO PUSH2 0x10B4 JUMPI PUSH1 0x40 DUP1 MLOAD PUSH3 0x461BCD PUSH1 0xE5 SHL DUP2 MSTORE PUSH1 0x20 PUSH1 0x4 DUP3 ADD MSTORE PUSH1 0x1B PUSH1 0x24 DUP3 ADD MSTORE PUSH32 0x536166654D6174683A206164646974696F6E206F766572666C6F770000000000 PUSH1 0x44 DUP3 ADD MSTORE SWAP1 MLOAD SWAP1 DUP2 SWAP1 SUB PUSH1 0x64 ADD SWAP1 REVERT JUMPDEST PUSH1 0x0 PUSH1 0xFF DUP3 AND ISZERO PUSH2 0x466C JUMPI PUSH2 0x44E6 PUSH2 0x44FC PUSH2 0x465E DUP6 PUSH1 0x1 PUSH2 0x44BF JUMP JUMPDEST PUSH8 0xDE0B6B3A7640000 PUSH2 0x5543 JUMP JUMPDEST PUSH2 0x4504 PUSH2 0x44D8 PUSH2 0x465E DUP6 PUSH1 0x0 PUSH2 0x44BF JUMP JUMPDEST PUSH1 0xD SLOAD PUSH1 0x40 DUP1 MLOAD PUSH1 0x1 PUSH1 0x1 PUSH1 0xA0 SHL SUB SWAP3 DUP4 AND PUSH1 0x24 DUP3 ADD MSTORE DUP6 DUP4 AND PUSH1 0x44 DUP3 ADD MSTORE SWAP2 DUP5 AND PUSH1 0x64 DUP4 ADD MSTORE PUSH1 0x84 DUP1 DUP4 ADD DUP5 SWAP1 MSTORE DUP2 MLOAD DUP1 DUP5 SUB SWAP1 SWAP2 ADD DUP2 MSTORE PUSH1 0xA4 SWAP1 SWAP3 ADD SWAP1 MSTORE PUSH1 0x20 DUP2 ADD DUP1 MLOAD PUSH1 0x1 PUSH1 0x1 PUSH1 0xE0 SHL SUB AND PUSH4 0x152CF143 PUSH1 0xE3 SHL OR SWAP1 MSTORE PUSH1 0x0 SWAP1 PUSH2 0x46E3 SWAP1 PUSH2 0xFF1 JUMP JUMPDEST DUP1 PUSH1 0x20 ADD SWAP1 MLOAD PUSH1 0x20 DUP2 LT ISZERO PUSH2 0x46F7 JUMPI PUSH1 0x0 DUP1 REVERT JUMPDEST POP MLOAD SWAP5 SWAP4 POP POP POP POP JUMP JUMPDEST PUSH1 0x60 PUSH2 0x4756 DUP3 PUSH1 0x40 MLOAD DUP1 PUSH1 0x40 ADD PUSH1 0x40 MSTORE DUP1 PUSH1 0x20 DUP2 MSTORE PUSH1 0x20 ADD PUSH32 0x5361666545524332303A206C6F772D6C6576656C2063616C6C206661696C6564 DUP2 MSTORE POP DUP6 PUSH1 0x1 PUSH1 0x1 PUSH1 0xA0 SHL SUB AND PUSH2 0x5676 SWAP1 SWAP3 SWAP2 SWAP1 PUSH4 0xFFFFFFFF AND JUMP JUMPDEST DUP1 MLOAD SWAP1 SWAP2 POP ISZERO PUSH2 0x2A05 JUMPI DUP1 DUP1 PUSH1 0x20 ADD SWAP1 MLOAD PUSH1 0x20 DUP2 LT ISZERO PUSH2 0x4775 JUMPI PUSH1 0x0 DUP1 REVERT JUMPDEST POP MLOAD PUSH2 0x2A05 JUMPI PUSH1 0x40 MLOAD PUSH3 0x461BCD PUSH1 0xE5 SHL DUP2 MSTORE PUSH1 0x4 ADD DUP1 DUP1 PUSH1 0x20 ADD DUP3 DUP2 SUB DUP3 MSTORE PUSH1 0x2A DUP2 MSTORE PUSH1 0x20 ADD DUP1 PUSH2 0x5B6F PUSH1 0x2A SWAP2 CODECOPY PUSH1 0x40 ADD SWAP2 POP POP PUSH1 0x40 MLOAD DUP1 SWAP2 SUB SWAP1 REVERT JUMPDEST PUSH1 0x0 DUP1 DUP1 PUSH1 0xFF DUP7 AND ISZERO PUSH2 0x47E1 JUMPI PUSH1 0x3 SLOAD PUSH1 0x8 SLOAD PUSH1 0x1 PUSH1 0x1 PUSH1 0xA0 SHL SUB PUSH3 0x10000 SWAP3 DUP4 SWAP1 DIV DUP2 AND SWAP3 SWAP1 SWAP2 DIV AND PUSH2 0x47FF JUMP JUMPDEST PUSH1 0x8 SLOAD PUSH1 0x3 SLOAD PUSH1 0x1 PUSH1 0x1 PUSH1 0xA0 SHL SUB PUSH3 0x10000 SWAP3 DUP4 SWAP1 DIV DUP2 AND SWAP3 SWAP1 SWAP2 DIV AND JUMPDEST SWAP2 POP SWAP2 POP PUSH2 0x480E DUP3 DUP3 DUP8 PUSH2 0x467D JUMP JUMPDEST SWAP5 POP PUSH2 0x4820 DUP6 DUP6 PUSH4 0xFFFFFFFF PUSH2 0x450C AND JUMP JUMPDEST SWAP7 SWAP6 POP POP POP POP POP POP JUMP JUMPDEST PUSH1 0x0 DUP1 DUP1 PUSH1 0xFF DUP7 AND ISZERO PUSH2 0x4859 JUMPI PUSH1 0x3 SLOAD PUSH1 0x8 SLOAD PUSH1 0x1 PUSH1 0x1 PUSH1 0xA0 SHL SUB PUSH3 0x10000 SWAP3 DUP4 SWAP1 DIV DUP2 AND SWAP3 SWAP1 SWAP2 DIV AND PUSH2 0x4877 JUMP JUMPDEST PUSH1 0x8 SLOAD PUSH1 0x3 SLOAD PUSH1 0x1 PUSH1 0x1 PUSH1 0xA0 SHL SUB PUSH3 0x10000 SWAP3 DUP4 SWAP1 DIV DUP2 AND SWAP3 SWAP1 SWAP2 DIV AND JUMPDEST PUSH1 0xD SLOAD PUSH1 0x40 DUP1 MLOAD PUSH1 0x1 PUSH1 0x1 PUSH1 0xA0 SHL SUB SWAP3 DUP4 AND PUSH1 0x24 DUP3 ADD MSTORE DUP3 DUP6 AND PUSH1 0x44 DUP3 ADD MSTORE SWAP2 DUP4 AND PUSH1 0x64 DUP4 ADD MSTORE PUSH1 0x84 DUP1 DUP4 ADD DUP10 SWAP1 MSTORE DUP2 MLOAD DUP1 DUP5 SUB SWAP1 SWAP2 ADD DUP2 MSTORE PUSH1 0xA4 SWAP1 SWAP3 ADD SWAP1 MSTORE PUSH1 0x20 DUP2 ADD DUP1 MLOAD PUSH1 0x1 PUSH1 0x1 PUSH1 0xE0 SHL SUB AND PUSH4 0xA0A8305 PUSH1 0xE1 SHL OR SWAP1 MSTORE SWAP2 SWAP4 POP SWAP2 POP PUSH1 0x0 SWAP1 PUSH2 0x48E2 SWAP1 PUSH2 0xFF1 JUMP JUMPDEST DUP1 PUSH1 0x20 ADD SWAP1 MLOAD PUSH1 0x40 DUP2 LT ISZERO PUSH2 0x48F6 JUMPI PUSH1 0x0 DUP1 REVERT JUMPDEST POP MLOAD SWAP1 POP PUSH2 0x490A DUP7 DUP3 PUSH4 0xFFFFFFFF PUSH2 0x450C AND JUMP JUMPDEST SWAP8 SWAP7 POP POP POP POP POP POP POP JUMP JUMPDEST PUSH1 0x40 DUP4 ADD MLOAD PUSH1 0x1 PUSH1 0x1 PUSH1 0xA0 SHL SUB AND PUSH2 0x499B JUMPI DUP3 PUSH1 0x60 ADD MLOAD PUSH1 0x1 PUSH1 0x1 PUSH1 0xA0 SHL SUB AND PUSH4 0xBA0B3623 DUP4 DUP5 DUP5 PUSH1 0x40 MLOAD DUP5 PUSH4 0xFFFFFFFF AND PUSH1 0xE0 SHL DUP2 MSTORE PUSH1 0x4 ADD DUP1 DUP4 DUP2 MSTORE PUSH1 0x20 ADD DUP3 ISZERO ISZERO ISZERO ISZERO DUP2 MSTORE PUSH1 0x20 ADD SWAP3 POP POP POP PUSH1 0x0 PUSH1 0x40 MLOAD DUP1 DUP4 SUB DUP2 DUP6 DUP9 DUP1 EXTCODESIZE ISZERO DUP1 ISZERO PUSH2 0x497D JUMPI PUSH1 0x0 DUP1 REVERT JUMPDEST POP GAS CALL ISZERO DUP1 ISZERO PUSH2 0x4991 JUMPI RETURNDATASIZE PUSH1 0x0 DUP1 RETURNDATACOPY RETURNDATASIZE PUSH1 0x0 REVERT JUMPDEST POP POP POP POP POP PUSH2 0x2A05 JUMP JUMPDEST DUP3 PUSH1 0x60 ADD MLOAD PUSH1 0x1 PUSH1 0x1 PUSH1 0xA0 SHL SUB AND PUSH4 0xBA0B3623 DUP4 DUP4 PUSH1 0x40 MLOAD DUP4 PUSH4 0xFFFFFFFF AND PUSH1 0xE0 SHL DUP2 MSTORE PUSH1 0x4 ADD DUP1 DUP4 DUP2 MSTORE PUSH1 0x20 ADD DUP3 ISZERO ISZERO ISZERO ISZERO DUP2 MSTORE PUSH1 0x20 ADD SWAP3 POP POP POP PUSH1 0x0 PUSH1 0x40 MLOAD DUP1 DUP4 SUB DUP2 PUSH1 0x0 DUP8 DUP1 EXTCODESIZE ISZERO DUP1 ISZERO PUSH2 0x49F1 JUMPI PUSH1 0x0 DUP1 REVERT JUMPDEST POP GAS CALL ISZERO DUP1 ISZERO PUSH2 0x4A05 JUMPI RETURNDATASIZE PUSH1 0x0 DUP1 RETURNDATACOPY RETURNDATASIZE PUSH1 0x0 REVERT JUMPDEST POP POP POP POP POP POP POP JUMP JUMPDEST PUSH1 0x1 PUSH1 0x1 PUSH1 0xA0 SHL SUB DUP3 AND PUSH2 0x4A58 JUMPI PUSH1 0x40 MLOAD PUSH1 0x1 PUSH1 0x1 PUSH1 0xA0 SHL SUB DUP5 AND SWAP1 DUP3 ISZERO PUSH2 0x8FC MUL SWAP1 DUP4 SWAP1 PUSH1 0x0 DUP2 DUP2 DUP2 DUP6 DUP9 DUP9 CALL SWAP4 POP POP POP POP ISZERO DUP1 ISZERO PUSH2 0x4A52 JUMPI RETURNDATASIZE PUSH1 0x0 DUP1 RETURNDATACOPY RETURNDATASIZE PUSH1 0x0 REVERT JUMPDEST POP PUSH2 0x4A75 JUMP JUMPDEST DUP2 PUSH2 0x4A73 PUSH1 0x1 PUSH1 0x1 PUSH1 0xA0 SHL SUB DUP3 AND DUP6 DUP5 PUSH4 0xFFFFFFFF PUSH2 0x5685 AND JUMP JUMPDEST POP JUMPDEST DUP2 PUSH1 0x1 PUSH1 0x1 PUSH1 0xA0 SHL SUB AND DUP4 PUSH1 0x1 PUSH1 0x1 PUSH1 0xA0 SHL SUB AND PUSH32 0xD12200EFA34901B99367694174C3B0D32C99585FDF37C7C26892136DDD0836D9 DUP4 PUSH1 0x40 MLOAD DUP1 DUP3 DUP2 MSTORE PUSH1 0x20 ADD SWAP2 POP POP PUSH1 0x40 MLOAD DUP1 SWAP2 SUB SWAP1 LOG3 POP POP POP JUMP JUMPDEST SWAP1 SSTORE JUMP JUMPDEST PUSH1 0x0 DUP1 DUP3 PUSH1 0x60 ADD MLOAD PUSH1 0x1 PUSH1 0x1 PUSH1 0xA0 SHL SUB AND PUSH4 0xB5E2EBC6 ADDRESS PUSH1 0x40 MLOAD DUP3 PUSH4 0xFFFFFFFF AND PUSH1 0xE0 SHL DUP2 MSTORE PUSH1 0x4 ADD DUP1 DUP3 PUSH1 0x1 PUSH1 0x1 PUSH1 0xA0 SHL SUB AND PUSH1 0x1 PUSH1 0x1 PUSH1 0xA0 SHL SUB AND DUP2 MSTORE PUSH1 0x20 ADD SWAP2 POP POP PUSH1 0x20 PUSH1 0x40 MLOAD DUP1 DUP4 SUB DUP2 DUP7 DUP1 EXTCODESIZE ISZERO DUP1 ISZERO PUSH2 0x4B26 JUMPI PUSH1 0x0 DUP1 REVERT JUMPDEST POP GAS STATICCALL ISZERO DUP1 ISZERO PUSH2 0x4B3A JUMPI RETURNDATASIZE PUSH1 0x0 DUP1 RETURNDATACOPY RETURNDATASIZE PUSH1 0x0 REVERT JUMPDEST POP POP POP POP PUSH1 0x40 MLOAD RETURNDATASIZE PUSH1 0x20 DUP2 LT ISZERO PUSH2 0x4B50 JUMPI PUSH1 0x0 DUP1 REVERT JUMPDEST POP MLOAD SWAP1 POP DUP1 ISZERO PUSH2 0x4BE1 JUMPI PUSH1 0x80 DUP4 ADD MLOAD PUSH1 0x40 DUP1 MLOAD DUP1 DUP3 ADD SWAP2 DUP3 SWAP1 MSTORE PUSH5 0x2540BE400 SWAP3 DUP5 SWAP3 SWAP1 SWAP2 PUSH2 0x4BC1 SWAP2 PUSH4 0x5F5E0FF NOT DUP5 ADD SWAP2 PUSH2 0x4BB5 SWAP2 PUSH1 0xF SWAP1 PUSH1 0x2 SWAP1 DUP3 DUP5 JUMPDEST DUP2 SLOAD DUP2 MSTORE PUSH1 0x20 ADD SWAP1 PUSH1 0x1 ADD SWAP1 DUP1 DUP4 GT PUSH2 0x4B8F JUMPI POP POP DUP13 MLOAD SWAP3 POP PUSH2 0x237F SWAP2 POP DUP3 SWAP1 POP PUSH2 0x43DD JUMP JUMPDEST SWAP1 PUSH4 0xFFFFFFFF PUSH2 0x4384 AND JUMP JUMPDEST DUP2 PUSH2 0x4BC8 JUMPI INVALID JUMPDEST DIV DUP2 PUSH2 0x4BD0 JUMPI INVALID JUMPDEST DIV DUP2 PUSH2 0x4BD8 JUMPI INVALID JUMPDEST DIV SWAP2 POP POP PUSH2 0xE64 JUMP JUMPDEST PUSH4 0x5F5E100 SWAP2 POP POP PUSH2 0xE64 JUMP JUMPDEST PUSH1 0x4 DUP1 DUP3 ADD SLOAD PUSH1 0x40 DUP1 MLOAD PUSH4 0x18160DDD PUSH1 0xE0 SHL DUP2 MSTORE SWAP1 MLOAD PUSH1 0x0 SWAP4 DUP5 SWAP4 PUSH1 0x1 PUSH1 0x1 PUSH1 0xA0 SHL SUB AND SWAP3 PUSH4 0x18160DDD SWAP3 DUP2 DUP4 ADD SWAP3 PUSH1 0x20 SWAP3 DUP3 SWAP1 SUB ADD DUP2 DUP7 DUP1 EXTCODESIZE ISZERO DUP1 ISZERO PUSH2 0x4C34 JUMPI PUSH1 0x0 DUP1 REVERT JUMPDEST POP GAS STATICCALL ISZERO DUP1 ISZERO PUSH2 0x4C48 JUMPI RETURNDATASIZE PUSH1 0x0 DUP1 RETURNDATACOPY RETURNDATASIZE PUSH1 0x0 REVERT JUMPDEST POP POP POP POP PUSH1 0x40 MLOAD RETURNDATASIZE PUSH1 0x20 DUP2 LT ISZERO PUSH2 0x4C5E JUMPI PUSH1 0x0 DUP1 REVERT JUMPDEST POP MLOAD PUSH2 0x4C6F JUMPI POP PUSH1 0x0 SWAP1 POP DUP1 PUSH2 0x5078 JUMP JUMPDEST PUSH1 0x1 DUP4 ADD SLOAD PUSH1 0x40 DUP1 MLOAD PUSH4 0x7C3A00FD PUSH1 0xE0 SHL DUP2 MSTORE SWAP1 MLOAD PUSH1 0x0 SWAP3 PUSH1 0x1 PUSH1 0x1 PUSH1 0xA0 SHL SUB AND SWAP2 PUSH4 0x7C3A00FD SWAP2 PUSH1 0x4 DUP1 DUP4 ADD SWAP3 PUSH1 0x20 SWAP3 SWAP2 SWAP1 DUP3 SWAP1 SUB ADD DUP2 DUP7 DUP1 EXTCODESIZE ISZERO DUP1 ISZERO PUSH2 0x4CB6 JUMPI PUSH1 0x0 DUP1 REVERT JUMPDEST POP GAS STATICCALL ISZERO DUP1 ISZERO PUSH2 0x4CCA JUMPI RETURNDATASIZE PUSH1 0x0 DUP1 RETURNDATACOPY RETURNDATASIZE PUSH1 0x0 REVERT JUMPDEST POP POP POP POP PUSH1 0x40 MLOAD RETURNDATASIZE PUSH1 0x20 DUP2 LT ISZERO PUSH2 0x4CE0 JUMPI PUSH1 0x0 DUP1 REVERT JUMPDEST POP MLOAD PUSH1 0x40 DUP1 MLOAD DUP1 DUP3 ADD SWAP2 DUP3 SWAP1 MSTORE PUSH8 0xFFFFFFFFFFFFFFFF SWAP1 SWAP3 AND SWAP3 POP PUSH1 0x0 SWAP2 PUSH2 0x4DBE SWAP2 PUSH1 0x11 SWAP1 PUSH1 0x2 SWAP1 DUP3 DUP5 JUMPDEST DUP2 SLOAD DUP2 MSTORE PUSH1 0x20 ADD SWAP1 PUSH1 0x1 ADD SWAP1 DUP1 DUP4 GT PUSH2 0x4D0B JUMPI POP POP DUP10 SLOAD PUSH1 0x40 DUP1 MLOAD PUSH1 0xE0 DUP2 ADD DUP3 MSTORE PUSH1 0xFF DUP1 DUP5 AND DUP1 DUP4 MSTORE PUSH2 0x100 DUP6 DIV SWAP1 SWAP2 AND ISZERO ISZERO PUSH1 0x20 DUP4 ADD MSTORE PUSH3 0x10000 SWAP1 SWAP4 DIV PUSH1 0x1 PUSH1 0x1 PUSH1 0xA0 SHL SUB SWAP1 DUP2 AND DUP3 DUP5 ADD MSTORE PUSH1 0x1 DUP15 ADD SLOAD DUP2 AND PUSH1 0x60 DUP4 ADD MSTORE PUSH1 0x2 DUP1 DUP16 ADD SLOAD PUSH1 0x80 DUP5 ADD MSTORE PUSH1 0x3 DUP16 ADD SLOAD PUSH1 0xA0 DUP5 ADD MSTORE PUSH1 0x4 DUP16 ADD SLOAD SWAP1 SWAP2 AND PUSH1 0xC0 DUP4 ADD MSTORE DUP3 MLOAD DUP1 DUP5 ADD SWAP4 DUP5 SWAP1 MSTORE SWAP4 SWAP7 POP PUSH2 0x271C SWAP6 POP SWAP1 SWAP4 POP PUSH1 0x11 SWAP2 DUP3 DUP5 JUMPDEST DUP2 SLOAD DUP2 MSTORE PUSH1 0x20 ADD SWAP1 PUSH1 0x1 ADD SWAP1 DUP1 DUP4 GT PUSH2 0x4DA1 JUMPI POP POP POP POP POP PUSH2 0x22B0 JUMP JUMPDEST PUSH1 0x15 SLOAD DUP7 SLOAD SWAP2 SWAP3 POP PUSH2 0x4E02 SWAP2 PUSH1 0xFF AND ISZERO PUSH2 0x4DE9 JUMPI PUSH1 0x3 SLOAD PUSH3 0x10000 SWAP1 DIV PUSH1 0x1 PUSH1 0x1 PUSH1 0xA0 SHL SUB AND PUSH2 0x4DFC JUMP JUMPDEST PUSH1 0x8 SLOAD PUSH3 0x10000 SWAP1 DIV PUSH1 0x1 PUSH1 0x1 PUSH1 0xA0 SHL SUB AND JUMPDEST DUP4 PUSH2 0x4590 JUMP JUMPDEST PUSH1 0x40 DUP1 MLOAD DUP1 DUP3 ADD SWAP2 DUP3 SWAP1 MSTORE SWAP2 SWAP3 POP PUSH1 0x0 SWAP2 PUSH8 0xDE0B6B3A7640000 SWAP2 PUSH2 0x4E54 SWAP2 SWAP1 PUSH1 0x11 SWAP1 PUSH1 0x2 SWAP1 DUP3 DUP5 JUMPDEST DUP2 SLOAD DUP2 MSTORE PUSH1 0x20 ADD SWAP1 PUSH1 0x1 ADD SWAP1 DUP1 DUP4 GT PUSH2 0x4E2B JUMPI POP POP DUP12 SLOAD PUSH1 0xFF AND SWAP3 POP PUSH2 0x237F SWAP2 POP DUP3 SWAP1 POP PUSH2 0x43DD JUMP JUMPDEST DUP2 PUSH2 0x4E5B JUMPI INVALID JUMPDEST PUSH1 0x1 DUP9 ADD SLOAD PUSH1 0x40 DUP1 MLOAD PUSH4 0x5AF175E3 PUSH1 0xE1 SHL DUP2 MSTORE ADDRESS PUSH1 0x4 DUP3 ADD MSTORE SWAP1 MLOAD SWAP4 SWAP1 SWAP3 DIV SWAP4 POP PUSH1 0x0 SWAP3 PUSH1 0x1 PUSH1 0x1 PUSH1 0xA0 SHL SUB SWAP1 SWAP2 AND SWAP2 PUSH4 0xB5E2EBC6 SWAP2 PUSH1 0x24 DUP1 DUP4 ADD SWAP3 PUSH1 0x20 SWAP3 SWAP2 SWAP1 DUP3 SWAP1 SUB ADD DUP2 DUP7 DUP1 EXTCODESIZE ISZERO DUP1 ISZERO PUSH2 0x4EB0 JUMPI PUSH1 0x0 DUP1 REVERT JUMPDEST POP GAS STATICCALL ISZERO DUP1 ISZERO PUSH2 0x4EC4 JUMPI RETURNDATASIZE PUSH1 0x0 DUP1 RETURNDATACOPY RETURNDATASIZE PUSH1 0x0 REVERT JUMPDEST POP POP POP POP PUSH1 0x40 MLOAD RETURNDATASIZE PUSH1 0x20 DUP2 LT ISZERO PUSH2 0x4EDA JUMPI PUSH1 0x0 DUP1 REVERT JUMPDEST POP MLOAD PUSH1 0x16 SLOAD SWAP1 SWAP2 POP PUSH1 0x0 PUSH2 0x4F05 PUSH4 0x5F5E100 PUSH2 0x4BB5 PUSH4 0x5F5E0FF NOT DUP6 ADD DUP2 DUP9 DUP9 PUSH4 0xFFFFFFFF PUSH2 0x450C AND JUMP JUMPDEST SWAP1 POP PUSH4 0xBEBC200 DUP7 MUL DUP3 DUP8 MUL SUB PUSH7 0x2386F26FC10000 ADD DUP2 DUP2 PUSH2 0x4F23 JUMPI INVALID JUMPDEST PUSH1 0x1 DUP12 ADD SLOAD PUSH1 0x40 DUP1 MLOAD PUSH4 0x147AFA81 PUSH1 0xE1 SHL DUP2 MSTORE ADDRESS PUSH1 0x4 DUP3 ADD MSTORE SWAP1 MLOAD SWAP4 SWAP1 SWAP3 DIV SWAP4 POP PUSH1 0x0 SWAP3 PUSH1 0x1 PUSH1 0x1 PUSH1 0xA0 SHL SUB SWAP1 SWAP2 AND SWAP2 PUSH4 0x28F5F502 SWAP2 PUSH1 0x24 DUP1 DUP4 ADD SWAP3 PUSH1 0x20 SWAP3 SWAP2 SWAP1 DUP3 SWAP1 SUB ADD DUP2 DUP7 DUP1 EXTCODESIZE ISZERO DUP1 ISZERO PUSH2 0x4F78 JUMPI PUSH1 0x0 DUP1 REVERT JUMPDEST POP GAS STATICCALL ISZERO DUP1 ISZERO PUSH2 0x4F8C JUMPI RETURNDATASIZE PUSH1 0x0 DUP1 RETURNDATACOPY RETURNDATASIZE PUSH1 0x0 REVERT JUMPDEST POP POP POP POP PUSH1 0x40 MLOAD RETURNDATASIZE PUSH1 0x20 DUP2 LT ISZERO PUSH2 0x4FA2 JUMPI PUSH1 0x0 DUP1 REVERT JUMPDEST POP MLOAD SWAP1 POP DUP1 DUP3 GT ISZERO PUSH2 0x4FE3 JUMPI SWAP1 POP DUP1 PUSH2 0x4FDC PUSH2 0x4FC4 DUP3 DUP10 PUSH4 0xFFFFFFFF PUSH2 0x4384 AND JUMP JUMPDEST PUSH2 0x238C PUSH4 0x5F5E100 PUSH2 0x4BB5 DUP10 DUP10 PUSH4 0xFFFFFFFF PUSH2 0x450C AND JUMP JUMPDEST SWAP6 POP PUSH2 0x5017 JUMP JUMPDEST PUSH4 0x5F5E100 PUSH4 0x5F5E0FF NOT DUP5 ADD PUSH2 0x5004 DUP5 DUP11 DUP5 SUB DUP5 MUL PUSH4 0xFFFFFFFF PUSH2 0x4384 AND JUMP JUMPDEST DUP2 PUSH2 0x500B JUMPI INVALID JUMPDEST DIV DUP2 PUSH2 0x5013 JUMPI INVALID JUMPDEST DIV SWAP6 POP JUMPDEST PUSH1 0x1B SLOAD DUP7 DUP4 ADD SWAP1 DUP7 MUL PUSH4 0x5F5E100 DUP3 MUL LT DUP1 ISZERO PUSH2 0x503D JUMPI POP PUSH1 0x1B SLOAD DUP2 MUL PUSH4 0x5F5E100 DUP8 MUL LT JUMPDEST ISZERO PUSH2 0x5045 JUMPI POP DUP5 JUMPDEST DUP1 DUP7 GT ISZERO PUSH2 0x5062 JUMPI PUSH1 0x0 SWAP10 POP SWAP1 SWAP5 SUB SWAP7 POP PUSH2 0x5078 SWAP6 POP POP POP POP POP POP JUMP JUMPDEST SWAP5 SWAP1 SWAP5 SUB SWAP8 POP PUSH1 0x0 SWAP7 POP PUSH2 0x5078 SWAP6 POP POP POP POP POP POP JUMP JUMPDEST SWAP2 POP SWAP2 JUMP JUMPDEST PUSH1 0x40 DUP3 ADD MLOAD PUSH1 0x1 PUSH1 0x1 PUSH1 0xA0 SHL SUB AND PUSH2 0x50F7 JUMPI DUP2 PUSH1 0x60 ADD MLOAD PUSH1 0x1 PUSH1 0x1 PUSH1 0xA0 SHL SUB AND PUSH4 0x3137AD51 DUP3 DUP4 PUSH1 0x40 MLOAD DUP4 PUSH4 0xFFFFFFFF AND PUSH1 0xE0 SHL DUP2 MSTORE PUSH1 0x4 ADD DUP1 DUP3 DUP2 MSTORE PUSH1 0x20 ADD SWAP2 POP POP PUSH1 0x0 PUSH1 0x40 MLOAD DUP1 DUP4 SUB DUP2 DUP6 DUP9 DUP1 EXTCODESIZE ISZERO DUP1 ISZERO PUSH2 0x50D9 JUMPI PUSH1 0x0 DUP1 REVERT JUMPDEST POP GAS CALL ISZERO DUP1 ISZERO PUSH2 0x50ED JUMPI RETURNDATASIZE PUSH1 0x0 DUP1 RETURNDATACOPY RETURNDATASIZE PUSH1 0x0 REVERT JUMPDEST POP POP POP POP POP PUSH2 0x1289 JUMP JUMPDEST DUP2 PUSH1 0x60 ADD MLOAD PUSH1 0x1 PUSH1 0x1 PUSH1 0xA0 SHL SUB AND PUSH4 0x3137AD51 DUP3 PUSH1 0x40 MLOAD DUP3 PUSH4 0xFFFFFFFF AND PUSH1 0xE0 SHL DUP2 MSTORE PUSH1 0x4 ADD DUP1 DUP3 DUP2 MSTORE PUSH1 0x20 ADD SWAP2 POP POP PUSH1 0x0 PUSH1 0x40 MLOAD DUP1 DUP4 SUB DUP2 PUSH1 0x0 DUP8 DUP1 EXTCODESIZE ISZERO DUP1 ISZERO PUSH2 0x5141 JUMPI PUSH1 0x0 DUP1 REVERT JUMPDEST POP GAS CALL ISZERO DUP1 ISZERO PUSH2 0x38CD JUMPI RETURNDATASIZE PUSH1 0x0 DUP1 RETURNDATACOPY RETURNDATASIZE PUSH1 0x0 REVERT JUMPDEST PUSH1 0x0 DUP3 PUSH1 0x4 ADD PUSH1 0x0 SWAP1 SLOAD SWAP1 PUSH2 0x100 EXP SWAP1 DIV PUSH1 0x1 PUSH1 0x1 PUSH1 0xA0 SHL SUB AND PUSH1 0x1 PUSH1 0x1 PUSH1 0xA0 SHL SUB AND PUSH4 0x18160DDD PUSH1 0x40 MLOAD DUP2 PUSH4 0xFFFFFFFF AND PUSH1 0xE0 SHL DUP2 MSTORE PUSH1 0x4 ADD PUSH1 0x20 PUSH1 0x40 MLOAD DUP1 DUP4 SUB DUP2 DUP7 DUP1 EXTCODESIZE ISZERO DUP1 ISZERO PUSH2 0x51A7 JUMPI PUSH1 0x0 DUP1 REVERT JUMPDEST POP GAS STATICCALL ISZERO DUP1 ISZERO PUSH2 0x51BB JUMPI RETURNDATASIZE PUSH1 0x0 DUP1 RETURNDATACOPY RETURNDATASIZE PUSH1 0x0 REVERT JUMPDEST POP POP POP POP PUSH1 0x40 MLOAD RETURNDATASIZE PUSH1 0x20 DUP2 LT ISZERO PUSH2 0x51D1 JUMPI PUSH1 0x0 DUP1 REVERT JUMPDEST POP MLOAD SWAP1 POP DUP1 ISZERO PUSH2 0x2A05 JUMPI PUSH1 0x40 DUP1 MLOAD DUP1 DUP3 ADD SWAP2 DUP3 SWAP1 MSTORE PUSH1 0xF DUP1 SLOAD DUP3 MSTORE PUSH1 0x0 SWAP3 DUP6 SWAP3 PUSH2 0x5227 SWAP3 PUSH4 0x5F5E100 SWAP3 PUSH2 0x4BB5 SWAP3 SWAP2 SWAP1 PUSH1 0x2 SWAP1 PUSH1 0x10 PUSH1 0x20 DUP6 ADD DUP1 DUP4 GT PUSH2 0x4E2B JUMPI POP POP DUP12 SLOAD PUSH1 0xFF AND SWAP3 POP PUSH2 0x237F SWAP2 POP DUP3 SWAP1 POP PUSH2 0x43DD JUMP JUMPDEST DUP2 PUSH2 0x522E JUMPI INVALID JUMPDEST PUSH1 0x1 DUP7 ADD SLOAD PUSH1 0x40 DUP1 MLOAD PUSH4 0x5AF175E3 PUSH1 0xE1 SHL DUP2 MSTORE ADDRESS PUSH1 0x4 DUP3 ADD MSTORE SWAP1 MLOAD SWAP4 SWAP1 SWAP3 DIV SWAP4 POP PUSH1 0x0 SWAP3 PUSH1 0x1 PUSH1 0x1 PUSH1 0xA0 SHL SUB SWAP1 SWAP2 AND SWAP2 PUSH4 0xB5E2EBC6 SWAP2 PUSH1 0x24 DUP1 DUP4 ADD SWAP3 PUSH1 0x20 SWAP3 SWAP2 SWAP1 DUP3 SWAP1 SUB ADD DUP2 DUP7 DUP1 EXTCODESIZE ISZERO DUP1 ISZERO PUSH2 0x5283 JUMPI PUSH1 0x0 DUP1 REVERT JUMPDEST POP GAS STATICCALL ISZERO DUP1 ISZERO PUSH2 0x5297 JUMPI RETURNDATASIZE PUSH1 0x0 DUP1 RETURNDATACOPY RETURNDATASIZE PUSH1 0x0 REVERT JUMPDEST POP POP POP POP PUSH1 0x40 MLOAD RETURNDATASIZE PUSH1 0x20 DUP2 LT ISZERO PUSH2 0x52AD JUMPI PUSH1 0x0 DUP1 REVERT JUMPDEST POP MLOAD SWAP1 POP PUSH1 0x0 PUSH2 0x52DB PUSH2 0x52CE DUP4 PUSH8 0xDE0B6B3A7640000 PUSH4 0xFFFFFFFF PUSH2 0x4384 AND JUMP JUMPDEST DUP5 SWAP1 PUSH4 0xFFFFFFFF PUSH2 0x450C AND JUMP JUMPDEST SWAP1 POP DUP1 PUSH2 0x52F2 DUP5 PUSH4 0x5F5E100 PUSH4 0xFFFFFFFF PUSH2 0x4384 AND JUMP JUMPDEST DUP2 PUSH2 0x52F9 JUMPI INVALID JUMPDEST DIV PUSH1 0x2 DUP8 ADD SSTORE DUP6 SLOAD PUSH2 0x100 SWAP1 DIV PUSH1 0xFF AND ISZERO PUSH2 0x53B8 JUMPI DUP6 SLOAD PUSH1 0x11 SWAP1 PUSH1 0xFF AND PUSH1 0x2 DUP2 LT PUSH2 0x5320 JUMPI INVALID JUMPDEST ADD SLOAD PUSH8 0xDE0B6B3A7640000 PUSH1 0x17 SLOAD MUL DUP2 PUSH2 0x5336 JUMPI INVALID JUMPDEST DIV PUSH1 0x3 DUP8 ADD DUP2 SWAP1 SSTORE DUP7 SLOAD PUSH2 0xFF00 NOT AND DUP8 SSTORE PUSH1 0x4 DUP8 ADD SLOAD PUSH1 0x1 PUSH1 0x1 PUSH1 0xA0 SHL SUB AND SWAP1 PUSH4 0xB32E8820 SWAP1 DUP4 DUP2 PUSH2 0x5364 JUMPI INVALID JUMPDEST DIV PUSH1 0x40 MLOAD DUP3 PUSH4 0xFFFFFFFF AND PUSH1 0xE0 SHL DUP2 MSTORE PUSH1 0x4 ADD DUP1 DUP3 DUP2 MSTORE PUSH1 0x20 ADD SWAP2 POP POP PUSH1 0x0 PUSH1 0x40 MLOAD DUP1 DUP4 SUB DUP2 PUSH1 0x0 DUP8 DUP1 EXTCODESIZE ISZERO DUP1 ISZERO PUSH2 0x539B JUMPI PUSH1 0x0 DUP1 REVERT JUMPDEST POP GAS CALL ISZERO DUP1 ISZERO PUSH2 0x53AF JUMPI RETURNDATASIZE PUSH1 0x0 DUP1 RETURNDATACOPY RETURNDATASIZE PUSH1 0x0 REVERT JUMPDEST POP POP POP POP PUSH2 0x38CD JUMP JUMPDEST DUP4 DUP2 DUP2 PUSH2 0x53C1 JUMPI INVALID JUMPDEST DIV PUSH1 0x3 DUP8 ADD SSTORE PUSH1 0x18 SLOAD DUP7 SLOAD PUSH1 0x11 SWAP1 PUSH1 0xFF AND PUSH1 0x2 DUP2 LT PUSH2 0x53DC JUMPI INVALID JUMPDEST ADD SLOAD PUSH1 0x17 SLOAD PUSH2 0x53FC SWAP1 PUSH11 0x52B7D2DCC80CD2E4000000 PUSH4 0xFFFFFFFF PUSH2 0x4384 AND JUMP JUMPDEST DUP2 PUSH2 0x5403 JUMPI INVALID JUMPDEST DIV DUP2 PUSH2 0x540B JUMPI INVALID JUMPDEST PUSH1 0x3 DUP9 ADD SLOAD DUP9 SLOAD PUSH2 0xFF00 NOT AND SWAP3 SWAP1 SWAP2 DIV GT PUSH2 0x100 MUL OR SWAP1 SWAP6 SSTORE POP POP POP POP POP JUMP JUMPDEST ADDRESS EXTCODESIZE ISZERO SWAP1 JUMP JUMPDEST DUP3 SLOAD PUSH1 0xFF NOT AND PUSH1 0xFF DUP4 AND OR DUP4 SSTORE PUSH1 0x1 DUP4 ADD DUP1 SLOAD PUSH1 0x1 PUSH1 0x1 PUSH1 0xA0 SHL SUB NOT AND PUSH1 0x1 PUSH1 0x1 PUSH1 0xA0 SHL SUB DUP4 DUP2 AND SWAP2 SWAP1 SWAP2 OR SWAP2 DUP3 SWAP1 SSTORE PUSH1 0x40 DUP1 MLOAD PUSH4 0x32F7CE0B PUSH1 0xE2 SHL DUP2 MSTORE SWAP1 MLOAD SWAP3 SWAP1 SWAP2 AND SWAP2 PUSH4 0xCBDF382C SWAP2 PUSH1 0x4 DUP1 DUP3 ADD SWAP3 PUSH1 0x20 SWAP3 SWAP1 SWAP2 SWAP1 DUP3 SWAP1 SUB ADD DUP2 DUP7 DUP1 EXTCODESIZE ISZERO DUP1 ISZERO PUSH2 0x549C JUMPI PUSH1 0x0 DUP1 REVERT JUMPDEST POP GAS STATICCALL ISZERO DUP1 ISZERO PUSH2 0x54B0 JUMPI RETURNDATASIZE PUSH1 0x0 DUP1 RETURNDATACOPY RETURNDATASIZE PUSH1 0x0 REVERT JUMPDEST POP POP POP POP PUSH1 0x40 MLOAD RETURNDATASIZE PUSH1 0x20 DUP2 LT ISZERO PUSH2 0x54C6 JUMPI PUSH1 0x0 DUP1 REVERT JUMPDEST POP MLOAD DUP4 SLOAD PUSH3 0x10000 PUSH1 0x1 PUSH1 0xB0 SHL SUB NOT AND PUSH3 0x10000 PUSH1 0x1 PUSH1 0x1 PUSH1 0xA0 SHL SUB SWAP3 DUP4 AND DUP2 MUL SWAP2 SWAP1 SWAP2 OR DUP1 DUP7 SSTORE DIV AND ISZERO PUSH2 0x2A05 JUMPI DUP3 SLOAD PUSH1 0xD SLOAD PUSH1 0x1 PUSH1 0x1 PUSH1 0xA0 SHL SUB PUSH3 0x10000 SWAP1 SWAP3 DIV DUP3 AND SWAP2 PUSH2 0x5521 SWAP2 DUP4 SWAP2 AND PUSH1 0x0 NOT PUSH4 0xFFFFFFFF PUSH2 0x28F2 AND JUMP JUMPDEST PUSH2 0x553D PUSH1 0x1 PUSH1 0x1 PUSH1 0xA0 SHL SUB DUP3 AND DUP4 PUSH1 0x0 NOT PUSH4 0xFFFFFFFF PUSH2 0x28F2 AND JUMP JUMPDEST POP POP POP POP JUMP JUMPDEST PUSH1 0x0 PUSH2 0x10B4 DUP4 DUP4 PUSH1 0x40 MLOAD DUP1 PUSH1 0x40 ADD PUSH1 0x40 MSTORE DUP1 PUSH1 0x1A DUP2 MSTORE PUSH1 0x20 ADD PUSH32 0x536166654D6174683A206469766973696F6E206279207A65726F000000000000 DUP2 MSTORE POP PUSH2 0x56D7 JUMP JUMPDEST PUSH1 0x0 DUP2 DUP5 DUP5 GT ISZERO PUSH2 0x5614 JUMPI PUSH1 0x40 MLOAD PUSH3 0x461BCD PUSH1 0xE5 SHL DUP2 MSTORE PUSH1 0x4 ADD DUP1 DUP1 PUSH1 0x20 ADD DUP3 DUP2 SUB DUP3 MSTORE DUP4 DUP2 DUP2 MLOAD DUP2 MSTORE PUSH1 0x20 ADD SWAP2 POP DUP1 MLOAD SWAP1 PUSH1 0x20 ADD SWAP1 DUP1 DUP4 DUP4 PUSH1 0x0 JUMPDEST DUP4 DUP2 LT ISZERO PUSH2 0x55D9 JUMPI DUP2 DUP2 ADD MLOAD DUP4 DUP3 ADD MSTORE PUSH1 0x20 ADD PUSH2 0x55C1 JUMP JUMPDEST POP POP POP POP SWAP1 POP SWAP1 DUP2 ADD SWAP1 PUSH1 0x1F AND DUP1 ISZERO PUSH2 0x5606 JUMPI DUP1 DUP3 SUB DUP1 MLOAD PUSH1 0x1 DUP4 PUSH1 0x20 SUB PUSH2 0x100 EXP SUB NOT AND DUP2 MSTORE PUSH1 0x20 ADD SWAP2 POP JUMPDEST POP SWAP3 POP POP POP PUSH1 0x40 MLOAD DUP1 SWAP2 SUB SWAP1 REVERT JUMPDEST POP POP POP SWAP1 SUB SWAP1 JUMP JUMPDEST PUSH1 0x40 DUP1 MLOAD PUSH1 0x1 PUSH1 0x1 PUSH1 0xA0 SHL SUB DUP6 DUP2 AND PUSH1 0x24 DUP4 ADD MSTORE DUP5 AND PUSH1 0x44 DUP3 ADD MSTORE PUSH1 0x64 DUP1 DUP3 ADD DUP5 SWAP1 MSTORE DUP3 MLOAD DUP1 DUP4 SUB SWAP1 SWAP2 ADD DUP2 MSTORE PUSH1 0x84 SWAP1 SWAP2 ADD SWAP1 SWAP2 MSTORE PUSH1 0x20 DUP2 ADD DUP1 MLOAD PUSH1 0x1 PUSH1 0x1 PUSH1 0xE0 SHL SUB AND PUSH4 0x23B872DD PUSH1 0xE0 SHL OR SWAP1 MSTORE PUSH2 0x553D SWAP1 DUP6 SWAP1 PUSH2 0x4701 JUMP JUMPDEST PUSH1 0x60 PUSH2 0x4504 DUP5 DUP5 PUSH1 0x0 DUP6 PUSH2 0x573C JUMP JUMPDEST PUSH1 0x40 DUP1 MLOAD PUSH1 0x1 PUSH1 0x1 PUSH1 0xA0 SHL SUB DUP5 AND PUSH1 0x24 DUP3 ADD MSTORE PUSH1 0x44 DUP1 DUP3 ADD DUP5 SWAP1 MSTORE DUP3 MLOAD DUP1 DUP4 SUB SWAP1 SWAP2 ADD DUP2 MSTORE PUSH1 0x64 SWAP1 SWAP2 ADD SWAP1 SWAP2 MSTORE PUSH1 0x20 DUP2 ADD DUP1 MLOAD PUSH1 0x1 PUSH1 0x1 PUSH1 0xE0 SHL SUB AND PUSH4 0xA9059CBB PUSH1 0xE0 SHL OR SWAP1 MSTORE PUSH2 0x2A05 SWAP1 DUP5 SWAP1 PUSH2 0x4701 JUMP JUMPDEST PUSH1 0x0 DUP2 DUP4 PUSH2 0x5726 JUMPI PUSH1 0x40 MLOAD PUSH3 0x461BCD PUSH1 0xE5 SHL DUP2 MSTORE PUSH1 0x20 PUSH1 0x4 DUP3 ADD DUP2 DUP2 MSTORE DUP4 MLOAD PUSH1 0x24 DUP5 ADD MSTORE DUP4 MLOAD SWAP1 SWAP3 DUP4 SWAP3 PUSH1 0x44 SWAP1 SWAP2 ADD SWAP2 SWAP1 DUP6 ADD SWAP1 DUP1 DUP4 DUP4 PUSH1 0x0 DUP4 ISZERO PUSH2 0x55D9 JUMPI DUP2 DUP2 ADD MLOAD DUP4 DUP3 ADD MSTORE PUSH1 0x20 ADD PUSH2 0x55C1 JUMP JUMPDEST POP PUSH1 0x0 DUP4 DUP6 DUP2 PUSH2 0x5732 JUMPI INVALID JUMPDEST DIV SWAP6 SWAP5 POP POP POP POP POP JUMP JUMPDEST PUSH1 0x60 DUP3 SELFBALANCE LT ISZERO PUSH2 0x577D JUMPI PUSH1 0x40 MLOAD PUSH3 0x461BCD PUSH1 0xE5 SHL DUP2 MSTORE PUSH1 0x4 ADD DUP1 DUP1 PUSH1 0x20 ADD DUP3 DUP2 SUB DUP3 MSTORE PUSH1 0x26 DUP2 MSTORE PUSH1 0x20 ADD DUP1 PUSH2 0x5A4D PUSH1 0x26 SWAP2 CODECOPY PUSH1 0x40 ADD SWAP2 POP POP PUSH1 0x40 MLOAD DUP1 SWAP2 SUB SWAP1 REVERT JUMPDEST PUSH2 0x5786 DUP6 PUSH2 0x3B18 JUMP JUMPDEST PUSH2 0x57D7 JUMPI PUSH1 0x40 DUP1 MLOAD PUSH3 0x461BCD PUSH1 0xE5 SHL DUP2 MSTORE PUSH1 0x20 PUSH1 0x4 DUP3 ADD MSTORE PUSH1 0x1D PUSH1 0x24 DUP3 ADD MSTORE PUSH32 0x416464726573733A2063616C6C20746F206E6F6E2D636F6E7472616374000000 PUSH1 0x44 DUP3 ADD MSTORE SWAP1 MLOAD SWAP1 DUP2 SWAP1 SUB PUSH1 0x64 ADD SWAP1 REVERT JUMPDEST PUSH1 0x0 PUSH1 0x60 DUP7 PUSH1 0x1 PUSH1 0x1 PUSH1 0xA0 SHL SUB AND DUP6 DUP8 PUSH1 0x40 MLOAD DUP1 DUP3 DUP1 MLOAD SWAP1 PUSH1 0x20 ADD SWAP1 DUP1 DUP4 DUP4 JUMPDEST PUSH1 0x20 DUP4 LT PUSH2 0x5816 JUMPI DUP1 MLOAD DUP3 MSTORE PUSH1 0x1F NOT SWAP1 SWAP3 ADD SWAP2 PUSH1 0x20 SWAP2 DUP3 ADD SWAP2 ADD PUSH2 0x57F7 JUMP JUMPDEST PUSH1 0x1 DUP4 PUSH1 0x20 SUB PUSH2 0x100 EXP SUB DUP1 NOT DUP3 MLOAD AND DUP2 DUP5 MLOAD AND DUP1 DUP3 OR DUP6 MSTORE POP POP POP POP POP POP SWAP1 POP ADD SWAP2 POP POP PUSH1 0x0 PUSH1 0x40 MLOAD DUP1 DUP4 SUB DUP2 DUP6 DUP8 GAS CALL SWAP3 POP POP POP RETURNDATASIZE DUP1 PUSH1 0x0 DUP2 EQ PUSH2 0x5878 JUMPI PUSH1 0x40 MLOAD SWAP2 POP PUSH1 0x1F NOT PUSH1 0x3F RETURNDATASIZE ADD AND DUP3 ADD PUSH1 0x40 MSTORE RETURNDATASIZE DUP3 MSTORE RETURNDATASIZE PUSH1 0x0 PUSH1 0x20 DUP5 ADD RETURNDATACOPY PUSH2 0x587D JUMP JUMPDEST PUSH1 0x60 SWAP2 POP JUMPDEST POP SWAP2 POP SWAP2 POP PUSH2 0x490A DUP3 DUP3 DUP7 PUSH1 0x60 DUP4 ISZERO PUSH2 0x5897 JUMPI POP DUP2 PUSH2 0x10B4 JUMP JUMPDEST DUP3 MLOAD ISZERO PUSH2 0x58A7 JUMPI DUP3 MLOAD DUP1 DUP5 PUSH1 0x20 ADD REVERT JUMPDEST PUSH1 0x40 MLOAD PUSH3 0x461BCD PUSH1 0xE5 SHL DUP2 MSTORE PUSH1 0x20 PUSH1 0x4 DUP3 ADD DUP2 DUP2 MSTORE DUP5 MLOAD PUSH1 0x24 DUP5 ADD MSTORE DUP5 MLOAD DUP6 SWAP4 SWAP2 SWAP3 DUP4 SWAP3 PUSH1 0x44 ADD SWAP2 SWAP1 DUP6 ADD SWAP1 DUP1 DUP4 DUP4 PUSH1 0x0 DUP4 ISZERO PUSH2 0x55D9 JUMPI DUP2 DUP2 ADD MLOAD DUP4 DUP3 ADD MSTORE PUSH1 0x20 ADD PUSH2 0x55C1 JUMP JUMPDEST PUSH1 0x40 MLOAD DUP1 PUSH1 0x40 ADD PUSH1 0x40 MSTORE DUP1 PUSH1 0x2 SWAP1 PUSH1 0x20 DUP3 MUL DUP1 CODESIZE DUP4 CODECOPY POP SWAP2 SWAP3 SWAP2 POP POP JUMP JUMPDEST DUP3 PUSH1 0x2 DUP2 ADD SWAP3 DUP3 ISZERO PUSH2 0x593A JUMPI SWAP2 PUSH1 0x20 MUL DUP3 ADD JUMPDEST DUP3 DUP2 GT ISZERO PUSH2 0x593A JUMPI DUP3 MLOAD DUP3 SSTORE SWAP2 PUSH1 0x20 ADD SWAP2 SWAP1 PUSH1 0x1 ADD SWAP1 PUSH2 0x591F JUMP JUMPDEST POP PUSH2 0x5946 SWAP3 SWAP2 POP PUSH2 0x5975 JUMP JUMPDEST POP SWAP1 JUMP JUMPDEST DUP3 PUSH1 0x2 DUP2 ADD SWAP3 DUP3 ISZERO PUSH2 0x593A JUMPI SWAP2 DUP3 ADD JUMPDEST DUP3 DUP2 GT ISZERO PUSH2 0x593A JUMPI DUP3 SLOAD DUP3 SSTORE SWAP2 PUSH1 0x1 ADD SWAP2 SWAP1 PUSH1 0x1 ADD SWAP1 PUSH2 0x595A JUMP JUMPDEST PUSH2 0xE6C SWAP2 SWAP1 JUMPDEST DUP1 DUP3 GT ISZERO PUSH2 0x5946 JUMPI PUSH1 0x0 DUP2 SSTORE PUSH1 0x1 ADD PUSH2 0x597B JUMP INVALID MSTORE PUSH6 0x70617920616D PUSH16 0x756E74206973206C657373207468616E KECCAK256 PUSH14 0x696E416D6F756E7470726F78794F PUSH24 0x6E65723A2063616C6C6572206D7573742062652074686520 PUSH17 0x726F7879206F776E657220616E64206120 PUSH4 0x6F6E7472 PUSH2 0x6374 KECCAK256 PUSH2 0x6E64 KECCAK256 PUSH15 0x6F742065787069726564746F6B656E KECCAK256 PUSH2 0x6D6F PUSH22 0x6E74206973206C657373207468616E206D696E416D6F PUSH22 0x6E746D756C74695369676E6174757265436C69656E74 KECCAK256 GASPRICE KECCAK256 SLOAD PUSH9 0x697320747820697320 PUSH15 0x6F7420617072726F76656441646472 PUSH6 0x73733A20696E PUSH20 0x756666696369656E742062616C616E636520666F PUSH19 0x2063616C6C70726F78794F776E65723A206361 PUSH13 0x6C6572206973206E6F74206F77 PUSH15 0x6572206F72206F726967696E536166 PUSH6 0x4D6174683A20 PUSH14 0x756C7469706C69636174696F6E20 PUSH16 0x766572666C6F776F72672E50686F656E PUSH10 0x782E6D756C7469536967 PUSH15 0x61747572652E73746F72616765436F PUSH15 0x747261637420696E7374616E636520 PUSH9 0x617320616C72656164 PUSH26 0x206265656E20696E697469616C697A65644E6577207665727369 PUSH16 0x6E20696D706C656D656E746174696F6E KECCAK256 PUSH10 0x7320616C726561647920 PUSH22 0x706461746564214C69717569646174653A2063757272 PUSH6 0x6E7420707269 PUSH4 0x65206973 KECCAK256 PUSH15 0x6F7420756E64657220746865207468 PUSH19 0x6573686F6C64215361666545524332303A2045 MSTORE NUMBER ORIGIN ADDRESS KECCAK256 PUSH16 0x7065726174696F6E20646964206E6F74 KECCAK256 PUSH20 0x7563636565645361666545524332303A20617070 PUSH19 0x6F76652066726F6D206E6F6E2D7A65726F2074 PUSH16 0x206E6F6E2D7A65726F20616C6C6F7761 PUSH15 0x636570726F78794F776E65723A2063 PUSH2 0x6C6C PUSH6 0x72206973206E PUSH16 0x7420746865207478206F726967696E21 LOG2 PUSH6 0x627A7A723158 KECCAK256 KECCAK256 0x1F 0xD7 0xC5 0xD2 0xCC 0xC 0xB6 CODECOPY 0xB6 DUP2 PUSH28 0xCA3270D2120B3A658A990B5D3D29B8E406510A9964736F6C63430005 LT STOP ORIGIN PUSH16 0x72672E50686F656E69782E6D756C7469 MSTORE8 PUSH10 0x676E61747572652E7374 PUSH16 0x726167656D756C74695369676E617475 PUSH19 0x65436C69656E74203A204D756C7469706C6520 PUSH20 0x69676E617475726520636F6E7472616374206164 PUSH5 0x7265737320 PUSH10 0x73207A65726F21000000 "
		},
		"gasEstimates": {
			"creation": {
				"codeDepositCost": "4719000",
				"executionCost": "infinite",
				"totalCost": "infinite"
			},
			"external": {
				"": "253",
				"buyFee()": "1110",
				"buyHedge(uint256,uint256,uint256,bytes)": "infinite",
				"buyHedge2(uint256,uint256,uint256,bytes)": "infinite",
				"buyLeverage(uint256,uint256,uint256,bytes)": "infinite",
				"buyLeverage2(uint256,uint256,uint256,bytes)": "infinite",
				"buyPrices()": "infinite",
				"defaultLeverageRatio()": "1155",
				"defaultRebalanceWorth()": "1110",
				"delegateCallSwap(bytes)": "infinite",
				"feeAddress()": "1127",
				"getCurrentLeverageRate()": "infinite",
				"getEnableRebalanceAndLiquidate()": "infinite",
				"getHedgeInfo()": "4547",
				"getLeverageInfo()": "4482",
				"getLeverageRebase()": "1990",
				"getMultiSignatureAddress()": "infinite",
				"getOperator(uint256)": "1220",
				"getOracleAddress()": "1127",
				"getTokenNetworths()": "infinite",
				"getTotalworths()": "infinite",
				"implementationVersion()": "290",
				"initialize()": "infinite",
				"isOwner()": "2966",
				"liquidateThreshold()": "1130",
				"owner()": "1193",
				"ownerExpiredTime()": "1123",
				"phxSwapLib()": "1171",
				"rebalance()": "infinite",
				"rebalanceAndLiquidate()": "infinite",
				"rebalanceFee()": "1066",
				"rebalancePrices(uint256)": "1141",
				"rebalanceTol()": "1132",
				"rebaseThreshold()": "1066",
				"sellFee()": "1111",
				"sellHedge(uint256,uint256,uint256,bytes)": "infinite",
				"sellHedge2(uint256,uint256,uint256,bytes)": "infinite",
				"sellLeverage(uint256,uint256,uint256,bytes)": "infinite",
				"sellLeverage2(uint256,uint256,uint256,bytes)": "infinite",
				"setFeeAddress(address)": "infinite",
				"setLeverageFee(uint256,uint256,uint256)": "infinite",
				"setLeveragePoolInfo(address,address,address,address,address,address,address,address,uint256,uint256,uint256)": "infinite",
				"setManager(address)": "infinite",
				"setOperator(uint256,address)": "infinite",
				"setOracleAddress(address)": "infinite",
				"setSwapLibAddress(address)": "infinite",
				"setSwapRouterAddress(address)": "infinite",
				"swapRouter()": "1170",
				"transferOrigin(address)": "infinite",
				"transferOwnership(address)": "infinite",
				"txOrigin()": "1207",
				"update()": "infinite",
				"version()": "1188"
			},
			"internal": {
				"_buy(struct leveragedData.leverageInfo memory,uint256,uint256,uint256,bool)": "infinite",
				"_getCurrentLeverageRate(struct leveragedData.leverageInfo memory,uint256[2] memory)": "infinite",
				"_getUnderlyingPriceView()": "infinite",
				"_liquidate(struct leveragedData.leverageInfo storage pointer)": "infinite",
				"_rebalance()": "infinite",
				"_repay(struct leveragedData.leverageInfo memory,uint256,bool)": "infinite",
				"_repayAndInterest(struct leveragedData.leverageInfo memory,uint256)": "infinite",
				"_sell(struct leveragedData.leverageInfo memory,uint256,uint256,uint256,bool)": "infinite",
				"_sellSwap(uint8,uint256,uint256)": "infinite",
				"_sellSwap2(uint8,uint256,uint256)": "infinite",
				"_settle(struct leveragedData.leverageInfo storage pointer)": "infinite",
				"_swap(address,address,uint256)": "infinite",
				"_tokenNetworth(struct leveragedData.leverageInfo memory,uint256[2] memory)": "infinite",
				"_tokenNetworthBuy(struct leveragedData.leverageInfo memory,uint256[2] memory)": "infinite",
				"_totalWorth(struct leveragedData.leverageInfo memory,uint256[2] memory)": "infinite",
				"calAverageSlip(struct leveragedData.leverageInfo memory)": "infinite",
				"calLeverageInfo(struct leveragedData.leverageInfo storage pointer,uint256)": "infinite",
				"checkLiquidate(struct leveragedData.leverageInfo memory,uint256[2] memory,uint256)": "infinite",
				"redeemFees(uint256,address,uint256)": "infinite",
				"setLeveragePoolAddress(address payable,address,address,address,address,address)": "infinite",
				"setLeveragePoolInfo_sub(address,address,uint256,uint256,uint256)": "infinite",
				"setStakePool(struct leveragedData.leverageInfo storage pointer,uint8,address)": "infinite",
				"underlyingBalance(uint8)": "infinite"
			}
		},
		"methodIdentifiers": {
			"buyFee()": "47062402",
			"buyHedge(uint256,uint256,uint256,bytes)": "231b89bb",
			"buyHedge2(uint256,uint256,uint256,bytes)": "b6220414",
			"buyLeverage(uint256,uint256,uint256,bytes)": "bea9e2d9",
			"buyLeverage2(uint256,uint256,uint256,bytes)": "54c9fbfe",
			"buyPrices()": "d8aae160",
			"defaultLeverageRatio()": "21ff984b",
			"defaultRebalanceWorth()": "738cf437",
			"delegateCallSwap(bytes)": "2a86b16e",
			"feeAddress()": "41275358",
			"getCurrentLeverageRate()": "f4eb3cd7",
			"getEnableRebalanceAndLiquidate()": "7bded0ef",
			"getHedgeInfo()": "de811de8",
			"getLeverageInfo()": "6d64bcc9",
			"getLeverageRebase()": "0dc600cb",
			"getMultiSignatureAddress()": "638c7e17",
			"getOperator(uint256)": "05f63c8a",
			"getOracleAddress()": "b18b78dd",
			"getTokenNetworths()": "f1f636a0",
			"getTotalworths()": "156e872d",
			"implementationVersion()": "06bfcec6",
			"initialize()": "8129fc1c",
			"isOwner()": "8f32d59b",
			"liquidateThreshold()": "fdcb648c",
			"owner()": "8da5cb5b",
			"ownerExpiredTime()": "059a4c18",
			"phxSwapLib()": "553677da",
			"rebalance()": "7d7c2a1c",
			"rebalanceAndLiquidate()": "c1497fdc",
			"rebalanceFee()": "2e35bcca",
			"rebalancePrices(uint256)": "bb59dacb",
			"rebalanceTol()": "90932257",
			"rebaseThreshold()": "52d38e5d",
			"sellFee()": "2b14ca56",
			"sellHedge(uint256,uint256,uint256,bytes)": "e335f856",
			"sellHedge2(uint256,uint256,uint256,bytes)": "d5bf63e3",
			"sellLeverage(uint256,uint256,uint256,bytes)": "65d86302",
			"sellLeverage2(uint256,uint256,uint256,bytes)": "8cb8490b",
			"setFeeAddress(address)": "8705fcd4",
			"setLeverageFee(uint256,uint256,uint256)": "9289f0d4",
			"setLeveragePoolInfo(address,address,address,address,address,address,address,address,uint256,uint256,uint256)": "87e91a1d",
			"setManager(address)": "d0ebdbe7",
			"setOperator(uint256,address)": "e7a1c1c0",
			"setOracleAddress(address)": "4c69c00f",
			"setSwapLibAddress(address)": "ccc61bf7",
			"setSwapRouterAddress(address)": "5249961b",
			"swapRouter()": "c31c9c07",
			"transferOrigin(address)": "c55b3cbc",
			"transferOwnership(address)": "f2fde38b",
			"txOrigin()": "f96757d1",
			"update()": "a2e62045",
			"version()": "54fd4d50"
		}
	},
	"abi": [
		{
			"inputs": [
				{
					"internalType": "address",
					"name": "multiSignature",
					"type": "address"
				}
			],
			"payable": false,
			"stateMutability": "nonpayable",
			"type": "constructor"
		},
		{
			"anonymous": false,
			"inputs": [
				{
					"indexed": true,
					"internalType": "address",
					"name": "from",
					"type": "address"
				},
				{
					"indexed": true,
					"internalType": "address",
					"name": "Coin",
					"type": "address"
				},
				{
					"indexed": false,
					"internalType": "uint256",
					"name": "amount",
					"type": "uint256"
				},
				{
					"indexed": false,
					"internalType": "uint256",
					"name": "hedgeAmount",
					"type": "uint256"
				}
			],
			"name": "BuyHedge",
			"type": "event"
		},
		{
			"anonymous": false,
			"inputs": [
				{
					"indexed": true,
					"internalType": "address",
					"name": "from",
					"type": "address"
				},
				{
					"indexed": true,
					"internalType": "address",
					"name": "Coin",
					"type": "address"
				},
				{
					"indexed": false,
					"internalType": "uint256",
					"name": "amount",
					"type": "uint256"
				},
				{
					"indexed": false,
					"internalType": "uint256",
					"name": "leverageAmount",
					"type": "uint256"
				}
			],
			"name": "BuyLeverage",
			"type": "event"
		},
		{
			"anonymous": false,
			"inputs": [
				{
					"indexed": true,
					"internalType": "address",
					"name": "from",
					"type": "address"
				},
				{
					"indexed": true,
					"internalType": "address",
					"name": "token",
					"type": "address"
				},
				{
					"indexed": false,
					"internalType": "uint256",
					"name": "loan",
					"type": "uint256"
				},
				{
					"indexed": false,
					"internalType": "uint256",
					"name": "fee",
					"type": "uint256"
				},
				{
					"indexed": false,
					"internalType": "uint256",
					"name": "leftAmount",
					"type": "uint256"
				}
			],
			"name": "Liquidate",
			"type": "event"
		},
		{
			"anonymous": false,
			"inputs": [
				{
					"indexed": true,
					"internalType": "address",
					"name": "previousOperator",
					"type": "address"
				},
				{
					"indexed": true,
					"internalType": "address",
					"name": "newOperator",
					"type": "address"
				},
				{
					"indexed": true,
					"internalType": "uint256",
					"name": "index",
					"type": "uint256"
				}
			],
			"name": "OperatorTransferred",
			"type": "event"
		},
		{
			"anonymous": false,
			"inputs": [
				{
					"indexed": true,
					"internalType": "address",
					"name": "previousOrigin",
					"type": "address"
				},
				{
					"indexed": true,
					"internalType": "address",
					"name": "newOrigin",
					"type": "address"
				}
			],
			"name": "OriginTransferred",
			"type": "event"
		},
		{
			"anonymous": false,
			"inputs": [
				{
					"indexed": true,
					"internalType": "address",
					"name": "previousOwner",
					"type": "address"
				},
				{
					"indexed": true,
					"internalType": "address",
					"name": "newOwner",
					"type": "address"
				}
			],
			"name": "OwnershipTransferred",
			"type": "event"
		},
		{
			"anonymous": false,
			"inputs": [
				{
					"indexed": true,
					"internalType": "address",
					"name": "from",
					"type": "address"
				},
				{
					"indexed": true,
					"internalType": "address",
					"name": "token",
					"type": "address"
				},
				{
					"indexed": false,
					"internalType": "uint256",
					"name": "buyAount",
					"type": "uint256"
				},
				{
					"indexed": false,
					"internalType": "uint256",
					"name": "sellAmount",
					"type": "uint256"
				}
			],
			"name": "Rebalance",
			"type": "event"
		},
		{
			"anonymous": false,
			"inputs": [
				{
					"indexed": true,
					"internalType": "address",
					"name": "recieptor",
					"type": "address"
				},
				{
					"indexed": true,
					"internalType": "address",
					"name": "token",
					"type": "address"
				},
				{
					"indexed": false,
					"internalType": "uint256",
					"name": "amount",
					"type": "uint256"
				}
			],
			"name": "Redeem",
			"type": "event"
		},
		{
			"anonymous": false,
			"inputs": [
				{
					"indexed": true,
					"internalType": "address",
					"name": "from",
					"type": "address"
				},
				{
					"indexed": true,
					"internalType": "address",
					"name": "Coin",
					"type": "address"
				},
				{
					"indexed": false,
					"internalType": "uint256",
					"name": "hedgeAmount",
					"type": "uint256"
				},
				{
					"indexed": false,
					"internalType": "uint256",
					"name": "amount",
					"type": "uint256"
				}
			],
			"name": "SellHedge",
			"type": "event"
		},
		{
			"anonymous": false,
			"inputs": [
				{
					"indexed": true,
					"internalType": "address",
					"name": "from",
					"type": "address"
				},
				{
					"indexed": true,
					"internalType": "address",
					"name": "Coin",
					"type": "address"
				},
				{
					"indexed": false,
					"internalType": "uint256",
					"name": "leverageAmount",
					"type": "uint256"
				},
				{
					"indexed": false,
					"internalType": "uint256",
					"name": "amount",
					"type": "uint256"
				}
			],
			"name": "SellLeverage",
			"type": "event"
		},
		{
			"anonymous": false,
			"inputs": [
				{
					"indexed": true,
					"internalType": "address",
					"name": "fromCoin",
					"type": "address"
				},
				{
					"indexed": true,
					"internalType": "address",
					"name": "toCoin",
					"type": "address"
				},
				{
					"indexed": false,
					"internalType": "uint256",
					"name": "fromValue",
					"type": "uint256"
				},
				{
					"indexed": false,
					"internalType": "uint256",
					"name": "toValue",
					"type": "uint256"
				}
			],
			"name": "Swap",
			"type": "event"
		},
		{
			"payable": true,
			"stateMutability": "payable",
			"type": "fallback"
		},
		{
			"constant": true,
			"inputs": [],
			"name": "buyFee",
			"outputs": [
				{
					"internalType": "uint256",
					"name": "",
					"type": "uint256"
				}
			],
			"payable": false,
			"stateMutability": "view",
			"type": "function"
		},
		{
			"constant": false,
			"inputs": [
				{
					"internalType": "uint256",
					"name": "amount",
					"type": "uint256"
				},
				{
					"internalType": "uint256",
					"name": "minAmount",
					"type": "uint256"
				},
				{
					"internalType": "uint256",
					"name": "deadLine",
					"type": "uint256"
				},
				{
					"internalType": "bytes",
					"name": "",
					"type": "bytes"
				}
			],
			"name": "buyHedge",
			"outputs": [],
			"payable": true,
			"stateMutability": "payable",
			"type": "function"
		},
		{
			"constant": false,
			"inputs": [
				{
					"internalType": "uint256",
					"name": "amount",
					"type": "uint256"
				},
				{
					"internalType": "uint256",
					"name": "minAmount",
					"type": "uint256"
				},
				{
					"internalType": "uint256",
					"name": "deadLine",
					"type": "uint256"
				},
				{
					"internalType": "bytes",
					"name": "",
					"type": "bytes"
				}
			],
			"name": "buyHedge2",
			"outputs": [],
			"payable": true,
			"stateMutability": "payable",
			"type": "function"
		},
		{
			"constant": false,
			"inputs": [
				{
					"internalType": "uint256",
					"name": "amount",
					"type": "uint256"
				},
				{
					"internalType": "uint256",
					"name": "minAmount",
					"type": "uint256"
				},
				{
					"internalType": "uint256",
					"name": "deadLine",
					"type": "uint256"
				},
				{
					"internalType": "bytes",
					"name": "",
					"type": "bytes"
				}
			],
			"name": "buyLeverage",
			"outputs": [],
			"payable": true,
			"stateMutability": "payable",
			"type": "function"
		},
		{
			"constant": false,
			"inputs": [
				{
					"internalType": "uint256",
					"name": "amount",
					"type": "uint256"
				},
				{
					"internalType": "uint256",
					"name": "minAmount",
					"type": "uint256"
				},
				{
					"internalType": "uint256",
					"name": "deadLine",
					"type": "uint256"
				},
				{
					"internalType": "bytes",
					"name": "",
					"type": "bytes"
				}
			],
			"name": "buyLeverage2",
			"outputs": [],
			"payable": true,
			"stateMutability": "payable",
			"type": "function"
		},
		{
			"constant": true,
			"inputs": [],
			"name": "buyPrices",
			"outputs": [
				{
					"internalType": "uint256",
					"name": "",
					"type": "uint256"
				},
				{
					"internalType": "uint256",
					"name": "",
					"type": "uint256"
				}
			],
			"payable": false,
			"stateMutability": "view",
			"type": "function"
		},
		{
			"constant": true,
			"inputs": [],
			"name": "defaultLeverageRatio",
			"outputs": [
				{
					"internalType": "uint256",
					"name": "",
					"type": "uint256"
				}
			],
			"payable": false,
			"stateMutability": "view",
			"type": "function"
		},
		{
			"constant": true,
			"inputs": [],
			"name": "defaultRebalanceWorth",
			"outputs": [
				{
					"internalType": "uint256",
					"name": "",
					"type": "uint256"
				}
			],
			"payable": false,
			"stateMutability": "view",
			"type": "function"
		},
		{
			"constant": false,
			"inputs": [
				{
					"internalType": "bytes",
					"name": "data",
					"type": "bytes"
				}
			],
			"name": "delegateCallSwap",
			"outputs": [
				{
					"internalType": "bytes",
					"name": "",
					"type": "bytes"
				}
			],
			"payable": false,
			"stateMutability": "nonpayable",
			"type": "function"
		},
		{
			"constant": true,
			"inputs": [],
			"name": "feeAddress",
			"outputs": [
				{
					"internalType": "address payable",
					"name": "",
					"type": "address"
				}
			],
			"payable": false,
			"stateMutability": "view",
			"type": "function"
		},
		{
			"constant": true,
			"inputs": [],
			"name": "getCurrentLeverageRate",
			"outputs": [
				{
					"internalType": "uint256",
					"name": "",
					"type": "uint256"
				},
				{
					"internalType": "uint256",
					"name": "",
					"type": "uint256"
				}
			],
			"payable": false,
			"stateMutability": "view",
			"type": "function"
		},
		{
			"constant": true,
			"inputs": [],
			"name": "getEnableRebalanceAndLiquidate",
			"outputs": [
				{
					"internalType": "bool",
					"name": "",
					"type": "bool"
				},
				{
					"internalType": "bool",
					"name": "",
					"type": "bool"
				}
			],
			"payable": false,
			"stateMutability": "view",
			"type": "function"
		},
		{
			"constant": true,
			"inputs": [],
			"name": "getHedgeInfo",
			"outputs": [
				{
					"internalType": "address",
					"name": "",
					"type": "address"
				},
				{
					"internalType": "address",
					"name": "",
					"type": "address"
				},
				{
					"internalType": "address",
					"name": "",
					"type": "address"
				},
				{
					"internalType": "uint256",
					"name": "",
					"type": "uint256"
				},
				{
					"internalType": "uint256",
					"name": "",
					"type": "uint256"
				}
			],
			"payable": false,
			"stateMutability": "view",
			"type": "function"
		},
		{
			"constant": true,
			"inputs": [],
			"name": "getLeverageInfo",
			"outputs": [
				{
					"internalType": "address",
					"name": "",
					"type": "address"
				},
				{
					"internalType": "address",
					"name": "",
					"type": "address"
				},
				{
					"internalType": "address",
					"name": "",
					"type": "address"
				},
				{
					"internalType": "uint256",
					"name": "",
					"type": "uint256"
				},
				{
					"internalType": "uint256",
					"name": "",
					"type": "uint256"
				}
			],
			"payable": false,
			"stateMutability": "view",
			"type": "function"
		},
		{
			"constant": true,
			"inputs": [],
			"name": "getLeverageRebase",
			"outputs": [
				{
					"internalType": "bool",
					"name": "",
					"type": "bool"
				},
				{
					"internalType": "bool",
					"name": "",
					"type": "bool"
				}
			],
			"payable": false,
			"stateMutability": "view",
			"type": "function"
		},
		{
			"constant": true,
			"inputs": [],
			"name": "getMultiSignatureAddress",
			"outputs": [
				{
					"internalType": "address",
					"name": "",
					"type": "address"
				}
			],
			"payable": false,
			"stateMutability": "view",
			"type": "function"
		},
		{
			"constant": true,
			"inputs": [
				{
					"internalType": "uint256",
					"name": "index",
					"type": "uint256"
				}
			],
			"name": "getOperator",
			"outputs": [
				{
					"internalType": "address",
					"name": "",
					"type": "address"
				}
			],
			"payable": false,
			"stateMutability": "view",
			"type": "function"
		},
		{
			"constant": true,
			"inputs": [],
			"name": "getOracleAddress",
			"outputs": [
				{
					"internalType": "address",
					"name": "",
					"type": "address"
				}
			],
			"payable": false,
			"stateMutability": "view",
			"type": "function"
		},
		{
			"constant": true,
			"inputs": [],
			"name": "getTokenNetworths",
			"outputs": [
				{
					"internalType": "uint256",
					"name": "",
					"type": "uint256"
				},
				{
					"internalType": "uint256",
					"name": "",
					"type": "uint256"
				}
			],
			"payable": false,
			"stateMutability": "view",
			"type": "function"
		},
		{
			"constant": true,
			"inputs": [],
			"name": "getTotalworths",
			"outputs": [
				{
					"internalType": "uint256",
					"name": "",
					"type": "uint256"
				},
				{
					"internalType": "uint256",
					"name": "",
					"type": "uint256"
				}
			],
			"payable": false,
			"stateMutability": "view",
			"type": "function"
		},
		{
			"constant": true,
			"inputs": [],
			"name": "implementationVersion",
			"outputs": [
				{
					"internalType": "uint256",
					"name": "",
					"type": "uint256"
				}
			],
			"payable": false,
			"stateMutability": "view",
			"type": "function"
		},
		{
			"constant": false,
			"inputs": [],
			"name": "initialize",
			"outputs": [],
			"payable": false,
			"stateMutability": "nonpayable",
			"type": "function"
		},
		{
			"constant": true,
			"inputs": [],
			"name": "isOwner",
			"outputs": [
				{
					"internalType": "bool",
					"name": "",
					"type": "bool"
				}
			],
			"payable": false,
			"stateMutability": "view",
			"type": "function"
		},
		{
			"constant": true,
			"inputs": [],
			"name": "liquidateThreshold",
			"outputs": [
				{
					"internalType": "uint256",
					"name": "",
					"type": "uint256"
				}
			],
			"payable": false,
			"stateMutability": "view",
			"type": "function"
		},
		{
			"constant": true,
			"inputs": [],
			"name": "owner",
			"outputs": [
				{
					"internalType": "address",
					"name": "_owner",
					"type": "address"
				}
			],
			"payable": false,
			"stateMutability": "view",
			"type": "function"
		},
		{
			"constant": true,
			"inputs": [],
			"name": "ownerExpiredTime",
			"outputs": [
				{
					"internalType": "uint256",
					"name": "_expired",
					"type": "uint256"
				}
			],
			"payable": false,
			"stateMutability": "view",
			"type": "function"
		},
		{
			"constant": true,
			"inputs": [],
			"name": "phxSwapLib",
			"outputs": [
				{
					"internalType": "address",
					"name": "",
					"type": "address"
				}
			],
			"payable": false,
			"stateMutability": "view",
			"type": "function"
		},
		{
			"constant": false,
			"inputs": [],
			"name": "rebalance",
			"outputs": [],
			"payable": false,
			"stateMutability": "nonpayable",
			"type": "function"
		},
		{
			"constant": false,
			"inputs": [],
			"name": "rebalanceAndLiquidate",
			"outputs": [],
			"payable": false,
			"stateMutability": "nonpayable",
			"type": "function"
		},
		{
			"constant": true,
			"inputs": [],
			"name": "rebalanceFee",
			"outputs": [
				{
					"internalType": "uint256",
					"name": "",
					"type": "uint256"
				}
			],
			"payable": false,
			"stateMutability": "view",
			"type": "function"
		},
		{
			"constant": true,
			"inputs": [
				{
					"internalType": "uint256",
					"name": "",
					"type": "uint256"
				}
			],
			"name": "rebalancePrices",
			"outputs": [
				{
					"internalType": "uint256",
					"name": "",
					"type": "uint256"
				}
			],
			"payable": false,
			"stateMutability": "view",
			"type": "function"
		},
		{
			"constant": true,
			"inputs": [],
			"name": "rebalanceTol",
			"outputs": [
				{
					"internalType": "uint256",
					"name": "",
					"type": "uint256"
				}
			],
			"payable": false,
			"stateMutability": "view",
			"type": "function"
		},
		{
			"constant": true,
			"inputs": [],
			"name": "rebaseThreshold",
			"outputs": [
				{
					"internalType": "uint256",
					"name": "",
					"type": "uint256"
				}
			],
			"payable": false,
			"stateMutability": "view",
			"type": "function"
		},
		{
			"constant": true,
			"inputs": [],
			"name": "sellFee",
			"outputs": [
				{
					"internalType": "uint256",
					"name": "",
					"type": "uint256"
				}
			],
			"payable": false,
			"stateMutability": "view",
			"type": "function"
		},
		{
			"constant": false,
			"inputs": [
				{
					"internalType": "uint256",
					"name": "amount",
					"type": "uint256"
				},
				{
					"internalType": "uint256",
					"name": "minAmount",
					"type": "uint256"
				},
				{
					"internalType": "uint256",
					"name": "deadLine",
					"type": "uint256"
				},
				{
					"internalType": "bytes",
					"name": "",
					"type": "bytes"
				}
			],
			"name": "sellHedge",
			"outputs": [],
			"payable": true,
			"stateMutability": "payable",
			"type": "function"
		},
		{
			"constant": false,
			"inputs": [
				{
					"internalType": "uint256",
					"name": "amount",
					"type": "uint256"
				},
				{
					"internalType": "uint256",
					"name": "minAmount",
					"type": "uint256"
				},
				{
					"internalType": "uint256",
					"name": "deadLine",
					"type": "uint256"
				},
				{
					"internalType": "bytes",
					"name": "",
					"type": "bytes"
				}
			],
			"name": "sellHedge2",
			"outputs": [],
			"payable": true,
			"stateMutability": "payable",
			"type": "function"
		},
		{
			"constant": false,
			"inputs": [
				{
					"internalType": "uint256",
					"name": "amount",
					"type": "uint256"
				},
				{
					"internalType": "uint256",
					"name": "minAmount",
					"type": "uint256"
				},
				{
					"internalType": "uint256",
					"name": "deadLine",
					"type": "uint256"
				},
				{
					"internalType": "bytes",
					"name": "",
					"type": "bytes"
				}
			],
			"name": "sellLeverage",
			"outputs": [],
			"payable": true,
			"stateMutability": "payable",
			"type": "function"
		},
		{
			"constant": false,
			"inputs": [
				{
					"internalType": "uint256",
					"name": "amount",
					"type": "uint256"
				},
				{
					"internalType": "uint256",
					"name": "minAmount",
					"type": "uint256"
				},
				{
					"internalType": "uint256",
					"name": "deadLine",
					"type": "uint256"
				},
				{
					"internalType": "bytes",
					"name": "",
					"type": "bytes"
				}
			],
			"name": "sellLeverage2",
			"outputs": [],
			"payable": true,
			"stateMutability": "payable",
			"type": "function"
		},
		{
			"constant": false,
			"inputs": [
				{
					"internalType": "address payable",
					"name": "addrFee",
					"type": "address"
				}
			],
			"name": "setFeeAddress",
			"outputs": [],
			"payable": false,
			"stateMutability": "nonpayable",
			"type": "function"
		},
		{
			"constant": false,
			"inputs": [
				{
					"internalType": "uint256",
					"name": "_buyFee",
					"type": "uint256"
				},
				{
					"internalType": "uint256",
					"name": "_sellFee",
					"type": "uint256"
				},
				{
					"internalType": "uint256",
					"name": "_rebalanceFee",
					"type": "uint256"
				}
			],
			"name": "setLeverageFee",
			"outputs": [],
			"payable": false,
			"stateMutability": "nonpayable",
			"type": "function"
		},
		{
			"constant": false,
			"inputs": [
				{
					"internalType": "address payable",
					"name": "_feeAddress",
					"type": "address"
				},
				{
					"internalType": "address",
					"name": "leveragePool",
					"type": "address"
				},
				{
					"internalType": "address",
					"name": "hedgePool",
					"type": "address"
				},
				{
					"internalType": "address",
					"name": "oracle",
					"type": "address"
				},
				{
					"internalType": "address",
					"name": "_swapRouter",
					"type": "address"
				},
				{
					"internalType": "address",
					"name": "swaplib",
					"type": "address"
				},
				{
					"internalType": "address",
					"name": "rebaseTokenA",
					"type": "address"
				},
				{
					"internalType": "address",
					"name": "rebaseTokenB",
					"type": "address"
				},
				{
					"internalType": "uint256",
					"name": "fees",
					"type": "uint256"
				},
				{
					"internalType": "uint256",
					"name": "_threshold",
					"type": "uint256"
				},
				{
					"internalType": "uint256",
					"name": "rebaseWorth",
					"type": "uint256"
				}
			],
			"name": "setLeveragePoolInfo",
			"outputs": [],
			"payable": false,
			"stateMutability": "nonpayable",
			"type": "function"
		},
		{
			"constant": false,
			"inputs": [
				{
					"internalType": "address",
					"name": "newManager",
					"type": "address"
				}
			],
			"name": "setManager",
			"outputs": [],
			"payable": false,
			"stateMutability": "nonpayable",
			"type": "function"
		},
		{
			"constant": false,
			"inputs": [
				{
					"internalType": "uint256",
					"name": "index",
					"type": "uint256"
				},
				{
					"internalType": "address",
					"name": "newAddress",
					"type": "address"
				}
			],
			"name": "setOperator",
			"outputs": [],
			"payable": false,
			"stateMutability": "nonpayable",
			"type": "function"
		},
		{
			"constant": false,
			"inputs": [
				{
					"internalType": "address",
					"name": "oracle",
					"type": "address"
				}
			],
			"name": "setOracleAddress",
			"outputs": [],
			"payable": false,
			"stateMutability": "nonpayable",
			"type": "function"
		},
		{
			"constant": false,
			"inputs": [
				{
					"internalType": "address",
					"name": "_swapLib",
					"type": "address"
				}
			],
			"name": "setSwapLibAddress",
			"outputs": [],
			"payable": false,
			"stateMutability": "nonpayable",
			"type": "function"
		},
		{
			"constant": false,
			"inputs": [
				{
					"internalType": "address",
					"name": "_swapRouter",
					"type": "address"
				}
			],
			"name": "setSwapRouterAddress",
			"outputs": [],
			"payable": false,
			"stateMutability": "nonpayable",
			"type": "function"
		},
		{
			"constant": true,
			"inputs": [],
			"name": "swapRouter",
			"outputs": [
				{
					"internalType": "address",
					"name": "",
					"type": "address"
				}
			],
			"payable": false,
			"stateMutability": "view",
			"type": "function"
		},
		{
			"constant": false,
			"inputs": [
				{
					"internalType": "address",
					"name": "_newOrigin",
					"type": "address"
				}
			],
			"name": "transferOrigin",
			"outputs": [],
			"payable": false,
			"stateMutability": "nonpayable",
			"type": "function"
		},
		{
			"constant": false,
			"inputs": [
				{
					"internalType": "address",
					"name": "_newOwner",
					"type": "address"
				}
			],
			"name": "transferOwnership",
			"outputs": [],
			"payable": false,
			"stateMutability": "nonpayable",
			"type": "function"
		},
		{
			"constant": true,
			"inputs": [],
			"name": "txOrigin",
			"outputs": [
				{
					"internalType": "address",
					"name": "_origin",
					"type": "address"
				}
			],
			"payable": false,
			"stateMutability": "view",
			"type": "function"
		},
		{
			"constant": false,
			"inputs": [],
			"name": "update",
			"outputs": [],
			"payable": false,
			"stateMutability": "nonpayable",
			"type": "function"
		},
		{
			"constant": true,
			"inputs": [],
			"name": "version",
			"outputs": [
				{
					"internalType": "uint256",
					"name": "version_",
					"type": "uint256"
				}
			],
			"payable": false,
			"stateMutability": "view",
			"type": "function"
		}
	]
}